{
  "contractName": "Authentication",
  "abi": [
    {
      "anonymous": false,
      "inputs": [
        {
          "indexed": false,
          "internalType": "address",
          "name": "userAddress",
          "type": "address"
        }
      ],
      "name": "Registration",
      "type": "event"
    },
    {
      "inputs": [],
      "name": "owner",
      "outputs": [
        {
          "internalType": "address payable",
          "name": "",
          "type": "address"
        }
      ],
      "stateMutability": "view",
      "type": "function"
    },
    {
      "inputs": [
        {
          "internalType": "address",
          "name": "",
          "type": "address"
        }
      ],
      "name": "users",
      "outputs": [
        {
          "internalType": "uint256",
          "name": "flag",
          "type": "uint256"
        },
        {
          "internalType": "address",
          "name": "userAddress",
          "type": "address"
        },
        {
          "internalType": "string",
          "name": "name",
          "type": "string"
        },
        {
          "internalType": "string",
          "name": "street",
          "type": "string"
        },
        {
          "internalType": "uint256",
          "name": "number",
          "type": "uint256"
        },
        {
          "internalType": "uint256",
          "name": "postal",
          "type": "uint256"
        },
        {
          "internalType": "string",
          "name": "city",
          "type": "string"
        },
        {
          "internalType": "bool",
          "name": "isOwner",
          "type": "bool"
        }
      ],
      "stateMutability": "view",
      "type": "function"
    },
    {
      "inputs": [
        {
          "internalType": "address",
          "name": "checkUser",
          "type": "address"
        }
      ],
      "name": "isOwner",
      "outputs": [
        {
          "internalType": "bool",
          "name": "isOwnerIndeed",
          "type": "bool"
        }
      ],
      "stateMutability": "view",
      "type": "function"
    },
    {
      "inputs": [],
      "name": "isOwner",
      "outputs": [
        {
          "internalType": "bool",
          "name": "isOwnerIndeed",
          "type": "bool"
        }
      ],
      "stateMutability": "view",
      "type": "function"
    },
    {
      "inputs": [
        {
          "internalType": "address",
          "name": "checkUser",
          "type": "address"
        }
      ],
      "name": "isUser",
      "outputs": [
        {
          "internalType": "bool",
          "name": "isUserIndeed",
          "type": "bool"
        }
      ],
      "stateMutability": "view",
      "type": "function"
    },
    {
      "inputs": [],
      "name": "isUser",
      "outputs": [
        {
          "internalType": "bool",
          "name": "isUserIndeed",
          "type": "bool"
        }
      ],
      "stateMutability": "view",
      "type": "function"
    },
    {
      "inputs": [
        {
          "internalType": "string",
          "name": "name",
          "type": "string"
        },
        {
          "internalType": "string",
          "name": "street",
          "type": "string"
        },
        {
          "internalType": "uint256",
          "name": "number",
          "type": "uint256"
        },
        {
          "internalType": "uint256",
          "name": "postal",
          "type": "uint256"
        },
        {
          "internalType": "string",
          "name": "city",
          "type": "string"
        }
      ],
      "name": "register",
      "outputs": [],
      "stateMutability": "nonpayable",
      "type": "function"
    }
  ],
  "bytecode": "0x6080604052336000806101000a81548173ffffffffffffffffffffffffffffffffffffffff021916908373ffffffffffffffffffffffffffffffffffffffff16021790555034801561005057600080fd5b50610cdb806100606000396000f3fe608060405234801561001057600080fd5b506004361061007d5760003560e01c8063648817911161005b57806364881791146101005780638da5cb5b1461011c5780638f32d59b1461013a578063a87430ba146101585761007d565b80632f54bf6e146100825780634209fff1146100b25780634c22c119146100e2575b600080fd5b61009c6004803603810190610097919061079a565b61018f565b6040516100a991906107e2565b60405180910390f35b6100cc60048036038101906100c7919061079a565b6101e8565b6040516100d991906107e2565b60405180910390f35b6100ea610236565b6040516100f791906107e2565b60405180910390f35b61011a60048036038101906101159190610979565b610246565b005b610124610444565b6040516101319190610a69565b60405180910390f35b610142610468565b60405161014f91906107e2565b60405180910390f35b610172600480360381019061016d919061079a565b610478565b604051610186989796959493929190610b2a565b60405180910390f35b60008060009054906101000a900473ffffffffffffffffffffffffffffffffffffffff1673ffffffffffffffffffffffffffffffffffffffff168273ffffffffffffffffffffffffffffffffffffffff16149050919050565b600060018060008473ffffffffffffffffffffffffffffffffffffffff1673ffffffffffffffffffffffffffffffffffffffff16815260200190815260200160002060000154149050919050565b6000610241336101e8565b905090565b61024e610236565b1561028e576040517f08c379a000000000000000000000000000000000000000000000000000000000815260040161028590610c09565b60405180910390fd5b604051806101000160405280600181526020013373ffffffffffffffffffffffffffffffffffffffff1681526020018681526020018581526020018481526020018381526020018281526020016102e3610468565b1515815250600160003373ffffffffffffffffffffffffffffffffffffffff1673ffffffffffffffffffffffffffffffffffffffff1681526020019081526020016000206000820151816000015560208201518160010160006101000a81548173ffffffffffffffffffffffffffffffffffffffff021916908373ffffffffffffffffffffffffffffffffffffffff1602179055506040820151816002019080519060200190610394929190610685565b5060608201518160030190805190602001906103b1929190610685565b506080820151816004015560a0820151816005015560c08201518160060190805190602001906103e2929190610685565b5060e08201518160070160006101000a81548160ff0219169083151502179055509050507f478f5152d8fc568db3f8de9fb402fd9d98a1a7541ecfe434e59cf574fbfc5524336040516104359190610c29565b60405180910390a15050505050565b60008054906101000a900473ffffffffffffffffffffffffffffffffffffffff1681565b60006104733361018f565b905090565b60016020528060005260406000206000915090508060000154908060010160009054906101000a900473ffffffffffffffffffffffffffffffffffffffff16908060020180546104c790610c73565b80601f01602080910402602001604051908101604052809291908181526020018280546104f390610c73565b80156105405780601f1061051557610100808354040283529160200191610540565b820191906000526020600020905b81548152906001019060200180831161052357829003601f168201915b50505050509080600301805461055590610c73565b80601f016020809104026020016040519081016040528092919081815260200182805461058190610c73565b80156105ce5780601f106105a3576101008083540402835291602001916105ce565b820191906000526020600020905b8154815290600101906020018083116105b157829003601f168201915b5050505050908060040154908060050154908060060180546105ef90610c73565b80601f016020809104026020016040519081016040528092919081815260200182805461061b90610c73565b80156106685780601f1061063d57610100808354040283529160200191610668565b820191906000526020600020905b81548152906001019060200180831161064b57829003601f168201915b5050505050908060070160009054906101000a900460ff16905088565b82805461069190610c73565b90600052602060002090601f0160209004810192826106b357600085556106fa565b82601f106106cc57805160ff19168380011785556106fa565b828001600101855582156106fa579182015b828111156106f95782518255916020019190600101906106de565b5b509050610707919061070b565b5090565b5b8082111561072457600081600090555060010161070c565b5090565b6000604051905090565b600080fd5b600080fd5b600073ffffffffffffffffffffffffffffffffffffffff82169050919050565b60006107678261073c565b9050919050565b6107778161075c565b811461078257600080fd5b50565b6000813590506107948161076e565b92915050565b6000602082840312156107b0576107af610732565b5b60006107be84828501610785565b91505092915050565b60008115159050919050565b6107dc816107c7565b82525050565b60006020820190506107f760008301846107d3565b92915050565b600080fd5b600080fd5b6000601f19601f8301169050919050565b7f4e487b7100000000000000000000000000000000000000000000000000000000600052604160045260246000fd5b61085082610807565b810181811067ffffffffffffffff8211171561086f5761086e610818565b5b80604052505050565b6000610882610728565b905061088e8282610847565b919050565b600067ffffffffffffffff8211156108ae576108ad610818565b5b6108b782610807565b9050602081019050919050565b82818337600083830152505050565b60006108e66108e184610893565b610878565b90508281526020810184848401111561090257610901610802565b5b61090d8482856108c4565b509392505050565b600082601f83011261092a576109296107fd565b5b813561093a8482602086016108d3565b91505092915050565b6000819050919050565b61095681610943565b811461096157600080fd5b50565b6000813590506109738161094d565b92915050565b600080600080600060a0868803121561099557610994610732565b5b600086013567ffffffffffffffff8111156109b3576109b2610737565b5b6109bf88828901610915565b955050602086013567ffffffffffffffff8111156109e0576109df610737565b5b6109ec88828901610915565b94505060406109fd88828901610964565b9350506060610a0e88828901610964565b925050608086013567ffffffffffffffff811115610a2f57610a2e610737565b5b610a3b88828901610915565b9150509295509295909350565b6000610a538261073c565b9050919050565b610a6381610a48565b82525050565b6000602082019050610a7e6000830184610a5a565b92915050565b610a8d81610943565b82525050565b610a9c8161075c565b82525050565b600081519050919050565b600082825260208201905092915050565b60005b83811015610adc578082015181840152602081019050610ac1565b83811115610aeb576000848401525b50505050565b6000610afc82610aa2565b610b068185610aad565b9350610b16818560208601610abe565b610b1f81610807565b840191505092915050565b600061010082019050610b40600083018b610a84565b610b4d602083018a610a93565b8181036040830152610b5f8189610af1565b90508181036060830152610b738188610af1565b9050610b826080830187610a84565b610b8f60a0830186610a84565b81810360c0830152610ba18185610af1565b9050610bb060e08301846107d3565b9998505050505050505050565b7f596f752061726520616c72656164792072656769737465726564000000000000600082015250565b6000610bf3601a83610aad565b9150610bfe82610bbd565b602082019050919050565b60006020820190508181036000830152610c2281610be6565b9050919050565b6000602082019050610c3e6000830184610a93565b92915050565b7f4e487b7100000000000000000000000000000000000000000000000000000000600052602260045260246000fd5b60006002820490506001821680610c8b57607f821691505b60208210811415610c9f57610c9e610c44565b5b5091905056fea26469706673582212206ab34a52b38d1981c9ed1b2f7c9e418e4391ed255783b974fdd2d2be8618f85e64736f6c634300080a0033",
  "immutableReferences": {},
  "source": "pragma solidity >=0.7.0 <0.9.0;\r\n\r\nlibrary Shared {\r\n    struct User {\r\n        uint flag;\r\n        address userAddress;\r\n        string name;\r\n        string street;\r\n        uint number;\r\n        uint postal;\r\n        string city;\r\n        bool isOwner;\r\n    }\r\n\r\n    struct ShopItem {\r\n        uint flag;\r\n        uint id;\r\n        string title;\r\n        string description;\r\n        uint cost;\r\n        uint inventory;\r\n    }\r\n\r\n    struct Order {\r\n        uint flag;\r\n        uint shopItemId;\r\n        uint amount;\r\n        address userAddress;\r\n        uint orderTime;\r\n    }\r\n}\r\n\r\ncontract Authentication {\r\n\r\n  address payable public owner = payable(msg.sender);\r\n  mapping(address => Shared.User) public users;\r\n\r\n  event Registration(address userAddress);\r\n\r\n  modifier onlyOwner() {\r\n    require(isOwner(), \"This function is restricted to the contract's owner\");\r\n    _;\r\n  }\r\n\r\n  modifier onlyUser() {\r\n      require(isUser(), \"You need to register first\");\r\n      _;\r\n  }\r\n\r\n  function isOwner() public view returns(bool isOwnerIndeed) {\r\n      return isOwner(msg.sender);\r\n  }\r\n\r\n  function isOwner(address checkUser) public view returns(bool isOwnerIndeed) {\r\n      return checkUser == owner;\r\n  }\r\n\r\n  function isUser() public view returns(bool isUserIndeed) {\r\n      return isUser(msg.sender);\r\n  }\r\n\r\n  function isUser(address checkUser) public view returns(bool isUserIndeed) {\r\n      return users[checkUser].flag == 1;\r\n  }\r\n\r\n  function register(\r\n      string memory name,\r\n      string memory street,\r\n      uint number,\r\n      uint postal,\r\n      string memory city\r\n  ) public {\r\n      require(!isUser(), \"You are already registered\");\r\n      users[msg.sender] = Shared.User(1, msg.sender, name, street, number, postal, city, isOwner());\r\n\r\n      emit Registration(msg.sender);\r\n  }\r\n}",
  "sourcePath": "D:\\Users\\Alex\\Desktop\\simple-shop-dapp\\simple-shop-smart-contract\\contracts\\Authentication.sol",
  "compiler": {
    "name": "solc",
    "version": "0.8.10+commit.fc410830.Emscripten.clang"
  },
  "schemaVersion": "3.4.4",
  "updatedAt": "2022-01-09T10:00:01.447Z",
  "devdoc": {
    "kind": "dev",
    "methods": {},
    "version": 1
  },
  "userdoc": {
    "kind": "user",
    "methods": {},
    "version": 1
  }
}