{
  "contractName": "Authentication",
  "abi": [
    {
      "inputs": [],
      "name": "owner",
      "outputs": [
        {
          "internalType": "address payable",
          "name": "",
          "type": "address"
        }
      ],
      "stateMutability": "view",
      "type": "function"
    },
    {
      "inputs": [
        {
          "internalType": "address",
          "name": "checkUser",
          "type": "address"
        }
      ],
      "name": "isOwner",
      "outputs": [
        {
          "internalType": "bool",
          "name": "isOwnerIndeed",
          "type": "bool"
        }
      ],
      "stateMutability": "view",
      "type": "function"
    },
    {
      "inputs": [],
      "name": "isOwner",
      "outputs": [
        {
          "internalType": "bool",
          "name": "isOwnerIndeed",
          "type": "bool"
        }
      ],
      "stateMutability": "view",
      "type": "function"
    }
  ],
  "bytecode": "0x6080604052336000806101000a81548173ffffffffffffffffffffffffffffffffffffffff021916908373ffffffffffffffffffffffffffffffffffffffff16021790555034801561005057600080fd5b50610277806100606000396000f3fe608060405234801561001057600080fd5b50600436106100415760003560e01c80632f54bf6e146100465780638da5cb5b146100765780638f32d59b14610094575b600080fd5b610060600480360381019061005b91906101a2565b6100b2565b60405161006d91906101ea565b60405180910390f35b61007e61010b565b60405161008b9190610226565b60405180910390f35b61009c61012f565b6040516100a991906101ea565b60405180910390f35b60008060009054906101000a900473ffffffffffffffffffffffffffffffffffffffff1673ffffffffffffffffffffffffffffffffffffffff168273ffffffffffffffffffffffffffffffffffffffff16149050919050565b60008054906101000a900473ffffffffffffffffffffffffffffffffffffffff1681565b600061013a336100b2565b905090565b600080fd5b600073ffffffffffffffffffffffffffffffffffffffff82169050919050565b600061016f82610144565b9050919050565b61017f81610164565b811461018a57600080fd5b50565b60008135905061019c81610176565b92915050565b6000602082840312156101b8576101b761013f565b5b60006101c68482850161018d565b91505092915050565b60008115159050919050565b6101e4816101cf565b82525050565b60006020820190506101ff60008301846101db565b92915050565b600061021082610144565b9050919050565b61022081610205565b82525050565b600060208201905061023b6000830184610217565b9291505056fea2646970667358221220a995423c5b50b0e06f057cdafb4090dfff9cd13b370d07591b2dd4879d383d8764736f6c634300080a0033",
  "immutableReferences": {},
  "source": "pragma solidity ^0.8.0;\r\n\r\nlibrary Shared {\r\n\r\n    struct UserData {\r\n        string name;\r\n        string street;\r\n        uint number;\r\n        uint postal;\r\n        string city;\r\n    }\r\n\r\n    struct ShopItem {\r\n        uint flag;\r\n        uint id;\r\n        string title;\r\n        string description;\r\n        uint cost;\r\n        uint inventory;\r\n    }\r\n\r\n    struct Order {\r\n        uint flag;\r\n        uint itemId;\r\n        uint amount;\r\n        uint finalCost;\r\n        address userAddress;\r\n        uint orderTime;\r\n        UserData userData;\r\n    }\r\n}\r\n\r\ncontract Authentication {\r\n\r\n  address payable public owner = payable(msg.sender);\r\n\r\n  modifier onlyOwner() {\r\n    require(isOwner(), \"This function is restricted to the contract's owner\");\r\n    _;\r\n  }\r\n\r\n  function isOwner() public view returns(bool isOwnerIndeed) {\r\n      return isOwner(msg.sender);\r\n  }\r\n\r\n  function isOwner(address checkUser) public view returns(bool isOwnerIndeed) {\r\n      return checkUser == owner;\r\n  }\r\n}",
  "sourcePath": "D:\\Users\\Alex\\Desktop\\simple-shop-dapp\\truffle\\contracts\\Authentication.sol",
  "compiler": {
    "name": "solc",
    "version": "0.8.10+commit.fc410830.Emscripten.clang"
  },
  "schemaVersion": "3.4.4",
  "updatedAt": "2022-01-09T22:00:57.099Z",
  "devdoc": {
    "kind": "dev",
    "methods": {},
    "version": 1
  },
  "userdoc": {
    "kind": "user",
    "methods": {},
    "version": 1
  }
}