{
  "contractName": "ManageShop",
  "abi": [
    {
      "anonymous": false,
      "inputs": [
        {
          "indexed": false,
          "internalType": "uint256",
          "name": "id",
          "type": "uint256"
        }
      ],
      "name": "AddShopItem",
      "type": "event"
    },
    {
      "anonymous": false,
      "inputs": [
        {
          "indexed": false,
          "internalType": "uint256",
          "name": "id",
          "type": "uint256"
        }
      ],
      "name": "DeleteShopItem",
      "type": "event"
    },
    {
      "anonymous": false,
      "inputs": [
        {
          "indexed": false,
          "internalType": "uint256",
          "name": "id",
          "type": "uint256"
        }
      ],
      "name": "EditShopItem",
      "type": "event"
    },
    {
      "anonymous": false,
      "inputs": [
        {
          "indexed": false,
          "internalType": "address",
          "name": "userAddress",
          "type": "address"
        }
      ],
      "name": "Registration",
      "type": "event"
    },
    {
      "inputs": [],
      "name": "idCounter",
      "outputs": [
        {
          "internalType": "uint256",
          "name": "",
          "type": "uint256"
        }
      ],
      "stateMutability": "view",
      "type": "function"
    },
    {
      "inputs": [
        {
          "internalType": "address",
          "name": "checkUser",
          "type": "address"
        }
      ],
      "name": "isOwner",
      "outputs": [
        {
          "internalType": "bool",
          "name": "isOwnerIndeed",
          "type": "bool"
        }
      ],
      "stateMutability": "view",
      "type": "function"
    },
    {
      "inputs": [],
      "name": "isOwner",
      "outputs": [
        {
          "internalType": "bool",
          "name": "isOwnerIndeed",
          "type": "bool"
        }
      ],
      "stateMutability": "view",
      "type": "function"
    },
    {
      "inputs": [
        {
          "internalType": "address",
          "name": "checkUser",
          "type": "address"
        }
      ],
      "name": "isUser",
      "outputs": [
        {
          "internalType": "bool",
          "name": "isUserIndeed",
          "type": "bool"
        }
      ],
      "stateMutability": "view",
      "type": "function"
    },
    {
      "inputs": [],
      "name": "isUser",
      "outputs": [
        {
          "internalType": "bool",
          "name": "isUserIndeed",
          "type": "bool"
        }
      ],
      "stateMutability": "view",
      "type": "function"
    },
    {
      "inputs": [],
      "name": "owner",
      "outputs": [
        {
          "internalType": "address payable",
          "name": "",
          "type": "address"
        }
      ],
      "stateMutability": "view",
      "type": "function"
    },
    {
      "inputs": [
        {
          "internalType": "string",
          "name": "name",
          "type": "string"
        },
        {
          "internalType": "string",
          "name": "street",
          "type": "string"
        },
        {
          "internalType": "uint256",
          "name": "number",
          "type": "uint256"
        },
        {
          "internalType": "uint256",
          "name": "postal",
          "type": "uint256"
        },
        {
          "internalType": "string",
          "name": "city",
          "type": "string"
        }
      ],
      "name": "register",
      "outputs": [],
      "stateMutability": "nonpayable",
      "type": "function"
    },
    {
      "inputs": [
        {
          "internalType": "uint256",
          "name": "",
          "type": "uint256"
        }
      ],
      "name": "shopItemIndexes",
      "outputs": [
        {
          "internalType": "uint256",
          "name": "",
          "type": "uint256"
        }
      ],
      "stateMutability": "view",
      "type": "function"
    },
    {
      "inputs": [
        {
          "internalType": "uint256",
          "name": "",
          "type": "uint256"
        }
      ],
      "name": "shopItems",
      "outputs": [
        {
          "internalType": "uint256",
          "name": "flag",
          "type": "uint256"
        },
        {
          "internalType": "uint256",
          "name": "id",
          "type": "uint256"
        },
        {
          "internalType": "string",
          "name": "title",
          "type": "string"
        },
        {
          "internalType": "string",
          "name": "description",
          "type": "string"
        },
        {
          "internalType": "uint256",
          "name": "cost",
          "type": "uint256"
        },
        {
          "internalType": "uint256",
          "name": "inventory",
          "type": "uint256"
        }
      ],
      "stateMutability": "view",
      "type": "function"
    },
    {
      "inputs": [
        {
          "internalType": "address",
          "name": "",
          "type": "address"
        }
      ],
      "name": "users",
      "outputs": [
        {
          "internalType": "uint256",
          "name": "flag",
          "type": "uint256"
        },
        {
          "internalType": "address",
          "name": "userAddress",
          "type": "address"
        },
        {
          "internalType": "string",
          "name": "name",
          "type": "string"
        },
        {
          "internalType": "string",
          "name": "street",
          "type": "string"
        },
        {
          "internalType": "uint256",
          "name": "number",
          "type": "uint256"
        },
        {
          "internalType": "uint256",
          "name": "postal",
          "type": "uint256"
        },
        {
          "internalType": "string",
          "name": "city",
          "type": "string"
        },
        {
          "internalType": "bool",
          "name": "isOwner",
          "type": "bool"
        }
      ],
      "stateMutability": "view",
      "type": "function"
    },
    {
      "inputs": [
        {
          "internalType": "string",
          "name": "title",
          "type": "string"
        },
        {
          "internalType": "string",
          "name": "description",
          "type": "string"
        },
        {
          "internalType": "uint256",
          "name": "cost",
          "type": "uint256"
        },
        {
          "internalType": "uint256",
          "name": "inventory",
          "type": "uint256"
        }
      ],
      "name": "addShopItem",
      "outputs": [
        {
          "internalType": "uint256",
          "name": "",
          "type": "uint256"
        }
      ],
      "stateMutability": "nonpayable",
      "type": "function"
    },
    {
      "inputs": [
        {
          "internalType": "uint256",
          "name": "id",
          "type": "uint256"
        }
      ],
      "name": "deleteShopItem",
      "outputs": [],
      "stateMutability": "nonpayable",
      "type": "function"
    },
    {
      "inputs": [
        {
          "internalType": "uint256",
          "name": "id",
          "type": "uint256"
        }
      ],
      "name": "getShopItem",
      "outputs": [
        {
          "internalType": "string",
          "name": "",
          "type": "string"
        },
        {
          "internalType": "string",
          "name": "",
          "type": "string"
        },
        {
          "internalType": "uint256",
          "name": "",
          "type": "uint256"
        },
        {
          "internalType": "uint256",
          "name": "",
          "type": "uint256"
        }
      ],
      "stateMutability": "view",
      "type": "function"
    },
    {
      "inputs": [
        {
          "internalType": "uint256",
          "name": "id",
          "type": "uint256"
        },
        {
          "internalType": "string",
          "name": "title",
          "type": "string"
        },
        {
          "internalType": "string",
          "name": "description",
          "type": "string"
        },
        {
          "internalType": "uint256",
          "name": "cost",
          "type": "uint256"
        },
        {
          "internalType": "uint256",
          "name": "inventory",
          "type": "uint256"
        }
      ],
      "name": "editShopItem",
      "outputs": [],
      "stateMutability": "nonpayable",
      "type": "function"
    }
  ],
  "bytecode": "0x6080604052336000806101000a81548173ffffffffffffffffffffffffffffffffffffffff021916908373ffffffffffffffffffffffffffffffffffffffff160217905550600160025534801561005557600080fd5b50611f9b806100656000396000f3fe608060405234801561001057600080fd5b50600436106100ea5760003560e01c80638da5cb5b1161008c578063a87430ba11610066578063a87430ba1461028d578063cf58ad88146102c4578063eb08ab28146102e0578063f08aef0d146102fe576100ea565b80638da5cb5b146102215780638f32d59b1461023f578063a33282e41461025d576100ea565b80634c22c119116100c85780634c22c1191461017f5780635ca9e3801461019d57806364881791146101d257806372af7ea2146101ee576100ea565b80631ce9b1ca146100ef5780632f54bf6e1461011f5780634209fff11461014f575b600080fd5b6101096004803603810190610104919061150c565b61031a565b6040516101169190611548565b60405180910390f35b610139600480360381019061013491906115c1565b61033e565b6040516101469190611609565b60405180910390f35b610169600480360381019061016491906115c1565b610397565b6040516101769190611609565b60405180910390f35b6101876103e5565b6040516101949190611609565b60405180910390f35b6101b760048036038101906101b2919061150c565b6103f5565b6040516101c9969594939291906116bd565b60405180910390f35b6101ec60048036038101906101e79190611861565b610541565b005b6102086004803603810190610203919061150c565b61073f565b6040516102189493929190611930565b60405180910390f35b61022961091e565b60405161023691906119a4565b60405180910390f35b610247610942565b6040516102549190611609565b60405180910390f35b610277600480360381019061027291906119bf565b610952565b6040516102849190611548565b60405180910390f35b6102a760048036038101906102a291906115c1565b610b56565b6040516102bb989796959493929190611a6d565b60405180910390f35b6102de60048036038101906102d99190611b00565b610d63565b005b6102e8611050565b6040516102f59190611548565b60405180910390f35b6103186004803603810190610313919061150c565b611056565b005b6004818154811061032a57600080fd5b906000526020600020016000915090505481565b60008060009054906101000a900473ffffffffffffffffffffffffffffffffffffffff1673ffffffffffffffffffffffffffffffffffffffff168273ffffffffffffffffffffffffffffffffffffffff16149050919050565b600060018060008473ffffffffffffffffffffffffffffffffffffffff1673ffffffffffffffffffffffffffffffffffffffff16815260200190815260200160002060000154149050919050565b60006103f033610397565b905090565b600360205280600052604060002060009150905080600001549080600101549080600201805461042490611be2565b80601f016020809104026020016040519081016040528092919081815260200182805461045090611be2565b801561049d5780601f106104725761010080835404028352916020019161049d565b820191906000526020600020905b81548152906001019060200180831161048057829003601f168201915b5050505050908060030180546104b290611be2565b80601f01602080910402602001604051908101604052809291908181526020018280546104de90611be2565b801561052b5780601f106105005761010080835404028352916020019161052b565b820191906000526020600020905b81548152906001019060200180831161050e57829003601f168201915b5050505050908060040154908060050154905086565b6105496103e5565b15610589576040517f08c379a000000000000000000000000000000000000000000000000000000000815260040161058090611c60565b60405180910390fd5b604051806101000160405280600181526020013373ffffffffffffffffffffffffffffffffffffffff1681526020018681526020018581526020018481526020018381526020018281526020016105de610942565b1515815250600160003373ffffffffffffffffffffffffffffffffffffffff1673ffffffffffffffffffffffffffffffffffffffff1681526020019081526020016000206000820151816000015560208201518160010160006101000a81548173ffffffffffffffffffffffffffffffffffffffff021916908373ffffffffffffffffffffffffffffffffffffffff160217905550604082015181600201908051906020019061068f9291906113df565b5060608201518160030190805190602001906106ac9291906113df565b506080820151816004015560a0820151816005015560c08201518160060190805190602001906106dd9291906113df565b5060e08201518160070160006101000a81548160ff0219169083151502179055509050507f478f5152d8fc568db3f8de9fb402fd9d98a1a7541ecfe434e59cf574fbfc5524336040516107309190611c80565b60405180910390a15050505050565b6060806000806000600360008781526020019081526020016000206040518060c0016040529081600082015481526020016001820154815260200160028201805461078990611be2565b80601f01602080910402602001604051908101604052809291908181526020018280546107b590611be2565b80156108025780601f106107d757610100808354040283529160200191610802565b820191906000526020600020905b8154815290600101906020018083116107e557829003601f168201915b5050505050815260200160038201805461081b90611be2565b80601f016020809104026020016040519081016040528092919081815260200182805461084790611be2565b80156108945780601f1061086957610100808354040283529160200191610894565b820191906000526020600020905b81548152906001019060200180831161087757829003601f168201915b5050505050815260200160048201548152602001600582015481525050905060018160000151146108fa576040517f08c379a00000000000000000000000000000000000000000000000000000000081526004016108f190611ce7565b60405180910390fd5b8060400151816060015182608001518360a001519450945094509450509193509193565b60008054906101000a900473ffffffffffffffffffffffffffffffffffffffff1681565b600061094d3361033e565b905090565b600061095c610942565b61099b576040517f08c379a000000000000000000000000000000000000000000000000000000000815260040161099290611d79565b60405180910390fd5b8260008110156109e0576040517f08c379a00000000000000000000000000000000000000000000000000000000081526004016109d790611de5565b60405180910390fd5b826000811015610a25576040517f08c379a0000000000000000000000000000000000000000000000000000000008152600401610a1c90611de5565b60405180910390fd5b6040518060c001604052806001815260200160025481526020018881526020018781526020018681526020018581525060036000600254815260200190815260200160002060008201518160000155602082015181600101556040820151816002019080519060200190610a9a9291906113df565b506060820151816003019080519060200190610ab79291906113df565b506080820151816004015560a08201518160050155905050600460025490806001815401808255809150506001900390600052602060002001600090919091909150557f1bcba37a1a4b522b287291c39323a9beb282280f80a06dfcc06660a46fd71dba600254604051610b2b9190611548565b60405180910390a160026000815480929190610b4690611e34565b9190505592505050949350505050565b60016020528060005260406000206000915090508060000154908060010160009054906101000a900473ffffffffffffffffffffffffffffffffffffffff1690806002018054610ba590611be2565b80601f0160208091040260200160405190810160405280929190818152602001828054610bd190611be2565b8015610c1e5780601f10610bf357610100808354040283529160200191610c1e565b820191906000526020600020905b815481529060010190602001808311610c0157829003601f168201915b505050505090806003018054610c3390611be2565b80601f0160208091040260200160405190810160405280929190818152602001828054610c5f90611be2565b8015610cac5780601f10610c8157610100808354040283529160200191610cac565b820191906000526020600020905b815481529060010190602001808311610c8f57829003601f168201915b505050505090806004015490806005015490806006018054610ccd90611be2565b80601f0160208091040260200160405190810160405280929190818152602001828054610cf990611be2565b8015610d465780601f10610d1b57610100808354040283529160200191610d46565b820191906000526020600020905b815481529060010190602001808311610d2957829003601f168201915b5050505050908060070160009054906101000a900460ff16905088565b610d6b610942565b610daa576040517f08c379a0000000000000000000000000000000000000000000000000000000008152600401610da190611d79565b60405180910390fd5b816000811015610def576040517f08c379a0000000000000000000000000000000000000000000000000000000008152600401610de690611de5565b60405180910390fd5b816000811015610e34576040517f08c379a0000000000000000000000000000000000000000000000000000000008152600401610e2b90611de5565b60405180910390fd5b6000600360008981526020019081526020016000206040518060c00160405290816000820154815260200160018201548152602001600282018054610e7890611be2565b80601f0160208091040260200160405190810160405280929190818152602001828054610ea490611be2565b8015610ef15780601f10610ec657610100808354040283529160200191610ef1565b820191906000526020600020905b815481529060010190602001808311610ed457829003601f168201915b50505050508152602001600382018054610f0a90611be2565b80601f0160208091040260200160405190810160405280929190818152602001828054610f3690611be2565b8015610f835780601f10610f5857610100808354040283529160200191610f83565b820191906000526020600020905b815481529060010190602001808311610f6657829003601f168201915b505050505081526020016004820154815260200160058201548152505090506001816000015114610fe9576040517f08c379a0000000000000000000000000000000000000000000000000000000008152600401610fe090611ce7565b60405180910390fd5b86816040018190525085816060018190525084816080018181525050838160a00181815250507f97361b1697ad3a1a82fcf3afa0b80fecf9407859d7ef80aede71a02884fc384c8860405161103e9190611548565b60405180910390a15050505050505050565b60025481565b61105e610942565b61109d576040517f08c379a000000000000000000000000000000000000000000000000000000000815260040161109490611d79565b60405180910390fd5b6000600360008381526020019081526020016000206040518060c001604052908160008201548152602001600182015481526020016002820180546110e190611be2565b80601f016020809104026020016040519081016040528092919081815260200182805461110d90611be2565b801561115a5780601f1061112f5761010080835404028352916020019161115a565b820191906000526020600020905b81548152906001019060200180831161113d57829003601f168201915b5050505050815260200160038201805461117390611be2565b80601f016020809104026020016040519081016040528092919081815260200182805461119f90611be2565b80156111ec5780601f106111c1576101008083540402835291602001916111ec565b820191906000526020600020905b8154815290600101906020018083116111cf57829003601f168201915b505050505081526020016004820154815260200160058201548152505090506001816000015114611252576040517f08c379a000000000000000000000000000000000000000000000000000000000815260040161124990611ce7565b60405180910390fd5b60008160000181815250506003600083815260200190815260200160002060008082016000905560018201600090556002820160006112919190611465565b6003820160006112a19190611465565b60048201600090556005820160009055505060005b6004805490508110156113015782600482815481106112d8576112d7611e7d565b5b906000526020600020015414156112ee57611301565b80806112f990611e34565b9150506112b6565b5b60016004805490506113149190611eac565b81101561137b57600460018261132a9190611ee0565b8154811061133b5761133a611e7d565b5b90600052602060002001546004828154811061135a57611359611e7d565b5b9060005260206000200181905550808061137390611e34565b915050611302565b600480548061138d5761138c611f36565b5b600190038181906000526020600020016000905590557f5e594568675a7ff56299991250b9ee2a369d3f48d6ce689ebfef825886aa0480836040516113d29190611548565b60405180910390a1505050565b8280546113eb90611be2565b90600052602060002090601f01602090048101928261140d5760008555611454565b82601f1061142657805160ff1916838001178555611454565b82800160010185558215611454579182015b82811115611453578251825591602001919060010190611438565b5b50905061146191906114a5565b5090565b50805461147190611be2565b6000825580601f1061148357506114a2565b601f0160209004906000526020600020908101906114a191906114a5565b5b50565b5b808211156114be5760008160009055506001016114a6565b5090565b6000604051905090565b600080fd5b600080fd5b6000819050919050565b6114e9816114d6565b81146114f457600080fd5b50565b600081359050611506816114e0565b92915050565b600060208284031215611522576115216114cc565b5b6000611530848285016114f7565b91505092915050565b611542816114d6565b82525050565b600060208201905061155d6000830184611539565b92915050565b600073ffffffffffffffffffffffffffffffffffffffff82169050919050565b600061158e82611563565b9050919050565b61159e81611583565b81146115a957600080fd5b50565b6000813590506115bb81611595565b92915050565b6000602082840312156115d7576115d66114cc565b5b60006115e5848285016115ac565b91505092915050565b60008115159050919050565b611603816115ee565b82525050565b600060208201905061161e60008301846115fa565b92915050565b600081519050919050565b600082825260208201905092915050565b60005b8381101561165e578082015181840152602081019050611643565b8381111561166d576000848401525b50505050565b6000601f19601f8301169050919050565b600061168f82611624565b611699818561162f565b93506116a9818560208601611640565b6116b281611673565b840191505092915050565b600060c0820190506116d26000830189611539565b6116df6020830188611539565b81810360408301526116f18187611684565b905081810360608301526117058186611684565b90506117146080830185611539565b61172160a0830184611539565b979650505050505050565b600080fd5b600080fd5b7f4e487b7100000000000000000000000000000000000000000000000000000000600052604160045260246000fd5b61176e82611673565b810181811067ffffffffffffffff8211171561178d5761178c611736565b5b80604052505050565b60006117a06114c2565b90506117ac8282611765565b919050565b600067ffffffffffffffff8211156117cc576117cb611736565b5b6117d582611673565b9050602081019050919050565b82818337600083830152505050565b60006118046117ff846117b1565b611796565b9050828152602081018484840111156118205761181f611731565b5b61182b8482856117e2565b509392505050565b600082601f8301126118485761184761172c565b5b81356118588482602086016117f1565b91505092915050565b600080600080600060a0868803121561187d5761187c6114cc565b5b600086013567ffffffffffffffff81111561189b5761189a6114d1565b5b6118a788828901611833565b955050602086013567ffffffffffffffff8111156118c8576118c76114d1565b5b6118d488828901611833565b94505060406118e5888289016114f7565b93505060606118f6888289016114f7565b925050608086013567ffffffffffffffff811115611917576119166114d1565b5b61192388828901611833565b9150509295509295909350565b6000608082019050818103600083015261194a8187611684565b9050818103602083015261195e8186611684565b905061196d6040830185611539565b61197a6060830184611539565b95945050505050565b600061198e82611563565b9050919050565b61199e81611983565b82525050565b60006020820190506119b96000830184611995565b92915050565b600080600080608085870312156119d9576119d86114cc565b5b600085013567ffffffffffffffff8111156119f7576119f66114d1565b5b611a0387828801611833565b945050602085013567ffffffffffffffff811115611a2457611a236114d1565b5b611a3087828801611833565b9350506040611a41878288016114f7565b9250506060611a52878288016114f7565b91505092959194509250565b611a6781611583565b82525050565b600061010082019050611a83600083018b611539565b611a90602083018a611a5e565b8181036040830152611aa28189611684565b90508181036060830152611ab68188611684565b9050611ac56080830187611539565b611ad260a0830186611539565b81810360c0830152611ae48185611684565b9050611af360e08301846115fa565b9998505050505050505050565b600080600080600060a08688031215611b1c57611b1b6114cc565b5b6000611b2a888289016114f7565b955050602086013567ffffffffffffffff811115611b4b57611b4a6114d1565b5b611b5788828901611833565b945050604086013567ffffffffffffffff811115611b7857611b776114d1565b5b611b8488828901611833565b9350506060611b95888289016114f7565b9250506080611ba6888289016114f7565b9150509295509295909350565b7f4e487b7100000000000000000000000000000000000000000000000000000000600052602260045260246000fd5b60006002820490506001821680611bfa57607f821691505b60208210811415611c0e57611c0d611bb3565b5b50919050565b7f596f752061726520616c72656164792072656769737465726564000000000000600082015250565b6000611c4a601a8361162f565b9150611c5582611c14565b602082019050919050565b60006020820190508181036000830152611c7981611c3d565b9050919050565b6000602082019050611c956000830184611a5e565b92915050565b7f5468657265206973206e6f20737563682073686f70206974656d000000000000600082015250565b6000611cd1601a8361162f565b9150611cdc82611c9b565b602082019050919050565b60006020820190508181036000830152611d0081611cc4565b9050919050565b7f546869732066756e6374696f6e206973207265737472696374656420746f207460008201527f686520636f6e74726163742773206f776e657200000000000000000000000000602082015250565b6000611d6360338361162f565b9150611d6e82611d07565b604082019050919050565b60006020820190508181036000830152611d9281611d56565b9050919050565b7f4e756d6265722063616e74206265206e65676174697665000000000000000000600082015250565b6000611dcf60178361162f565b9150611dda82611d99565b602082019050919050565b60006020820190508181036000830152611dfe81611dc2565b9050919050565b7f4e487b7100000000000000000000000000000000000000000000000000000000600052601160045260246000fd5b6000611e3f826114d6565b91507fffffffffffffffffffffffffffffffffffffffffffffffffffffffffffffffff821415611e7257611e71611e05565b5b600182019050919050565b7f4e487b7100000000000000000000000000000000000000000000000000000000600052603260045260246000fd5b6000611eb7826114d6565b9150611ec2836114d6565b925082821015611ed557611ed4611e05565b5b828203905092915050565b6000611eeb826114d6565b9150611ef6836114d6565b9250827fffffffffffffffffffffffffffffffffffffffffffffffffffffffffffffffff03821115611f2b57611f2a611e05565b5b828201905092915050565b7f4e487b7100000000000000000000000000000000000000000000000000000000600052603160045260246000fdfea2646970667358221220d807af1816703f7228442ad927867383fdba303c473c3c2ca36bab380efa2a2264736f6c634300080a0033",
  "immutableReferences": {},
  "source": "pragma solidity >=0.7.0 <0.9.0;\r\n\r\nimport \"./Authentication.sol\";\r\n\r\ncontract ManageShop is Authentication {\r\n\r\n    uint public idCounter = 1;\r\n    mapping(uint => Shared.ShopItem) public shopItems;\r\n    uint[] public shopItemIndexes;\r\n\r\n    event AddShopItem(uint id);\r\n    event DeleteShopItem(uint id);\r\n    event EditShopItem(uint id);\r\n\r\n    modifier cantBeNegative(uint number) {\r\n        require(number >= 0, \"Number cant be negative\");\r\n        _;\r\n    }\r\n\r\n    modifier greaterThanZero(uint number) {\r\n        require(number > 0, \"Number must be greater than 0\");\r\n        _;\r\n    }\r\n\r\n    function addShopItem(\r\n        string memory title,\r\n        string memory description,\r\n        uint cost,\r\n        uint inventory\r\n    ) public onlyOwner cantBeNegative(cost) cantBeNegative(inventory) returns(uint) {\r\n        shopItems[idCounter] = Shared.ShopItem(1, idCounter, title, description, cost, inventory);\r\n        shopItemIndexes.push(idCounter);\r\n        emit AddShopItem(idCounter);\r\n        return idCounter++;\r\n    }\r\n\r\n    function deleteShopItem(uint id) public onlyOwner {\r\n        Shared.ShopItem memory item = shopItems[id];\r\n        require(item.flag == 1, \"There is no such shop item\");\r\n        item.flag = 0;\r\n        delete shopItems[id];\r\n\r\n        uint index = 0;\r\n        for(index = 0; index < shopItemIndexes.length; index++) {\r\n            if(shopItemIndexes[index] == id) break;\r\n        }\r\n        while(index < shopItemIndexes.length - 1) {\r\n            shopItemIndexes[index] = shopItemIndexes[index+1];\r\n            index++;\r\n        }\r\n        shopItemIndexes.pop();\r\n        emit DeleteShopItem(id);\r\n    }\r\n\r\n    function getShopItem(uint id) public view returns(string memory, string memory, uint, uint) {\r\n        Shared.ShopItem memory item = shopItems[id];\r\n        require(item.flag == 1, \"There is no such shop item\");\r\n        return (item.title, item.description, item.cost, item.inventory);\r\n    }\r\n\r\n    function editShopItem(\r\n        uint id,\r\n        string memory title,\r\n        string memory description,\r\n        uint cost,\r\n        uint inventory\r\n    ) public onlyOwner cantBeNegative(cost) cantBeNegative(inventory) {\r\n        Shared.ShopItem memory item = shopItems[id];\r\n        require(item.flag == 1, \"There is no such shop item\");\r\n        item.title = title;\r\n        item.description = description;\r\n        item.cost = cost;\r\n        item.inventory = inventory;\r\n        emit EditShopItem(id);\r\n    }\r\n}\r\n\r\n\r\n/* Commands\r\n\r\nlet auth = await Authentication.deployed()\r\nauth.register(\"Alexander Korfken\", \"Bonner Allee\", 12, 53111, \"Bonn\")\r\nauth.isUser()\r\nlet shop = await ManageShop.deployed()\r\nshop.addShopItem(\"Hausschuhe\", \"Beschreibung fr Hausschuhe\", 5, 10)\r\nlet hausschuhe = await shop.shopItems(1)\r\nhausschuhe.description\r\n*/",
  "sourcePath": "D:\\Users\\Alex\\Desktop\\simple-shop-dapp\\simple-shop-smart-contract\\contracts\\ManageShop.sol",
  "compiler": {
    "name": "solc",
    "version": "0.8.10+commit.fc410830.Emscripten.clang"
  },
  "schemaVersion": "3.4.4",
  "updatedAt": "2022-01-09T10:00:01.460Z",
  "devdoc": {
    "kind": "dev",
    "methods": {},
    "version": 1
  },
  "userdoc": {
    "kind": "user",
    "methods": {},
    "version": 1
  }
}