{
  "contractName": "ManageShop",
  "abi": [
    {
      "anonymous": false,
      "inputs": [
        {
          "indexed": false,
          "internalType": "uint256",
          "name": "id",
          "type": "uint256"
        }
      ],
      "name": "AddShopItem",
      "type": "event"
    },
    {
      "anonymous": false,
      "inputs": [
        {
          "indexed": false,
          "internalType": "uint256",
          "name": "id",
          "type": "uint256"
        }
      ],
      "name": "CreateOrder",
      "type": "event"
    },
    {
      "anonymous": false,
      "inputs": [
        {
          "indexed": false,
          "internalType": "uint256",
          "name": "id",
          "type": "uint256"
        }
      ],
      "name": "DeleteOrder",
      "type": "event"
    },
    {
      "anonymous": false,
      "inputs": [
        {
          "indexed": false,
          "internalType": "uint256",
          "name": "id",
          "type": "uint256"
        }
      ],
      "name": "DeleteShopItem",
      "type": "event"
    },
    {
      "anonymous": false,
      "inputs": [
        {
          "indexed": false,
          "internalType": "uint256",
          "name": "id",
          "type": "uint256"
        }
      ],
      "name": "EditShopItem",
      "type": "event"
    },
    {
      "inputs": [],
      "name": "idCounter",
      "outputs": [
        {
          "internalType": "uint256",
          "name": "",
          "type": "uint256"
        }
      ],
      "stateMutability": "view",
      "type": "function"
    },
    {
      "inputs": [
        {
          "internalType": "address",
          "name": "checkUser",
          "type": "address"
        }
      ],
      "name": "isOwner",
      "outputs": [
        {
          "internalType": "bool",
          "name": "isOwnerIndeed",
          "type": "bool"
        }
      ],
      "stateMutability": "view",
      "type": "function"
    },
    {
      "inputs": [],
      "name": "isOwner",
      "outputs": [
        {
          "internalType": "bool",
          "name": "isOwnerIndeed",
          "type": "bool"
        }
      ],
      "stateMutability": "view",
      "type": "function"
    },
    {
      "inputs": [],
      "name": "orderIdCounter",
      "outputs": [
        {
          "internalType": "uint256",
          "name": "",
          "type": "uint256"
        }
      ],
      "stateMutability": "view",
      "type": "function"
    },
    {
      "inputs": [
        {
          "internalType": "uint256",
          "name": "",
          "type": "uint256"
        }
      ],
      "name": "orderIndexes",
      "outputs": [
        {
          "internalType": "uint256",
          "name": "",
          "type": "uint256"
        }
      ],
      "stateMutability": "view",
      "type": "function"
    },
    {
      "inputs": [
        {
          "internalType": "uint256",
          "name": "",
          "type": "uint256"
        }
      ],
      "name": "orders",
      "outputs": [
        {
          "internalType": "uint256",
          "name": "flag",
          "type": "uint256"
        },
        {
          "internalType": "uint256",
          "name": "itemId",
          "type": "uint256"
        },
        {
          "internalType": "uint256",
          "name": "amount",
          "type": "uint256"
        },
        {
          "internalType": "uint256",
          "name": "finalCost",
          "type": "uint256"
        },
        {
          "internalType": "address",
          "name": "userAddress",
          "type": "address"
        },
        {
          "internalType": "uint256",
          "name": "orderTime",
          "type": "uint256"
        },
        {
          "components": [
            {
              "internalType": "string",
              "name": "name",
              "type": "string"
            },
            {
              "internalType": "string",
              "name": "street",
              "type": "string"
            },
            {
              "internalType": "uint256",
              "name": "number",
              "type": "uint256"
            },
            {
              "internalType": "uint256",
              "name": "postal",
              "type": "uint256"
            },
            {
              "internalType": "string",
              "name": "city",
              "type": "string"
            }
          ],
          "internalType": "struct Shared.UserData",
          "name": "userData",
          "type": "tuple"
        }
      ],
      "stateMutability": "view",
      "type": "function"
    },
    {
      "inputs": [],
      "name": "owner",
      "outputs": [
        {
          "internalType": "address payable",
          "name": "",
          "type": "address"
        }
      ],
      "stateMutability": "view",
      "type": "function"
    },
    {
      "inputs": [
        {
          "internalType": "uint256",
          "name": "",
          "type": "uint256"
        }
      ],
      "name": "shopItemIndexes",
      "outputs": [
        {
          "internalType": "uint256",
          "name": "",
          "type": "uint256"
        }
      ],
      "stateMutability": "view",
      "type": "function"
    },
    {
      "inputs": [
        {
          "internalType": "uint256",
          "name": "",
          "type": "uint256"
        }
      ],
      "name": "shopItems",
      "outputs": [
        {
          "internalType": "uint256",
          "name": "flag",
          "type": "uint256"
        },
        {
          "internalType": "uint256",
          "name": "id",
          "type": "uint256"
        },
        {
          "internalType": "string",
          "name": "title",
          "type": "string"
        },
        {
          "internalType": "string",
          "name": "description",
          "type": "string"
        },
        {
          "internalType": "uint256",
          "name": "cost",
          "type": "uint256"
        },
        {
          "internalType": "uint256",
          "name": "inventory",
          "type": "uint256"
        }
      ],
      "stateMutability": "view",
      "type": "function"
    },
    {
      "inputs": [],
      "name": "getOrderCount",
      "outputs": [
        {
          "internalType": "uint256",
          "name": "count",
          "type": "uint256"
        }
      ],
      "stateMutability": "view",
      "type": "function"
    },
    {
      "inputs": [],
      "name": "getShopItemCount",
      "outputs": [
        {
          "internalType": "uint256",
          "name": "count",
          "type": "uint256"
        }
      ],
      "stateMutability": "view",
      "type": "function"
    },
    {
      "inputs": [
        {
          "internalType": "uint256",
          "name": "id",
          "type": "uint256"
        }
      ],
      "name": "getOrder",
      "outputs": [
        {
          "internalType": "uint256",
          "name": "",
          "type": "uint256"
        },
        {
          "internalType": "uint256",
          "name": "",
          "type": "uint256"
        },
        {
          "internalType": "uint256",
          "name": "",
          "type": "uint256"
        },
        {
          "internalType": "address",
          "name": "",
          "type": "address"
        },
        {
          "internalType": "uint256",
          "name": "",
          "type": "uint256"
        },
        {
          "components": [
            {
              "internalType": "string",
              "name": "name",
              "type": "string"
            },
            {
              "internalType": "string",
              "name": "street",
              "type": "string"
            },
            {
              "internalType": "uint256",
              "name": "number",
              "type": "uint256"
            },
            {
              "internalType": "uint256",
              "name": "postal",
              "type": "uint256"
            },
            {
              "internalType": "string",
              "name": "city",
              "type": "string"
            }
          ],
          "internalType": "struct Shared.UserData",
          "name": "userData",
          "type": "tuple"
        }
      ],
      "stateMutability": "view",
      "type": "function"
    },
    {
      "inputs": [
        {
          "internalType": "uint256",
          "name": "orderId",
          "type": "uint256"
        }
      ],
      "name": "deleteOrder",
      "outputs": [],
      "stateMutability": "nonpayable",
      "type": "function"
    },
    {
      "inputs": [
        {
          "internalType": "string",
          "name": "title",
          "type": "string"
        },
        {
          "internalType": "string",
          "name": "description",
          "type": "string"
        },
        {
          "internalType": "uint256",
          "name": "cost",
          "type": "uint256"
        },
        {
          "internalType": "uint256",
          "name": "inventory",
          "type": "uint256"
        }
      ],
      "name": "addShopItem",
      "outputs": [
        {
          "internalType": "uint256",
          "name": "",
          "type": "uint256"
        }
      ],
      "stateMutability": "nonpayable",
      "type": "function"
    },
    {
      "inputs": [
        {
          "internalType": "uint256",
          "name": "id",
          "type": "uint256"
        }
      ],
      "name": "deleteShopItem",
      "outputs": [],
      "stateMutability": "nonpayable",
      "type": "function"
    },
    {
      "inputs": [
        {
          "internalType": "uint256",
          "name": "id",
          "type": "uint256"
        }
      ],
      "name": "getShopItem",
      "outputs": [
        {
          "internalType": "string",
          "name": "",
          "type": "string"
        },
        {
          "internalType": "string",
          "name": "",
          "type": "string"
        },
        {
          "internalType": "uint256",
          "name": "",
          "type": "uint256"
        },
        {
          "internalType": "uint256",
          "name": "",
          "type": "uint256"
        }
      ],
      "stateMutability": "view",
      "type": "function"
    },
    {
      "inputs": [
        {
          "internalType": "uint256",
          "name": "id",
          "type": "uint256"
        },
        {
          "internalType": "string",
          "name": "title",
          "type": "string"
        },
        {
          "internalType": "string",
          "name": "description",
          "type": "string"
        },
        {
          "internalType": "uint256",
          "name": "cost",
          "type": "uint256"
        },
        {
          "internalType": "uint256",
          "name": "inventory",
          "type": "uint256"
        }
      ],
      "name": "editShopItem",
      "outputs": [],
      "stateMutability": "nonpayable",
      "type": "function"
    }
  ],
  "bytecode": "0x6080604052336000806101000a81548173ffffffffffffffffffffffffffffffffffffffff021916908373ffffffffffffffffffffffffffffffffffffffff16021790555060018055600160025534801561005957600080fd5b5061272f806100696000396000f3fe608060405234801561001057600080fd5b506004361061010b5760003560e01c80638f32d59b116100a2578063ced92a2111610071578063ced92a2114610302578063cf58ad8814610320578063d09ef2411461033c578063eb08ab2814610371578063f08aef0d1461038f5761010b565b80638f32d59b14610260578063a33282e41461027e578063a85c38ef146102ae578063be374423146102e45761010b565b80635ca9e380116100de5780635ca9e380146101bc57806372af7ea2146101f15780638d0a5fbb146102245780638da5cb5b146102425761010b565b806311a00327146101105780631ce9b1ca1461012c5780632f54bf6e1461015c578063558151991461018c575b600080fd5b61012a60048036038101906101259190611c62565b6103ab565b005b61014660048036038101906101419190611c62565b6108a4565b6040516101539190611c9e565b60405180910390f35b61017660048036038101906101719190611d17565b6108c8565b6040516101839190611d5f565b60405180910390f35b6101a660048036038101906101a19190611c62565b610921565b6040516101b39190611c9e565b60405180910390f35b6101d660048036038101906101d19190611c62565b610945565b6040516101e896959493929190611e13565b60405180910390f35b61020b60048036038101906102069190611c62565b610a91565b60405161021b9493929190611e82565b60405180910390f35b61022c610c70565b6040516102399190611c9e565b60405180910390f35b61024a610c7d565b6040516102579190611ef6565b60405180910390f35b610268610ca1565b6040516102759190611d5f565b60405180910390f35b61029860048036038101906102939190612046565b610cb1565b6040516102a59190611c9e565b60405180910390f35b6102c860048036038101906102c39190611c62565b610eb5565b6040516102db97969594939291906121d1565b60405180910390f35b6102ec6110eb565b6040516102f99190611c9e565b60405180910390f35b61030a6110f1565b6040516103179190611c9e565b60405180910390f35b61033a60048036038101906103359190612247565b6110fe565b005b61035660048036038101906103519190611c62565b611464565b604051610368969594939291906122fa565b60405180910390f35b610379611777565b6040516103869190611c9e565b60405180910390f35b6103a960048036038101906103a49190611c62565b61177d565b005b6103b3610ca1565b6103f2576040517f08c379a00000000000000000000000000000000000000000000000000000000081526004016103e9906123d4565b60405180910390fd5b6000600360008381526020019081526020016000206040518060e0016040529081600082015481526020016001820154815260200160028201548152602001600382015481526020016004820160009054906101000a900473ffffffffffffffffffffffffffffffffffffffff1673ffffffffffffffffffffffffffffffffffffffff1673ffffffffffffffffffffffffffffffffffffffff16815260200160058201548152602001600682016040518060a00160405290816000820180546104ba90612423565b80601f01602080910402602001604051908101604052809291908181526020018280546104e690612423565b80156105335780601f1061050857610100808354040283529160200191610533565b820191906000526020600020905b81548152906001019060200180831161051657829003601f168201915b5050505050815260200160018201805461054c90612423565b80601f016020809104026020016040519081016040528092919081815260200182805461057890612423565b80156105c55780601f1061059a576101008083540402835291602001916105c5565b820191906000526020600020905b8154815290600101906020018083116105a857829003601f168201915b5050505050815260200160028201548152602001600382015481526020016004820180546105f290612423565b80601f016020809104026020016040519081016040528092919081815260200182805461061e90612423565b801561066b5780601f106106405761010080835404028352916020019161066b565b820191906000526020600020905b81548152906001019060200180831161064e57829003601f168201915b50505050508152505081525050905060018160000151146106c1576040517f08c379a00000000000000000000000000000000000000000000000000000000081526004016106b8906124a1565b60405180910390fd5b6000816000018181525050600360008381526020019081526020016000206000808201600090556001820160009055600282016000905560038201600090556004820160006101000a81549073ffffffffffffffffffffffffffffffffffffffff0219169055600582016000905560068201600080820160006107449190611b06565b6001820160006107549190611b06565b600282016000905560038201600090556004820160006107749190611b06565b5050505060005b6005805490508110156107c657826005828154811061079d5761079c6124c1565b5b906000526020600020015414156107b3576107c6565b80806107be9061251f565b91505061077b565b5b60016005805490506107d99190612568565b8110156108405760056001826107ef919061259c565b81548110610800576107ff6124c1565b5b90600052602060002001546005828154811061081f5761081e6124c1565b5b906000526020600020018190555080806108389061251f565b9150506107c7565b6005805480610852576108516125f2565b5b600190038181906000526020600020016000905590557fbd000546857b596b03c884060c13e7d8c7a7ce52366d2f116f76688e6f000f66836040516108979190611c9e565b60405180910390a1505050565b600681815481106108b457600080fd5b906000526020600020016000915090505481565b60008060009054906101000a900473ffffffffffffffffffffffffffffffffffffffff1673ffffffffffffffffffffffffffffffffffffffff168273ffffffffffffffffffffffffffffffffffffffff16149050919050565b6005818154811061093157600080fd5b906000526020600020016000915090505481565b600460205280600052604060002060009150905080600001549080600101549080600201805461097490612423565b80601f01602080910402602001604051908101604052809291908181526020018280546109a090612423565b80156109ed5780601f106109c2576101008083540402835291602001916109ed565b820191906000526020600020905b8154815290600101906020018083116109d057829003601f168201915b505050505090806003018054610a0290612423565b80601f0160208091040260200160405190810160405280929190818152602001828054610a2e90612423565b8015610a7b5780601f10610a5057610100808354040283529160200191610a7b565b820191906000526020600020905b815481529060010190602001808311610a5e57829003601f168201915b5050505050908060040154908060050154905086565b6060806000806000600460008781526020019081526020016000206040518060c00160405290816000820154815260200160018201548152602001600282018054610adb90612423565b80601f0160208091040260200160405190810160405280929190818152602001828054610b0790612423565b8015610b545780601f10610b2957610100808354040283529160200191610b54565b820191906000526020600020905b815481529060010190602001808311610b3757829003601f168201915b50505050508152602001600382018054610b6d90612423565b80601f0160208091040260200160405190810160405280929190818152602001828054610b9990612423565b8015610be65780601f10610bbb57610100808354040283529160200191610be6565b820191906000526020600020905b815481529060010190602001808311610bc957829003601f168201915b505050505081526020016004820154815260200160058201548152505090506001816000015114610c4c576040517f08c379a0000000000000000000000000000000000000000000000000000000008152600401610c439061266d565b60405180910390fd5b8060400151816060015182608001518360a001519450945094509450509193509193565b6000600580549050905090565b60008054906101000a900473ffffffffffffffffffffffffffffffffffffffff1681565b6000610cac336108c8565b905090565b6000610cbb610ca1565b610cfa576040517f08c379a0000000000000000000000000000000000000000000000000000000008152600401610cf1906123d4565b60405180910390fd5b826000811015610d3f576040517f08c379a0000000000000000000000000000000000000000000000000000000008152600401610d36906126d9565b60405180910390fd5b826000811015610d84576040517f08c379a0000000000000000000000000000000000000000000000000000000008152600401610d7b906126d9565b60405180910390fd5b6040518060c001604052806001815260200160015481526020018881526020018781526020018681526020018581525060046000600154815260200190815260200160002060008201518160000155602082015181600101556040820151816002019080519060200190610df9929190611b46565b506060820151816003019080519060200190610e16929190611b46565b506080820151816004015560a08201518160050155905050600660015490806001815401808255809150506001900390600052602060002001600090919091909150557f1bcba37a1a4b522b287291c39323a9beb282280f80a06dfcc06660a46fd71dba600154604051610e8a9190611c9e565b60405180910390a160016000815480929190610ea59061251f565b9190505592505050949350505050565b60036020528060005260406000206000915090508060000154908060010154908060020154908060030154908060040160009054906101000a900473ffffffffffffffffffffffffffffffffffffffff1690806005015490806006016040518060a0016040529081600082018054610f2c90612423565b80601f0160208091040260200160405190810160405280929190818152602001828054610f5890612423565b8015610fa55780601f10610f7a57610100808354040283529160200191610fa5565b820191906000526020600020905b815481529060010190602001808311610f8857829003601f168201915b50505050508152602001600182018054610fbe90612423565b80601f0160208091040260200160405190810160405280929190818152602001828054610fea90612423565b80156110375780601f1061100c57610100808354040283529160200191611037565b820191906000526020600020905b81548152906001019060200180831161101a57829003601f168201915b50505050508152602001600282015481526020016003820154815260200160048201805461106490612423565b80601f016020809104026020016040519081016040528092919081815260200182805461109090612423565b80156110dd5780601f106110b2576101008083540402835291602001916110dd565b820191906000526020600020905b8154815290600101906020018083116110c057829003601f168201915b505050505081525050905087565b60025481565b6000600680549050905090565b611106610ca1565b611145576040517f08c379a000000000000000000000000000000000000000000000000000000000815260040161113c906123d4565b60405180910390fd5b81600081101561118a576040517f08c379a0000000000000000000000000000000000000000000000000000000008152600401611181906126d9565b60405180910390fd5b8160008110156111cf576040517f08c379a00000000000000000000000000000000000000000000000000000000081526004016111c6906126d9565b60405180910390fd5b6000600460008981526020019081526020016000206040518060c0016040529081600082015481526020016001820154815260200160028201805461121390612423565b80601f016020809104026020016040519081016040528092919081815260200182805461123f90612423565b801561128c5780601f106112615761010080835404028352916020019161128c565b820191906000526020600020905b81548152906001019060200180831161126f57829003601f168201915b505050505081526020016003820180546112a590612423565b80601f01602080910402602001604051908101604052809291908181526020018280546112d190612423565b801561131e5780601f106112f35761010080835404028352916020019161131e565b820191906000526020600020905b81548152906001019060200180831161130157829003601f168201915b505050505081526020016004820154815260200160058201548152505090506001816000015114611384576040517f08c379a000000000000000000000000000000000000000000000000000000000815260040161137b9061266d565b60405180910390fd5b86816040018190525085816060018190525084816080018181525050838160a001818152505080600460008a8152602001908152602001600020600082015181600001556020820151816001015560408201518160020190805190602001906113ee929190611b46565b50606082015181600301908051906020019061140b929190611b46565b506080820151816004015560a082015181600501559050507f97361b1697ad3a1a82fcf3afa0b80fecf9407859d7ef80aede71a02884fc384c886040516114529190611c9e565b60405180910390a15050505050505050565b6000806000806000611474611bcc565b6000600360008981526020019081526020016000206040518060e0016040529081600082015481526020016001820154815260200160028201548152602001600382015481526020016004820160009054906101000a900473ffffffffffffffffffffffffffffffffffffffff1673ffffffffffffffffffffffffffffffffffffffff1673ffffffffffffffffffffffffffffffffffffffff16815260200160058201548152602001600682016040518060a001604052908160008201805461153c90612423565b80601f016020809104026020016040519081016040528092919081815260200182805461156890612423565b80156115b55780601f1061158a576101008083540402835291602001916115b5565b820191906000526020600020905b81548152906001019060200180831161159857829003601f168201915b505050505081526020016001820180546115ce90612423565b80601f01602080910402602001604051908101604052809291908181526020018280546115fa90612423565b80156116475780601f1061161c57610100808354040283529160200191611647565b820191906000526020600020905b81548152906001019060200180831161162a57829003601f168201915b50505050508152602001600282015481526020016003820154815260200160048201805461167490612423565b80601f01602080910402602001604051908101604052809291908181526020018280546116a090612423565b80156116ed5780601f106116c2576101008083540402835291602001916116ed565b820191906000526020600020905b8154815290600101906020018083116116d057829003601f168201915b5050505050815250508152505090506001816000015114611743576040517f08c379a000000000000000000000000000000000000000000000000000000000815260040161173a906124a1565b60405180910390fd5b80602001518160400151826060015183608001518460a001518560c001519650965096509650965096505091939550919395565b60015481565b611785610ca1565b6117c4576040517f08c379a00000000000000000000000000000000000000000000000000000000081526004016117bb906123d4565b60405180910390fd5b6000600460008381526020019081526020016000206040518060c0016040529081600082015481526020016001820154815260200160028201805461180890612423565b80601f016020809104026020016040519081016040528092919081815260200182805461183490612423565b80156118815780601f1061185657610100808354040283529160200191611881565b820191906000526020600020905b81548152906001019060200180831161186457829003601f168201915b5050505050815260200160038201805461189a90612423565b80601f01602080910402602001604051908101604052809291908181526020018280546118c690612423565b80156119135780601f106118e857610100808354040283529160200191611913565b820191906000526020600020905b8154815290600101906020018083116118f657829003601f168201915b505050505081526020016004820154815260200160058201548152505090506001816000015114611979576040517f08c379a00000000000000000000000000000000000000000000000000000000081526004016119709061266d565b60405180910390fd5b60008160000181815250506004600083815260200190815260200160002060008082016000905560018201600090556002820160006119b89190611b06565b6003820160006119c89190611b06565b60048201600090556005820160009055505060005b600680549050811015611a285782600682815481106119ff576119fe6124c1565b5b90600052602060002001541415611a1557611a28565b8080611a209061251f565b9150506119dd565b5b6001600680549050611a3b9190612568565b811015611aa2576006600182611a51919061259c565b81548110611a6257611a616124c1565b5b906000526020600020015460068281548110611a8157611a806124c1565b5b90600052602060002001819055508080611a9a9061251f565b915050611a29565b6006805480611ab457611ab36125f2565b5b600190038181906000526020600020016000905590557f5e594568675a7ff56299991250b9ee2a369d3f48d6ce689ebfef825886aa048083604051611af99190611c9e565b60405180910390a1505050565b508054611b1290612423565b6000825580601f10611b245750611b43565b601f016020900490600052602060002090810190611b429190611bfb565b5b50565b828054611b5290612423565b90600052602060002090601f016020900481019282611b745760008555611bbb565b82601f10611b8d57805160ff1916838001178555611bbb565b82800160010185558215611bbb579182015b82811115611bba578251825591602001919060010190611b9f565b5b509050611bc89190611bfb565b5090565b6040518060a0016040528060608152602001606081526020016000815260200160008152602001606081525090565b5b80821115611c14576000816000905550600101611bfc565b5090565b6000604051905090565b600080fd5b600080fd5b6000819050919050565b611c3f81611c2c565b8114611c4a57600080fd5b50565b600081359050611c5c81611c36565b92915050565b600060208284031215611c7857611c77611c22565b5b6000611c8684828501611c4d565b91505092915050565b611c9881611c2c565b82525050565b6000602082019050611cb36000830184611c8f565b92915050565b600073ffffffffffffffffffffffffffffffffffffffff82169050919050565b6000611ce482611cb9565b9050919050565b611cf481611cd9565b8114611cff57600080fd5b50565b600081359050611d1181611ceb565b92915050565b600060208284031215611d2d57611d2c611c22565b5b6000611d3b84828501611d02565b91505092915050565b60008115159050919050565b611d5981611d44565b82525050565b6000602082019050611d746000830184611d50565b92915050565b600081519050919050565b600082825260208201905092915050565b60005b83811015611db4578082015181840152602081019050611d99565b83811115611dc3576000848401525b50505050565b6000601f19601f8301169050919050565b6000611de582611d7a565b611def8185611d85565b9350611dff818560208601611d96565b611e0881611dc9565b840191505092915050565b600060c082019050611e286000830189611c8f565b611e356020830188611c8f565b8181036040830152611e478187611dda565b90508181036060830152611e5b8186611dda565b9050611e6a6080830185611c8f565b611e7760a0830184611c8f565b979650505050505050565b60006080820190508181036000830152611e9c8187611dda565b90508181036020830152611eb08186611dda565b9050611ebf6040830185611c8f565b611ecc6060830184611c8f565b95945050505050565b6000611ee082611cb9565b9050919050565b611ef081611ed5565b82525050565b6000602082019050611f0b6000830184611ee7565b92915050565b600080fd5b600080fd5b7f4e487b7100000000000000000000000000000000000000000000000000000000600052604160045260246000fd5b611f5382611dc9565b810181811067ffffffffffffffff82111715611f7257611f71611f1b565b5b80604052505050565b6000611f85611c18565b9050611f918282611f4a565b919050565b600067ffffffffffffffff821115611fb157611fb0611f1b565b5b611fba82611dc9565b9050602081019050919050565b82818337600083830152505050565b6000611fe9611fe484611f96565b611f7b565b90508281526020810184848401111561200557612004611f16565b5b612010848285611fc7565b509392505050565b600082601f83011261202d5761202c611f11565b5b813561203d848260208601611fd6565b91505092915050565b600080600080608085870312156120605761205f611c22565b5b600085013567ffffffffffffffff81111561207e5761207d611c27565b5b61208a87828801612018565b945050602085013567ffffffffffffffff8111156120ab576120aa611c27565b5b6120b787828801612018565b93505060406120c887828801611c4d565b92505060606120d987828801611c4d565b91505092959194509250565b6120ee81611cd9565b82525050565b600082825260208201905092915050565b600061211082611d7a565b61211a81856120f4565b935061212a818560208601611d96565b61213381611dc9565b840191505092915050565b61214781611c2c565b82525050565b600060a083016000830151848203600086015261216a8282612105565b915050602083015184820360208601526121848282612105565b9150506040830151612199604086018261213e565b5060608301516121ac606086018261213e565b50608083015184820360808601526121c48282612105565b9150508091505092915050565b600060e0820190506121e6600083018a611c8f565b6121f36020830189611c8f565b6122006040830188611c8f565b61220d6060830187611c8f565b61221a60808301866120e5565b61222760a0830185611c8f565b81810360c0830152612239818461214d565b905098975050505050505050565b600080600080600060a0868803121561226357612262611c22565b5b600061227188828901611c4d565b955050602086013567ffffffffffffffff81111561229257612291611c27565b5b61229e88828901612018565b945050604086013567ffffffffffffffff8111156122bf576122be611c27565b5b6122cb88828901612018565b93505060606122dc88828901611c4d565b92505060806122ed88828901611c4d565b9150509295509295909350565b600060c08201905061230f6000830189611c8f565b61231c6020830188611c8f565b6123296040830187611c8f565b61233660608301866120e5565b6123436080830185611c8f565b81810360a0830152612355818461214d565b9050979650505050505050565b7f546869732066756e6374696f6e206973207265737472696374656420746f207460008201527f686520636f6e74726163742773206f776e657200000000000000000000000000602082015250565b60006123be603383611d85565b91506123c982612362565b604082019050919050565b600060208201905081810360008301526123ed816123b1565b9050919050565b7f4e487b7100000000000000000000000000000000000000000000000000000000600052602260045260246000fd5b6000600282049050600182168061243b57607f821691505b6020821081141561244f5761244e6123f4565b5b50919050565b7f5468657265206973206e6f2073756368206f7264657200000000000000000000600082015250565b600061248b601683611d85565b915061249682612455565b602082019050919050565b600060208201905081810360008301526124ba8161247e565b9050919050565b7f4e487b7100000000000000000000000000000000000000000000000000000000600052603260045260246000fd5b7f4e487b7100000000000000000000000000000000000000000000000000000000600052601160045260246000fd5b600061252a82611c2c565b91507fffffffffffffffffffffffffffffffffffffffffffffffffffffffffffffffff82141561255d5761255c6124f0565b5b600182019050919050565b600061257382611c2c565b915061257e83611c2c565b925082821015612591576125906124f0565b5b828203905092915050565b60006125a782611c2c565b91506125b283611c2c565b9250827fffffffffffffffffffffffffffffffffffffffffffffffffffffffffffffffff038211156125e7576125e66124f0565b5b828201905092915050565b7f4e487b7100000000000000000000000000000000000000000000000000000000600052603160045260246000fd5b7f5468657265206973206e6f20737563682073686f70206974656d000000000000600082015250565b6000612657601a83611d85565b915061266282612621565b602082019050919050565b600060208201905081810360008301526126868161264a565b9050919050565b7f4e756d6265722063616e74206265206e65676174697665000000000000000000600082015250565b60006126c3601783611d85565b91506126ce8261268d565b602082019050919050565b600060208201905081810360008301526126f2816126b6565b905091905056fea264697066735822122009068836be4cfc0d317cdede27b5c1c286ebcbe9c20128e1c9269f898664da6f64736f6c634300080a0033",
  "immutableReferences": {},
  "source": "pragma solidity >=0.7.0 <0.9.0;\r\n\r\nimport \"./Authentication.sol\";\r\n\r\ncontract ManageShop is Authentication {\r\n\r\n    uint public idCounter = 1;\r\n    uint public orderIdCounter = 1;\r\n    mapping(uint => Shared.Order) public orders;\r\n    mapping(uint => Shared.ShopItem) public shopItems;\r\n    uint[] public orderIndexes;\r\n    uint[] public shopItemIndexes;\r\n\r\n    event AddShopItem(uint id);\r\n    event DeleteShopItem(uint id);\r\n    event EditShopItem(uint id);\r\n    event CreateOrder(uint id);\r\n    event DeleteOrder(uint id);\r\n\r\n    modifier cantBeNegative(uint number) {\r\n        require(number >= 0, \"Number cant be negative\");\r\n        _;\r\n    }\r\n\r\n    modifier greaterThanZero(uint number) {\r\n        require(number > 0, \"Number must be greater than 0\");\r\n        _;\r\n    }\r\n\r\n    function getOrderCount() public view returns(uint count) {\r\n        return orderIndexes.length;\r\n    }\r\n\r\n    function getShopItemCount() public view returns(uint count) {\r\n        return shopItemIndexes.length;\r\n    }\r\n\r\n    function createOrder(\r\n        uint itemId,\r\n        uint amount,\r\n        uint finalCost,\r\n        address userAddress,\r\n        Shared.UserData memory userData\r\n    ) internal returns(uint) {\r\n        orders[orderIdCounter] = Shared.Order(1, itemId, amount, finalCost, userAddress, block.timestamp, userData);\r\n        orderIndexes.push(orderIdCounter);\r\n        emit CreateOrder(orderIdCounter);\r\n        return orderIdCounter++;\r\n    }\r\n\r\n    function getOrder(uint id) public view returns(uint, uint, uint, address, uint, Shared.UserData memory userData) {\r\n        Shared.Order memory order = orders[id];\r\n        require(order.flag == 1, \"There is no such order\");\r\n        return (order.itemId, order.amount, order.finalCost, order.userAddress, order.orderTime, order.userData);\r\n    }\r\n\r\n    function deleteOrder(uint orderId) public onlyOwner {\r\n        Shared.Order memory order = orders[orderId];\r\n        require(order.flag == 1, \"There is no such order\");\r\n        order.flag = 0;\r\n        delete orders[orderId];\r\n\r\n        uint index = 0;\r\n        for(index = 0; index < orderIndexes.length; index++) {\r\n            if(orderIndexes[index] == orderId) break;\r\n        }\r\n        while(index < orderIndexes.length - 1) {\r\n            orderIndexes[index] = orderIndexes[index+1];\r\n            index++;\r\n        }\r\n        orderIndexes.pop();\r\n        emit DeleteOrder(orderId);\r\n    }\r\n\r\n    function addShopItem(\r\n        string memory title,\r\n        string memory description,\r\n        uint cost,\r\n        uint inventory\r\n    ) public onlyOwner cantBeNegative(cost) cantBeNegative(inventory) returns(uint) {\r\n        shopItems[idCounter] = Shared.ShopItem(1, idCounter, title, description, cost, inventory);\r\n        shopItemIndexes.push(idCounter);\r\n        emit AddShopItem(idCounter);\r\n        return idCounter++;\r\n    }\r\n\r\n    function deleteShopItem(uint id) public onlyOwner {\r\n        Shared.ShopItem memory item = shopItems[id];\r\n        require(item.flag == 1, \"There is no such shop item\");\r\n        item.flag = 0;\r\n        delete shopItems[id];\r\n\r\n        uint index = 0;\r\n        for(index = 0; index < shopItemIndexes.length; index++) {\r\n            if(shopItemIndexes[index] == id) break;\r\n        }\r\n        while(index < shopItemIndexes.length - 1) {\r\n            shopItemIndexes[index] = shopItemIndexes[index+1];\r\n            index++;\r\n        }\r\n        shopItemIndexes.pop();\r\n        emit DeleteShopItem(id);\r\n    }\r\n\r\n    function getShopItem(uint id) public view returns(string memory, string memory, uint, uint) {\r\n        Shared.ShopItem memory item = shopItems[id];\r\n        require(item.flag == 1, \"There is no such shop item\");\r\n        return (item.title, item.description, item.cost, item.inventory);\r\n    }\r\n\r\n    function editShopItem(\r\n        uint id,\r\n        string memory title,\r\n        string memory description,\r\n        uint cost,\r\n        uint inventory\r\n    ) public onlyOwner cantBeNegative(cost) cantBeNegative(inventory) {\r\n        Shared.ShopItem memory item = shopItems[id];\r\n        require(item.flag == 1, \"There is no such shop item\");\r\n        item.title = title;\r\n        item.description = description;\r\n        item.cost = cost;\r\n        item.inventory = inventory;\r\n        shopItems[id] = item;\r\n        emit EditShopItem(id);\r\n    }\r\n}\r\n\r\n\r\n/* Commands\r\n\r\nlet auth = await Authentication.deployed()\r\nauth.register(\"Alexander Korfken\", \"Bonner Allee\", 12, 53111, \"Bonn\")\r\nauth.isUser()\r\nlet shop = await ManageShop.deployed()\r\nshop.addShopItem(\"Hausschuhe\", \"Beschreibung fr Hausschuhe\", 5, 10)\r\nlet hausschuhe = await shop.shopItems(1)\r\nhausschuhe.description\r\n*/",
  "sourcePath": "D:\\Users\\Alex\\Desktop\\simple-shop-dapp\\truffle\\contracts\\ManageShop.sol",
  "compiler": {
    "name": "solc",
    "version": "0.8.10+commit.fc410830.Emscripten.clang"
  },
  "schemaVersion": "3.4.4",
  "updatedAt": "2022-01-09T20:56:02.244Z",
  "devdoc": {
    "kind": "dev",
    "methods": {},
    "version": 1
  },
  "userdoc": {
    "kind": "user",
    "methods": {},
    "version": 1
  }
}