{
  "contractName": "ManageShop",
  "abi": [
    {
      "anonymous": false,
      "inputs": [
        {
          "indexed": false,
          "internalType": "uint256",
          "name": "id",
          "type": "uint256"
        }
      ],
      "name": "AddShopItem",
      "type": "event"
    },
    {
      "anonymous": false,
      "inputs": [
        {
          "indexed": false,
          "internalType": "uint256",
          "name": "id",
          "type": "uint256"
        }
      ],
      "name": "CreateOrder",
      "type": "event"
    },
    {
      "anonymous": false,
      "inputs": [
        {
          "indexed": false,
          "internalType": "uint256",
          "name": "id",
          "type": "uint256"
        }
      ],
      "name": "DeleteOrder",
      "type": "event"
    },
    {
      "anonymous": false,
      "inputs": [
        {
          "indexed": false,
          "internalType": "uint256",
          "name": "id",
          "type": "uint256"
        }
      ],
      "name": "DeleteShopItem",
      "type": "event"
    },
    {
      "anonymous": false,
      "inputs": [
        {
          "indexed": false,
          "internalType": "uint256",
          "name": "id",
          "type": "uint256"
        }
      ],
      "name": "EditShopItem",
      "type": "event"
    },
    {
      "inputs": [],
      "name": "idCounter",
      "outputs": [
        {
          "internalType": "uint256",
          "name": "",
          "type": "uint256"
        }
      ],
      "stateMutability": "view",
      "type": "function"
    },
    {
      "inputs": [
        {
          "internalType": "address",
          "name": "checkUser",
          "type": "address"
        }
      ],
      "name": "isOwner",
      "outputs": [
        {
          "internalType": "bool",
          "name": "isOwnerIndeed",
          "type": "bool"
        }
      ],
      "stateMutability": "view",
      "type": "function"
    },
    {
      "inputs": [],
      "name": "isOwner",
      "outputs": [
        {
          "internalType": "bool",
          "name": "isOwnerIndeed",
          "type": "bool"
        }
      ],
      "stateMutability": "view",
      "type": "function"
    },
    {
      "inputs": [],
      "name": "orderIdCounter",
      "outputs": [
        {
          "internalType": "uint256",
          "name": "",
          "type": "uint256"
        }
      ],
      "stateMutability": "view",
      "type": "function"
    },
    {
      "inputs": [
        {
          "internalType": "uint256",
          "name": "",
          "type": "uint256"
        }
      ],
      "name": "orderIndexes",
      "outputs": [
        {
          "internalType": "uint256",
          "name": "",
          "type": "uint256"
        }
      ],
      "stateMutability": "view",
      "type": "function"
    },
    {
      "inputs": [
        {
          "internalType": "uint256",
          "name": "",
          "type": "uint256"
        }
      ],
      "name": "orders",
      "outputs": [
        {
          "internalType": "uint256",
          "name": "flag",
          "type": "uint256"
        },
        {
          "internalType": "uint256",
          "name": "itemId",
          "type": "uint256"
        },
        {
          "internalType": "uint256",
          "name": "amount",
          "type": "uint256"
        },
        {
          "internalType": "uint256",
          "name": "finalCost",
          "type": "uint256"
        },
        {
          "internalType": "address",
          "name": "userAddress",
          "type": "address"
        },
        {
          "internalType": "uint256",
          "name": "orderTime",
          "type": "uint256"
        },
        {
          "components": [
            {
              "internalType": "string",
              "name": "name",
              "type": "string"
            },
            {
              "internalType": "string",
              "name": "street",
              "type": "string"
            },
            {
              "internalType": "uint256",
              "name": "number",
              "type": "uint256"
            },
            {
              "internalType": "uint256",
              "name": "postal",
              "type": "uint256"
            },
            {
              "internalType": "string",
              "name": "city",
              "type": "string"
            }
          ],
          "internalType": "struct Shared.UserData",
          "name": "userData",
          "type": "tuple"
        }
      ],
      "stateMutability": "view",
      "type": "function"
    },
    {
      "inputs": [],
      "name": "owner",
      "outputs": [
        {
          "internalType": "address payable",
          "name": "",
          "type": "address"
        }
      ],
      "stateMutability": "view",
      "type": "function"
    },
    {
      "inputs": [
        {
          "internalType": "uint256",
          "name": "",
          "type": "uint256"
        }
      ],
      "name": "shopItemIndexes",
      "outputs": [
        {
          "internalType": "uint256",
          "name": "",
          "type": "uint256"
        }
      ],
      "stateMutability": "view",
      "type": "function"
    },
    {
      "inputs": [
        {
          "internalType": "uint256",
          "name": "",
          "type": "uint256"
        }
      ],
      "name": "shopItems",
      "outputs": [
        {
          "internalType": "uint256",
          "name": "flag",
          "type": "uint256"
        },
        {
          "internalType": "uint256",
          "name": "id",
          "type": "uint256"
        },
        {
          "internalType": "string",
          "name": "title",
          "type": "string"
        },
        {
          "internalType": "string",
          "name": "description",
          "type": "string"
        },
        {
          "internalType": "uint256",
          "name": "cost",
          "type": "uint256"
        },
        {
          "internalType": "uint256",
          "name": "inventory",
          "type": "uint256"
        }
      ],
      "stateMutability": "view",
      "type": "function"
    },
    {
      "inputs": [],
      "name": "getOrderCount",
      "outputs": [
        {
          "internalType": "uint256",
          "name": "count",
          "type": "uint256"
        }
      ],
      "stateMutability": "view",
      "type": "function"
    },
    {
      "inputs": [],
      "name": "getShopItemCount",
      "outputs": [
        {
          "internalType": "uint256",
          "name": "count",
          "type": "uint256"
        }
      ],
      "stateMutability": "view",
      "type": "function"
    },
    {
      "inputs": [
        {
          "internalType": "uint256",
          "name": "itemId",
          "type": "uint256"
        },
        {
          "internalType": "uint256",
          "name": "amount",
          "type": "uint256"
        },
        {
          "internalType": "uint256",
          "name": "finalCost",
          "type": "uint256"
        },
        {
          "internalType": "address",
          "name": "userAddress",
          "type": "address"
        },
        {
          "components": [
            {
              "internalType": "string",
              "name": "name",
              "type": "string"
            },
            {
              "internalType": "string",
              "name": "street",
              "type": "string"
            },
            {
              "internalType": "uint256",
              "name": "number",
              "type": "uint256"
            },
            {
              "internalType": "uint256",
              "name": "postal",
              "type": "uint256"
            },
            {
              "internalType": "string",
              "name": "city",
              "type": "string"
            }
          ],
          "internalType": "struct Shared.UserData",
          "name": "userData",
          "type": "tuple"
        }
      ],
      "name": "createOrder",
      "outputs": [
        {
          "internalType": "uint256",
          "name": "",
          "type": "uint256"
        }
      ],
      "stateMutability": "nonpayable",
      "type": "function"
    },
    {
      "inputs": [
        {
          "internalType": "uint256",
          "name": "id",
          "type": "uint256"
        }
      ],
      "name": "getOrder",
      "outputs": [
        {
          "internalType": "uint256",
          "name": "",
          "type": "uint256"
        },
        {
          "internalType": "uint256",
          "name": "",
          "type": "uint256"
        },
        {
          "internalType": "uint256",
          "name": "",
          "type": "uint256"
        },
        {
          "internalType": "address",
          "name": "",
          "type": "address"
        },
        {
          "internalType": "uint256",
          "name": "",
          "type": "uint256"
        },
        {
          "components": [
            {
              "internalType": "string",
              "name": "name",
              "type": "string"
            },
            {
              "internalType": "string",
              "name": "street",
              "type": "string"
            },
            {
              "internalType": "uint256",
              "name": "number",
              "type": "uint256"
            },
            {
              "internalType": "uint256",
              "name": "postal",
              "type": "uint256"
            },
            {
              "internalType": "string",
              "name": "city",
              "type": "string"
            }
          ],
          "internalType": "struct Shared.UserData",
          "name": "userData",
          "type": "tuple"
        }
      ],
      "stateMutability": "view",
      "type": "function"
    },
    {
      "inputs": [
        {
          "internalType": "uint256",
          "name": "orderId",
          "type": "uint256"
        }
      ],
      "name": "deleteOrder",
      "outputs": [],
      "stateMutability": "nonpayable",
      "type": "function"
    },
    {
      "inputs": [
        {
          "internalType": "string",
          "name": "title",
          "type": "string"
        },
        {
          "internalType": "string",
          "name": "description",
          "type": "string"
        },
        {
          "internalType": "uint256",
          "name": "cost",
          "type": "uint256"
        },
        {
          "internalType": "uint256",
          "name": "inventory",
          "type": "uint256"
        }
      ],
      "name": "addShopItem",
      "outputs": [
        {
          "internalType": "uint256",
          "name": "",
          "type": "uint256"
        }
      ],
      "stateMutability": "nonpayable",
      "type": "function"
    },
    {
      "inputs": [
        {
          "internalType": "uint256",
          "name": "id",
          "type": "uint256"
        }
      ],
      "name": "deleteShopItem",
      "outputs": [],
      "stateMutability": "nonpayable",
      "type": "function"
    },
    {
      "inputs": [
        {
          "internalType": "uint256",
          "name": "id",
          "type": "uint256"
        }
      ],
      "name": "getShopItem",
      "outputs": [
        {
          "internalType": "string",
          "name": "",
          "type": "string"
        },
        {
          "internalType": "string",
          "name": "",
          "type": "string"
        },
        {
          "internalType": "uint256",
          "name": "",
          "type": "uint256"
        },
        {
          "internalType": "uint256",
          "name": "",
          "type": "uint256"
        }
      ],
      "stateMutability": "view",
      "type": "function"
    },
    {
      "inputs": [
        {
          "internalType": "uint256",
          "name": "id",
          "type": "uint256"
        },
        {
          "internalType": "string",
          "name": "title",
          "type": "string"
        },
        {
          "internalType": "string",
          "name": "description",
          "type": "string"
        },
        {
          "internalType": "uint256",
          "name": "cost",
          "type": "uint256"
        },
        {
          "internalType": "uint256",
          "name": "inventory",
          "type": "uint256"
        }
      ],
      "name": "editShopItem",
      "outputs": [],
      "stateMutability": "nonpayable",
      "type": "function"
    }
  ],
  "bytecode": "0x6080604052336000806101000a81548173ffffffffffffffffffffffffffffffffffffffff021916908373ffffffffffffffffffffffffffffffffffffffff16021790555060018055600160025534801561005957600080fd5b50612b0b806100696000396000f3fe608060405234801561001057600080fd5b50600436106101165760003560e01c80638f32d59b116100a2578063ced92a2111610071578063ced92a211461033d578063cf58ad881461035b578063d09ef24114610377578063eb08ab28146103ac578063f08aef0d146103ca57610116565b80638f32d59b1461029b578063a33282e4146102b9578063a85c38ef146102e9578063be3744231461031f57610116565b806355815199116100e957806355815199146101c75780635ca9e380146101f757806372af7ea21461022c5780638d0a5fbb1461025f5780638da5cb5b1461027d57610116565b806311a003271461011b5780631ce9b1ca1461013757806324410e85146101675780632f54bf6e14610197575b600080fd5b61013560048036038101906101309190611ebd565b6103e6565b005b610151600480360381019061014c9190611ebd565b6108df565b60405161015e9190611ef9565b60405180910390f35b610181600480360381019061017c91906121a2565b610903565b60405161018e9190611ef9565b60405180910390f35b6101b160048036038101906101ac9190612239565b610b23565b6040516101be9190612281565b60405180910390f35b6101e160048036038101906101dc9190611ebd565b610b7c565b6040516101ee9190611ef9565b60405180910390f35b610211600480360381019061020c9190611ebd565b610ba0565b60405161022396959493929190612324565b60405180910390f35b61024660048036038101906102419190611ebd565b610cec565b6040516102569493929190612393565b60405180910390f35b610267610ecb565b6040516102749190611ef9565b60405180910390f35b610285610ed8565b6040516102929190612407565b60405180910390f35b6102a3610efc565b6040516102b09190612281565b60405180910390f35b6102d360048036038101906102ce9190612422565b610f0c565b6040516102e09190611ef9565b60405180910390f35b61030360048036038101906102fe9190611ebd565b611110565b60405161031697969594939291906125ad565b60405180910390f35b610327611346565b6040516103349190611ef9565b60405180910390f35b61034561134c565b6040516103529190611ef9565b60405180910390f35b61037560048036038101906103709190612623565b611359565b005b610391600480360381019061038c9190611ebd565b6116bf565b6040516103a3969594939291906126d6565b60405180910390f35b6103b46119d2565b6040516103c19190611ef9565b60405180910390f35b6103e460048036038101906103df9190611ebd565b6119d8565b005b6103ee610efc565b61042d576040517f08c379a0000000000000000000000000000000000000000000000000000000008152600401610424906127b0565b60405180910390fd5b6000600360008381526020019081526020016000206040518060e0016040529081600082015481526020016001820154815260200160028201548152602001600382015481526020016004820160009054906101000a900473ffffffffffffffffffffffffffffffffffffffff1673ffffffffffffffffffffffffffffffffffffffff1673ffffffffffffffffffffffffffffffffffffffff16815260200160058201548152602001600682016040518060a00160405290816000820180546104f5906127ff565b80601f0160208091040260200160405190810160405280929190818152602001828054610521906127ff565b801561056e5780601f106105435761010080835404028352916020019161056e565b820191906000526020600020905b81548152906001019060200180831161055157829003601f168201915b50505050508152602001600182018054610587906127ff565b80601f01602080910402602001604051908101604052809291908181526020018280546105b3906127ff565b80156106005780601f106105d557610100808354040283529160200191610600565b820191906000526020600020905b8154815290600101906020018083116105e357829003601f168201915b50505050508152602001600282015481526020016003820154815260200160048201805461062d906127ff565b80601f0160208091040260200160405190810160405280929190818152602001828054610659906127ff565b80156106a65780601f1061067b576101008083540402835291602001916106a6565b820191906000526020600020905b81548152906001019060200180831161068957829003601f168201915b50505050508152505081525050905060018160000151146106fc576040517f08c379a00000000000000000000000000000000000000000000000000000000081526004016106f39061287d565b60405180910390fd5b6000816000018181525050600360008381526020019081526020016000206000808201600090556001820160009055600282016000905560038201600090556004820160006101000a81549073ffffffffffffffffffffffffffffffffffffffff02191690556005820160009055600682016000808201600061077f9190611d61565b60018201600061078f9190611d61565b600282016000905560038201600090556004820160006107af9190611d61565b5050505060005b6005805490508110156108015782600582815481106107d8576107d761289d565b5b906000526020600020015414156107ee57610801565b80806107f9906128fb565b9150506107b6565b5b60016005805490506108149190612944565b81101561087b57600560018261082a9190612978565b8154811061083b5761083a61289d565b5b90600052602060002001546005828154811061085a5761085961289d565b5b90600052602060002001819055508080610873906128fb565b915050610802565b600580548061088d5761088c6129ce565b5b600190038181906000526020600020016000905590557fbd000546857b596b03c884060c13e7d8c7a7ce52366d2f116f76688e6f000f66836040516108d29190611ef9565b60405180910390a1505050565b600681815481106108ef57600080fd5b906000526020600020016000915090505481565b600061090d610efc565b61094c576040517f08c379a0000000000000000000000000000000000000000000000000000000008152600401610943906127b0565b60405180910390fd5b6040518060e00160405280600181526020018781526020018681526020018581526020018473ffffffffffffffffffffffffffffffffffffffff168152602001428152602001838152506003600060025481526020019081526020016000206000820151816000015560208201518160010155604082015181600201556060820151816003015560808201518160040160006101000a81548173ffffffffffffffffffffffffffffffffffffffff021916908373ffffffffffffffffffffffffffffffffffffffff16021790555060a0820151816005015560c0820151816006016000820151816000019080519060200190610a49929190611da1565b506020820151816001019080519060200190610a66929190611da1565b5060408201518160020155606082015181600301556080820151816004019080519060200190610a97929190611da1565b505050905050600560025490806001815401808255809150506001900390600052602060002001600090919091909150557f2f539bcf68b0eef24f9fef1ae5ad7dd5a37f80a2fab34f406ad2b92c779d6064600254604051610af99190611ef9565b60405180910390a160026000815480929190610b14906128fb565b91905055905095945050505050565b60008060009054906101000a900473ffffffffffffffffffffffffffffffffffffffff1673ffffffffffffffffffffffffffffffffffffffff168273ffffffffffffffffffffffffffffffffffffffff16149050919050565b60058181548110610b8c57600080fd5b906000526020600020016000915090505481565b6004602052806000526040600020600091509050806000015490806001015490806002018054610bcf906127ff565b80601f0160208091040260200160405190810160405280929190818152602001828054610bfb906127ff565b8015610c485780601f10610c1d57610100808354040283529160200191610c48565b820191906000526020600020905b815481529060010190602001808311610c2b57829003601f168201915b505050505090806003018054610c5d906127ff565b80601f0160208091040260200160405190810160405280929190818152602001828054610c89906127ff565b8015610cd65780601f10610cab57610100808354040283529160200191610cd6565b820191906000526020600020905b815481529060010190602001808311610cb957829003601f168201915b5050505050908060040154908060050154905086565b6060806000806000600460008781526020019081526020016000206040518060c00160405290816000820154815260200160018201548152602001600282018054610d36906127ff565b80601f0160208091040260200160405190810160405280929190818152602001828054610d62906127ff565b8015610daf5780601f10610d8457610100808354040283529160200191610daf565b820191906000526020600020905b815481529060010190602001808311610d9257829003601f168201915b50505050508152602001600382018054610dc8906127ff565b80601f0160208091040260200160405190810160405280929190818152602001828054610df4906127ff565b8015610e415780601f10610e1657610100808354040283529160200191610e41565b820191906000526020600020905b815481529060010190602001808311610e2457829003601f168201915b505050505081526020016004820154815260200160058201548152505090506001816000015114610ea7576040517f08c379a0000000000000000000000000000000000000000000000000000000008152600401610e9e90612a49565b60405180910390fd5b8060400151816060015182608001518360a001519450945094509450509193509193565b6000600580549050905090565b60008054906101000a900473ffffffffffffffffffffffffffffffffffffffff1681565b6000610f0733610b23565b905090565b6000610f16610efc565b610f55576040517f08c379a0000000000000000000000000000000000000000000000000000000008152600401610f4c906127b0565b60405180910390fd5b826000811015610f9a576040517f08c379a0000000000000000000000000000000000000000000000000000000008152600401610f9190612ab5565b60405180910390fd5b826000811015610fdf576040517f08c379a0000000000000000000000000000000000000000000000000000000008152600401610fd690612ab5565b60405180910390fd5b6040518060c001604052806001815260200160015481526020018881526020018781526020018681526020018581525060046000600154815260200190815260200160002060008201518160000155602082015181600101556040820151816002019080519060200190611054929190611da1565b506060820151816003019080519060200190611071929190611da1565b506080820151816004015560a08201518160050155905050600660015490806001815401808255809150506001900390600052602060002001600090919091909150557f1bcba37a1a4b522b287291c39323a9beb282280f80a06dfcc06660a46fd71dba6001546040516110e59190611ef9565b60405180910390a160016000815480929190611100906128fb565b9190505592505050949350505050565b60036020528060005260406000206000915090508060000154908060010154908060020154908060030154908060040160009054906101000a900473ffffffffffffffffffffffffffffffffffffffff1690806005015490806006016040518060a0016040529081600082018054611187906127ff565b80601f01602080910402602001604051908101604052809291908181526020018280546111b3906127ff565b80156112005780601f106111d557610100808354040283529160200191611200565b820191906000526020600020905b8154815290600101906020018083116111e357829003601f168201915b50505050508152602001600182018054611219906127ff565b80601f0160208091040260200160405190810160405280929190818152602001828054611245906127ff565b80156112925780601f1061126757610100808354040283529160200191611292565b820191906000526020600020905b81548152906001019060200180831161127557829003601f168201915b5050505050815260200160028201548152602001600382015481526020016004820180546112bf906127ff565b80601f01602080910402602001604051908101604052809291908181526020018280546112eb906127ff565b80156113385780601f1061130d57610100808354040283529160200191611338565b820191906000526020600020905b81548152906001019060200180831161131b57829003601f168201915b505050505081525050905087565b60025481565b6000600680549050905090565b611361610efc565b6113a0576040517f08c379a0000000000000000000000000000000000000000000000000000000008152600401611397906127b0565b60405180910390fd5b8160008110156113e5576040517f08c379a00000000000000000000000000000000000000000000000000000000081526004016113dc90612ab5565b60405180910390fd5b81600081101561142a576040517f08c379a000000000000000000000000000000000000000000000000000000000815260040161142190612ab5565b60405180910390fd5b6000600460008981526020019081526020016000206040518060c0016040529081600082015481526020016001820154815260200160028201805461146e906127ff565b80601f016020809104026020016040519081016040528092919081815260200182805461149a906127ff565b80156114e75780601f106114bc576101008083540402835291602001916114e7565b820191906000526020600020905b8154815290600101906020018083116114ca57829003601f168201915b50505050508152602001600382018054611500906127ff565b80601f016020809104026020016040519081016040528092919081815260200182805461152c906127ff565b80156115795780601f1061154e57610100808354040283529160200191611579565b820191906000526020600020905b81548152906001019060200180831161155c57829003601f168201915b5050505050815260200160048201548152602001600582015481525050905060018160000151146115df576040517f08c379a00000000000000000000000000000000000000000000000000000000081526004016115d690612a49565b60405180910390fd5b86816040018190525085816060018190525084816080018181525050838160a001818152505080600460008a815260200190815260200160002060008201518160000155602082015181600101556040820151816002019080519060200190611649929190611da1565b506060820151816003019080519060200190611666929190611da1565b506080820151816004015560a082015181600501559050507f97361b1697ad3a1a82fcf3afa0b80fecf9407859d7ef80aede71a02884fc384c886040516116ad9190611ef9565b60405180910390a15050505050505050565b60008060008060006116cf611e27565b6000600360008981526020019081526020016000206040518060e0016040529081600082015481526020016001820154815260200160028201548152602001600382015481526020016004820160009054906101000a900473ffffffffffffffffffffffffffffffffffffffff1673ffffffffffffffffffffffffffffffffffffffff1673ffffffffffffffffffffffffffffffffffffffff16815260200160058201548152602001600682016040518060a0016040529081600082018054611797906127ff565b80601f01602080910402602001604051908101604052809291908181526020018280546117c3906127ff565b80156118105780601f106117e557610100808354040283529160200191611810565b820191906000526020600020905b8154815290600101906020018083116117f357829003601f168201915b50505050508152602001600182018054611829906127ff565b80601f0160208091040260200160405190810160405280929190818152602001828054611855906127ff565b80156118a25780601f10611877576101008083540402835291602001916118a2565b820191906000526020600020905b81548152906001019060200180831161188557829003601f168201915b5050505050815260200160028201548152602001600382015481526020016004820180546118cf906127ff565b80601f01602080910402602001604051908101604052809291908181526020018280546118fb906127ff565b80156119485780601f1061191d57610100808354040283529160200191611948565b820191906000526020600020905b81548152906001019060200180831161192b57829003601f168201915b505050505081525050815250509050600181600001511461199e576040517f08c379a00000000000000000000000000000000000000000000000000000000081526004016119959061287d565b60405180910390fd5b80602001518160400151826060015183608001518460a001518560c001519650965096509650965096505091939550919395565b60015481565b6119e0610efc565b611a1f576040517f08c379a0000000000000000000000000000000000000000000000000000000008152600401611a16906127b0565b60405180910390fd5b6000600460008381526020019081526020016000206040518060c00160405290816000820154815260200160018201548152602001600282018054611a63906127ff565b80601f0160208091040260200160405190810160405280929190818152602001828054611a8f906127ff565b8015611adc5780601f10611ab157610100808354040283529160200191611adc565b820191906000526020600020905b815481529060010190602001808311611abf57829003601f168201915b50505050508152602001600382018054611af5906127ff565b80601f0160208091040260200160405190810160405280929190818152602001828054611b21906127ff565b8015611b6e5780601f10611b4357610100808354040283529160200191611b6e565b820191906000526020600020905b815481529060010190602001808311611b5157829003601f168201915b505050505081526020016004820154815260200160058201548152505090506001816000015114611bd4576040517f08c379a0000000000000000000000000000000000000000000000000000000008152600401611bcb90612a49565b60405180910390fd5b6000816000018181525050600460008381526020019081526020016000206000808201600090556001820160009055600282016000611c139190611d61565b600382016000611c239190611d61565b60048201600090556005820160009055505060005b600680549050811015611c83578260068281548110611c5a57611c5961289d565b5b90600052602060002001541415611c7057611c83565b8080611c7b906128fb565b915050611c38565b5b6001600680549050611c969190612944565b811015611cfd576006600182611cac9190612978565b81548110611cbd57611cbc61289d565b5b906000526020600020015460068281548110611cdc57611cdb61289d565b5b90600052602060002001819055508080611cf5906128fb565b915050611c84565b6006805480611d0f57611d0e6129ce565b5b600190038181906000526020600020016000905590557f5e594568675a7ff56299991250b9ee2a369d3f48d6ce689ebfef825886aa048083604051611d549190611ef9565b60405180910390a1505050565b508054611d6d906127ff565b6000825580601f10611d7f5750611d9e565b601f016020900490600052602060002090810190611d9d9190611e56565b5b50565b828054611dad906127ff565b90600052602060002090601f016020900481019282611dcf5760008555611e16565b82601f10611de857805160ff1916838001178555611e16565b82800160010185558215611e16579182015b82811115611e15578251825591602001919060010190611dfa565b5b509050611e239190611e56565b5090565b6040518060a0016040528060608152602001606081526020016000815260200160008152602001606081525090565b5b80821115611e6f576000816000905550600101611e57565b5090565b6000604051905090565b600080fd5b600080fd5b6000819050919050565b611e9a81611e87565b8114611ea557600080fd5b50565b600081359050611eb781611e91565b92915050565b600060208284031215611ed357611ed2611e7d565b5b6000611ee184828501611ea8565b91505092915050565b611ef381611e87565b82525050565b6000602082019050611f0e6000830184611eea565b92915050565b600073ffffffffffffffffffffffffffffffffffffffff82169050919050565b6000611f3f82611f14565b9050919050565b611f4f81611f34565b8114611f5a57600080fd5b50565b600081359050611f6c81611f46565b92915050565b600080fd5b6000601f19601f8301169050919050565b7f4e487b7100000000000000000000000000000000000000000000000000000000600052604160045260246000fd5b611fc082611f77565b810181811067ffffffffffffffff82111715611fdf57611fde611f88565b5b80604052505050565b6000611ff2611e73565b9050611ffe8282611fb7565b919050565b600080fd5b600080fd5b600080fd5b600067ffffffffffffffff82111561202d5761202c611f88565b5b61203682611f77565b9050602081019050919050565b82818337600083830152505050565b600061206561206084612012565b611fe8565b9050828152602081018484840111156120815761208061200d565b5b61208c848285612043565b509392505050565b600082601f8301126120a9576120a8612008565b5b81356120b9848260208601612052565b91505092915050565b600060a082840312156120d8576120d7611f72565b5b6120e260a0611fe8565b9050600082013567ffffffffffffffff81111561210257612101612003565b5b61210e84828501612094565b600083015250602082013567ffffffffffffffff81111561213257612131612003565b5b61213e84828501612094565b602083015250604061215284828501611ea8565b604083015250606061216684828501611ea8565b606083015250608082013567ffffffffffffffff81111561218a57612189612003565b5b61219684828501612094565b60808301525092915050565b600080600080600060a086880312156121be576121bd611e7d565b5b60006121cc88828901611ea8565b95505060206121dd88828901611ea8565b94505060406121ee88828901611ea8565b93505060606121ff88828901611f5d565b925050608086013567ffffffffffffffff8111156122205761221f611e82565b5b61222c888289016120c2565b9150509295509295909350565b60006020828403121561224f5761224e611e7d565b5b600061225d84828501611f5d565b91505092915050565b60008115159050919050565b61227b81612266565b82525050565b60006020820190506122966000830184612272565b92915050565b600081519050919050565b600082825260208201905092915050565b60005b838110156122d65780820151818401526020810190506122bb565b838111156122e5576000848401525b50505050565b60006122f68261229c565b61230081856122a7565b93506123108185602086016122b8565b61231981611f77565b840191505092915050565b600060c0820190506123396000830189611eea565b6123466020830188611eea565b818103604083015261235881876122eb565b9050818103606083015261236c81866122eb565b905061237b6080830185611eea565b61238860a0830184611eea565b979650505050505050565b600060808201905081810360008301526123ad81876122eb565b905081810360208301526123c181866122eb565b90506123d06040830185611eea565b6123dd6060830184611eea565b95945050505050565b60006123f182611f14565b9050919050565b612401816123e6565b82525050565b600060208201905061241c60008301846123f8565b92915050565b6000806000806080858703121561243c5761243b611e7d565b5b600085013567ffffffffffffffff81111561245a57612459611e82565b5b61246687828801612094565b945050602085013567ffffffffffffffff81111561248757612486611e82565b5b61249387828801612094565b93505060406124a487828801611ea8565b92505060606124b587828801611ea8565b91505092959194509250565b6124ca81611f34565b82525050565b600082825260208201905092915050565b60006124ec8261229c565b6124f681856124d0565b93506125068185602086016122b8565b61250f81611f77565b840191505092915050565b61252381611e87565b82525050565b600060a083016000830151848203600086015261254682826124e1565b9150506020830151848203602086015261256082826124e1565b9150506040830151612575604086018261251a565b506060830151612588606086018261251a565b50608083015184820360808601526125a082826124e1565b9150508091505092915050565b600060e0820190506125c2600083018a611eea565b6125cf6020830189611eea565b6125dc6040830188611eea565b6125e96060830187611eea565b6125f660808301866124c1565b61260360a0830185611eea565b81810360c08301526126158184612529565b905098975050505050505050565b600080600080600060a0868803121561263f5761263e611e7d565b5b600061264d88828901611ea8565b955050602086013567ffffffffffffffff81111561266e5761266d611e82565b5b61267a88828901612094565b945050604086013567ffffffffffffffff81111561269b5761269a611e82565b5b6126a788828901612094565b93505060606126b888828901611ea8565b92505060806126c988828901611ea8565b9150509295509295909350565b600060c0820190506126eb6000830189611eea565b6126f86020830188611eea565b6127056040830187611eea565b61271260608301866124c1565b61271f6080830185611eea565b81810360a08301526127318184612529565b9050979650505050505050565b7f546869732066756e6374696f6e206973207265737472696374656420746f207460008201527f686520636f6e74726163742773206f776e657200000000000000000000000000602082015250565b600061279a6033836122a7565b91506127a58261273e565b604082019050919050565b600060208201905081810360008301526127c98161278d565b9050919050565b7f4e487b7100000000000000000000000000000000000000000000000000000000600052602260045260246000fd5b6000600282049050600182168061281757607f821691505b6020821081141561282b5761282a6127d0565b5b50919050565b7f5468657265206973206e6f2073756368206f7264657200000000000000000000600082015250565b60006128676016836122a7565b915061287282612831565b602082019050919050565b600060208201905081810360008301526128968161285a565b9050919050565b7f4e487b7100000000000000000000000000000000000000000000000000000000600052603260045260246000fd5b7f4e487b7100000000000000000000000000000000000000000000000000000000600052601160045260246000fd5b600061290682611e87565b91507fffffffffffffffffffffffffffffffffffffffffffffffffffffffffffffffff821415612939576129386128cc565b5b600182019050919050565b600061294f82611e87565b915061295a83611e87565b92508282101561296d5761296c6128cc565b5b828203905092915050565b600061298382611e87565b915061298e83611e87565b9250827fffffffffffffffffffffffffffffffffffffffffffffffffffffffffffffffff038211156129c3576129c26128cc565b5b828201905092915050565b7f4e487b7100000000000000000000000000000000000000000000000000000000600052603160045260246000fd5b7f5468657265206973206e6f20737563682073686f70206974656d000000000000600082015250565b6000612a33601a836122a7565b9150612a3e826129fd565b602082019050919050565b60006020820190508181036000830152612a6281612a26565b9050919050565b7f4e756d6265722063616e74206265206e65676174697665000000000000000000600082015250565b6000612a9f6017836122a7565b9150612aaa82612a69565b602082019050919050565b60006020820190508181036000830152612ace81612a92565b905091905056fea2646970667358221220b780abe357c313495446b54557f2e04a6d029e8b9ea0549e2083e9b4dc07713d64736f6c634300080a0033",
  "immutableReferences": {},
  "source": "pragma solidity >=0.7.0 <0.9.0;\r\n\r\nimport \"./Authentication.sol\";\r\n\r\ncontract ManageShop is Authentication {\r\n\r\n    uint public idCounter = 1;\r\n    uint public orderIdCounter = 1;\r\n    mapping(uint => Shared.Order) public orders;\r\n    mapping(uint => Shared.ShopItem) public shopItems;\r\n    uint[] public orderIndexes;\r\n    uint[] public shopItemIndexes;\r\n\r\n    event AddShopItem(uint id);\r\n    event DeleteShopItem(uint id);\r\n    event EditShopItem(uint id);\r\n    event CreateOrder(uint id);\r\n    event DeleteOrder(uint id);\r\n\r\n    modifier cantBeNegative(uint number) {\r\n        require(number >= 0, \"Number cant be negative\");\r\n        _;\r\n    }\r\n\r\n    modifier greaterThanZero(uint number) {\r\n        require(number > 0, \"Number must be greater than 0\");\r\n        _;\r\n    }\r\n\r\n    function getOrderCount() public view returns(uint count) {\r\n        return orderIndexes.length;\r\n    }\r\n\r\n    function getShopItemCount() public view returns(uint count) {\r\n        return shopItemIndexes.length;\r\n    }\r\n\r\n    function createOrder(\r\n        uint itemId,\r\n        uint amount,\r\n        uint finalCost,\r\n        address userAddress,\r\n        Shared.UserData memory userData\r\n    ) public onlyOwner returns(uint) {\r\n        orders[orderIdCounter] = Shared.Order(1, itemId, amount, finalCost, userAddress, block.timestamp, userData);\r\n        orderIndexes.push(orderIdCounter);\r\n        emit CreateOrder(orderIdCounter);\r\n        return orderIdCounter++;\r\n    }\r\n\r\n    function getOrder(uint id) public view returns(uint, uint, uint, address, uint, Shared.UserData memory userData) {\r\n        Shared.Order memory order = orders[id];\r\n        require(order.flag == 1, \"There is no such order\");\r\n        return (order.itemId, order.amount, order.finalCost, order.userAddress, order.orderTime, order.userData);\r\n    }\r\n\r\n    function deleteOrder(uint orderId) public onlyOwner {\r\n        Shared.Order memory order = orders[orderId];\r\n        require(order.flag == 1, \"There is no such order\");\r\n        order.flag = 0;\r\n        delete orders[orderId];\r\n\r\n        uint index = 0;\r\n        for(index = 0; index < orderIndexes.length; index++) {\r\n            if(orderIndexes[index] == orderId) break;\r\n        }\r\n        while(index < orderIndexes.length - 1) {\r\n            orderIndexes[index] = orderIndexes[index+1];\r\n            index++;\r\n        }\r\n        orderIndexes.pop();\r\n        emit DeleteOrder(orderId);\r\n    }\r\n\r\n    function addShopItem(\r\n        string memory title,\r\n        string memory description,\r\n        uint cost,\r\n        uint inventory\r\n    ) public onlyOwner cantBeNegative(cost) cantBeNegative(inventory) returns(uint) {\r\n        shopItems[idCounter] = Shared.ShopItem(1, idCounter, title, description, cost, inventory);\r\n        shopItemIndexes.push(idCounter);\r\n        emit AddShopItem(idCounter);\r\n        return idCounter++;\r\n    }\r\n\r\n    function deleteShopItem(uint id) public onlyOwner {\r\n        Shared.ShopItem memory item = shopItems[id];\r\n        require(item.flag == 1, \"There is no such shop item\");\r\n        item.flag = 0;\r\n        delete shopItems[id];\r\n\r\n        uint index = 0;\r\n        for(index = 0; index < shopItemIndexes.length; index++) {\r\n            if(shopItemIndexes[index] == id) break;\r\n        }\r\n        while(index < shopItemIndexes.length - 1) {\r\n            shopItemIndexes[index] = shopItemIndexes[index+1];\r\n            index++;\r\n        }\r\n        shopItemIndexes.pop();\r\n        emit DeleteShopItem(id);\r\n    }\r\n\r\n    function getShopItem(uint id) public view returns(string memory, string memory, uint, uint) {\r\n        Shared.ShopItem memory item = shopItems[id];\r\n        require(item.flag == 1, \"There is no such shop item\");\r\n        return (item.title, item.description, item.cost, item.inventory);\r\n    }\r\n\r\n    function editShopItem(\r\n        uint id,\r\n        string memory title,\r\n        string memory description,\r\n        uint cost,\r\n        uint inventory\r\n    ) public onlyOwner cantBeNegative(cost) cantBeNegative(inventory) {\r\n        Shared.ShopItem memory item = shopItems[id];\r\n        require(item.flag == 1, \"There is no such shop item\");\r\n        item.title = title;\r\n        item.description = description;\r\n        item.cost = cost;\r\n        item.inventory = inventory;\r\n        shopItems[id] = item;\r\n        emit EditShopItem(id);\r\n    }\r\n}\r\n\r\n\r\n/* Commands\r\n\r\nlet auth = await Authentication.deployed()\r\nauth.register(\"Alexander Korfken\", \"Bonner Allee\", 12, 53111, \"Bonn\")\r\nauth.isUser()\r\nlet shop = await ManageShop.deployed()\r\nshop.addShopItem(\"Hausschuhe\", \"Beschreibung fr Hausschuhe\", 5, 10)\r\nlet hausschuhe = await shop.shopItems(1)\r\nhausschuhe.description\r\n*/",
  "sourcePath": "D:\\Users\\Alex\\Desktop\\simple-shop-dapp\\truffle\\contracts\\ManageShop.sol",
  "compiler": {
    "name": "solc",
    "version": "0.8.10+commit.fc410830.Emscripten.clang"
  },
  "schemaVersion": "3.4.4",
  "updatedAt": "2022-01-09T18:53:53.862Z",
  "devdoc": {
    "kind": "dev",
    "methods": {},
    "version": 1
  },
  "userdoc": {
    "kind": "user",
    "methods": {},
    "version": 1
  }
}