{
  "contractName": "ManageShop",
  "abi": [
    {
      "anonymous": false,
      "inputs": [
        {
          "indexed": false,
          "internalType": "uint256",
          "name": "id",
          "type": "uint256"
        }
      ],
      "name": "AddShopItem",
      "type": "event"
    },
    {
      "anonymous": false,
      "inputs": [
        {
          "indexed": false,
          "internalType": "uint256",
          "name": "id",
          "type": "uint256"
        }
      ],
      "name": "CreateOrder",
      "type": "event"
    },
    {
      "anonymous": false,
      "inputs": [
        {
          "indexed": false,
          "internalType": "uint256",
          "name": "id",
          "type": "uint256"
        }
      ],
      "name": "DeleteOrder",
      "type": "event"
    },
    {
      "anonymous": false,
      "inputs": [
        {
          "indexed": false,
          "internalType": "uint256",
          "name": "id",
          "type": "uint256"
        }
      ],
      "name": "DeleteShopItem",
      "type": "event"
    },
    {
      "anonymous": false,
      "inputs": [
        {
          "indexed": false,
          "internalType": "uint256",
          "name": "id",
          "type": "uint256"
        }
      ],
      "name": "EditShopItem",
      "type": "event"
    },
    {
      "anonymous": false,
      "inputs": [
        {
          "indexed": false,
          "internalType": "address",
          "name": "userAddress",
          "type": "address"
        }
      ],
      "name": "Registration",
      "type": "event"
    },
    {
      "inputs": [],
      "name": "idCounter",
      "outputs": [
        {
          "internalType": "uint256",
          "name": "",
          "type": "uint256"
        }
      ],
      "stateMutability": "view",
      "type": "function"
    },
    {
      "inputs": [
        {
          "internalType": "address",
          "name": "checkUser",
          "type": "address"
        }
      ],
      "name": "isOwner",
      "outputs": [
        {
          "internalType": "bool",
          "name": "isOwnerIndeed",
          "type": "bool"
        }
      ],
      "stateMutability": "view",
      "type": "function"
    },
    {
      "inputs": [],
      "name": "isOwner",
      "outputs": [
        {
          "internalType": "bool",
          "name": "isOwnerIndeed",
          "type": "bool"
        }
      ],
      "stateMutability": "view",
      "type": "function"
    },
    {
      "inputs": [
        {
          "internalType": "address",
          "name": "checkUser",
          "type": "address"
        }
      ],
      "name": "isUser",
      "outputs": [
        {
          "internalType": "bool",
          "name": "isUserIndeed",
          "type": "bool"
        }
      ],
      "stateMutability": "view",
      "type": "function"
    },
    {
      "inputs": [],
      "name": "isUser",
      "outputs": [
        {
          "internalType": "bool",
          "name": "isUserIndeed",
          "type": "bool"
        }
      ],
      "stateMutability": "view",
      "type": "function"
    },
    {
      "inputs": [],
      "name": "orderIdCounter",
      "outputs": [
        {
          "internalType": "uint256",
          "name": "",
          "type": "uint256"
        }
      ],
      "stateMutability": "view",
      "type": "function"
    },
    {
      "inputs": [
        {
          "internalType": "uint256",
          "name": "",
          "type": "uint256"
        }
      ],
      "name": "orderIndexes",
      "outputs": [
        {
          "internalType": "uint256",
          "name": "",
          "type": "uint256"
        }
      ],
      "stateMutability": "view",
      "type": "function"
    },
    {
      "inputs": [
        {
          "internalType": "uint256",
          "name": "",
          "type": "uint256"
        }
      ],
      "name": "orders",
      "outputs": [
        {
          "internalType": "uint256",
          "name": "flag",
          "type": "uint256"
        },
        {
          "internalType": "uint256",
          "name": "itemId",
          "type": "uint256"
        },
        {
          "internalType": "uint256",
          "name": "amount",
          "type": "uint256"
        },
        {
          "internalType": "uint256",
          "name": "finalCost",
          "type": "uint256"
        },
        {
          "internalType": "address",
          "name": "userAddress",
          "type": "address"
        },
        {
          "internalType": "uint256",
          "name": "orderTime",
          "type": "uint256"
        }
      ],
      "stateMutability": "view",
      "type": "function"
    },
    {
      "inputs": [],
      "name": "owner",
      "outputs": [
        {
          "internalType": "address payable",
          "name": "",
          "type": "address"
        }
      ],
      "stateMutability": "view",
      "type": "function"
    },
    {
      "inputs": [
        {
          "internalType": "string",
          "name": "name",
          "type": "string"
        },
        {
          "internalType": "string",
          "name": "street",
          "type": "string"
        },
        {
          "internalType": "uint256",
          "name": "number",
          "type": "uint256"
        },
        {
          "internalType": "uint256",
          "name": "postal",
          "type": "uint256"
        },
        {
          "internalType": "string",
          "name": "city",
          "type": "string"
        }
      ],
      "name": "register",
      "outputs": [],
      "stateMutability": "nonpayable",
      "type": "function"
    },
    {
      "inputs": [
        {
          "internalType": "uint256",
          "name": "",
          "type": "uint256"
        }
      ],
      "name": "shopItemIndexes",
      "outputs": [
        {
          "internalType": "uint256",
          "name": "",
          "type": "uint256"
        }
      ],
      "stateMutability": "view",
      "type": "function"
    },
    {
      "inputs": [
        {
          "internalType": "uint256",
          "name": "",
          "type": "uint256"
        }
      ],
      "name": "shopItems",
      "outputs": [
        {
          "internalType": "uint256",
          "name": "flag",
          "type": "uint256"
        },
        {
          "internalType": "uint256",
          "name": "id",
          "type": "uint256"
        },
        {
          "internalType": "string",
          "name": "title",
          "type": "string"
        },
        {
          "internalType": "string",
          "name": "description",
          "type": "string"
        },
        {
          "internalType": "uint256",
          "name": "cost",
          "type": "uint256"
        },
        {
          "internalType": "uint256",
          "name": "inventory",
          "type": "uint256"
        }
      ],
      "stateMutability": "view",
      "type": "function"
    },
    {
      "inputs": [
        {
          "internalType": "address",
          "name": "",
          "type": "address"
        }
      ],
      "name": "users",
      "outputs": [
        {
          "internalType": "uint256",
          "name": "flag",
          "type": "uint256"
        },
        {
          "internalType": "address",
          "name": "userAddress",
          "type": "address"
        },
        {
          "internalType": "string",
          "name": "name",
          "type": "string"
        },
        {
          "internalType": "string",
          "name": "street",
          "type": "string"
        },
        {
          "internalType": "uint256",
          "name": "number",
          "type": "uint256"
        },
        {
          "internalType": "uint256",
          "name": "postal",
          "type": "uint256"
        },
        {
          "internalType": "string",
          "name": "city",
          "type": "string"
        },
        {
          "internalType": "bool",
          "name": "isOwner",
          "type": "bool"
        }
      ],
      "stateMutability": "view",
      "type": "function"
    },
    {
      "inputs": [
        {
          "internalType": "uint256",
          "name": "itemId",
          "type": "uint256"
        },
        {
          "internalType": "uint256",
          "name": "amount",
          "type": "uint256"
        },
        {
          "internalType": "uint256",
          "name": "finalCost",
          "type": "uint256"
        },
        {
          "internalType": "address",
          "name": "userAddress",
          "type": "address"
        }
      ],
      "name": "createOrder",
      "outputs": [
        {
          "internalType": "uint256",
          "name": "",
          "type": "uint256"
        }
      ],
      "stateMutability": "nonpayable",
      "type": "function"
    },
    {
      "inputs": [
        {
          "internalType": "uint256",
          "name": "id",
          "type": "uint256"
        }
      ],
      "name": "getOrder",
      "outputs": [
        {
          "internalType": "uint256",
          "name": "",
          "type": "uint256"
        },
        {
          "internalType": "uint256",
          "name": "",
          "type": "uint256"
        },
        {
          "internalType": "uint256",
          "name": "",
          "type": "uint256"
        },
        {
          "internalType": "address",
          "name": "",
          "type": "address"
        },
        {
          "internalType": "uint256",
          "name": "",
          "type": "uint256"
        }
      ],
      "stateMutability": "view",
      "type": "function"
    },
    {
      "inputs": [
        {
          "internalType": "uint256",
          "name": "orderId",
          "type": "uint256"
        }
      ],
      "name": "deleteOrder",
      "outputs": [],
      "stateMutability": "nonpayable",
      "type": "function"
    },
    {
      "inputs": [
        {
          "internalType": "string",
          "name": "title",
          "type": "string"
        },
        {
          "internalType": "string",
          "name": "description",
          "type": "string"
        },
        {
          "internalType": "uint256",
          "name": "cost",
          "type": "uint256"
        },
        {
          "internalType": "uint256",
          "name": "inventory",
          "type": "uint256"
        }
      ],
      "name": "addShopItem",
      "outputs": [
        {
          "internalType": "uint256",
          "name": "",
          "type": "uint256"
        }
      ],
      "stateMutability": "nonpayable",
      "type": "function"
    },
    {
      "inputs": [
        {
          "internalType": "uint256",
          "name": "id",
          "type": "uint256"
        }
      ],
      "name": "deleteShopItem",
      "outputs": [],
      "stateMutability": "nonpayable",
      "type": "function"
    },
    {
      "inputs": [
        {
          "internalType": "uint256",
          "name": "id",
          "type": "uint256"
        }
      ],
      "name": "getShopItem",
      "outputs": [
        {
          "internalType": "string",
          "name": "",
          "type": "string"
        },
        {
          "internalType": "string",
          "name": "",
          "type": "string"
        },
        {
          "internalType": "uint256",
          "name": "",
          "type": "uint256"
        },
        {
          "internalType": "uint256",
          "name": "",
          "type": "uint256"
        }
      ],
      "stateMutability": "view",
      "type": "function"
    },
    {
      "inputs": [
        {
          "internalType": "uint256",
          "name": "id",
          "type": "uint256"
        },
        {
          "internalType": "string",
          "name": "title",
          "type": "string"
        },
        {
          "internalType": "string",
          "name": "description",
          "type": "string"
        },
        {
          "internalType": "uint256",
          "name": "cost",
          "type": "uint256"
        },
        {
          "internalType": "uint256",
          "name": "inventory",
          "type": "uint256"
        }
      ],
      "name": "editShopItem",
      "outputs": [],
      "stateMutability": "nonpayable",
      "type": "function"
    }
  ],
  "bytecode": "0x6080604052336000806101000a81548173ffffffffffffffffffffffffffffffffffffffff021916908373ffffffffffffffffffffffffffffffffffffffff1602179055506001600255600160035534801561005a57600080fd5b506128898061006a6000396000f3fe608060405234801561001057600080fd5b506004361061012c5760003560e01c80638f32d59b116100ad578063be37442311610071578063be374423146103b7578063cf58ad88146103d5578063d09ef241146103f1578063eb08ab2814610425578063f08aef0d146104435761012c565b80638f32d59b146102cd5780639413e945146102eb578063a33282e41461031b578063a85c38ef1461034b578063a87430ba146103805761012c565b806355815199116100f457806355815199146101fb5780635ca9e3801461022b578063648817911461026057806372af7ea21461027c5780638da5cb5b146102af5761012c565b806311a00327146101315780631ce9b1ca1461014d5780632f54bf6e1461017d5780634209fff1146101ad5780634c22c119146101dd575b600080fd5b61014b60048036038101906101469190611c73565b61045f565b005b61016760048036038101906101629190611c73565b610733565b6040516101749190611caf565b60405180910390f35b61019760048036038101906101929190611d28565b610757565b6040516101a49190611d70565b60405180910390f35b6101c760048036038101906101c29190611d28565b6107b0565b6040516101d49190611d70565b60405180910390f35b6101e56107fe565b6040516101f29190611d70565b60405180910390f35b61021560048036038101906102109190611c73565b61080e565b6040516102229190611caf565b60405180910390f35b61024560048036038101906102409190611c73565b610832565b60405161025796959493929190611e24565b60405180910390f35b61027a60048036038101906102759190611fc8565b61097e565b005b61029660048036038101906102919190611c73565b610b7c565b6040516102a69493929190612097565b60405180910390f35b6102b7610d5b565b6040516102c4919061210b565b60405180910390f35b6102d5610d7f565b6040516102e29190611d70565b60405180910390f35b61030560048036038101906103009190612126565b610d8f565b6040516103129190611caf565b60405180910390f35b6103356004803603810190610330919061218d565b610f32565b6040516103429190611caf565b60405180910390f35b61036560048036038101906103609190611c73565b611136565b6040516103779695949392919061223b565b60405180910390f35b61039a60048036038101906103959190611d28565b611192565b6040516103ae98979695949392919061229c565b60405180910390f35b6103bf61139f565b6040516103cc9190611caf565b60405180910390f35b6103ef60048036038101906103ea919061232f565b6113a5565b005b61040b60048036038101906104069190611c73565b611692565b60405161041c9594939291906123e2565b60405180910390f35b61042d6117b7565b60405161043a9190611caf565b60405180910390f35b61045d60048036038101906104589190611c73565b6117bd565b005b610467610d7f565b6104a6576040517f08c379a000000000000000000000000000000000000000000000000000000000815260040161049d906124a7565b60405180910390fd5b6000600460008381526020019081526020016000206040518060c0016040529081600082015481526020016001820154815260200160028201548152602001600382015481526020016004820160009054906101000a900473ffffffffffffffffffffffffffffffffffffffff1673ffffffffffffffffffffffffffffffffffffffff1673ffffffffffffffffffffffffffffffffffffffff16815260200160058201548152505090506001816000015114610597576040517f08c379a000000000000000000000000000000000000000000000000000000000815260040161058e90612513565b60405180910390fd5b6000816000018181525050600460008381526020019081526020016000206000808201600090556001820160009055600282016000905560038201600090556004820160006101000a81549073ffffffffffffffffffffffffffffffffffffffff02191690556005820160009055505060005b60068054905081101561065557826006828154811061062c5761062b612533565b5b9060005260206000200154141561064257610655565b808061064d90612591565b91505061060a565b5b600160068054905061066891906125da565b8110156106cf57600660018261067e919061260e565b8154811061068f5761068e612533565b5b9060005260206000200154600682815481106106ae576106ad612533565b5b906000526020600020018190555080806106c790612591565b915050610656565b60068054806106e1576106e0612664565b5b600190038181906000526020600020016000905590557fbd000546857b596b03c884060c13e7d8c7a7ce52366d2f116f76688e6f000f66836040516107269190611caf565b60405180910390a1505050565b6007818154811061074357600080fd5b906000526020600020016000915090505481565b60008060009054906101000a900473ffffffffffffffffffffffffffffffffffffffff1673ffffffffffffffffffffffffffffffffffffffff168273ffffffffffffffffffffffffffffffffffffffff16149050919050565b600060018060008473ffffffffffffffffffffffffffffffffffffffff1673ffffffffffffffffffffffffffffffffffffffff16815260200190815260200160002060000154149050919050565b6000610809336107b0565b905090565b6006818154811061081e57600080fd5b906000526020600020016000915090505481565b6005602052806000526040600020600091509050806000015490806001015490806002018054610861906126c2565b80601f016020809104026020016040519081016040528092919081815260200182805461088d906126c2565b80156108da5780601f106108af576101008083540402835291602001916108da565b820191906000526020600020905b8154815290600101906020018083116108bd57829003601f168201915b5050505050908060030180546108ef906126c2565b80601f016020809104026020016040519081016040528092919081815260200182805461091b906126c2565b80156109685780601f1061093d57610100808354040283529160200191610968565b820191906000526020600020905b81548152906001019060200180831161094b57829003601f168201915b5050505050908060040154908060050154905086565b6109866107fe565b156109c6576040517f08c379a00000000000000000000000000000000000000000000000000000000081526004016109bd90612740565b60405180910390fd5b604051806101000160405280600181526020013373ffffffffffffffffffffffffffffffffffffffff168152602001868152602001858152602001848152602001838152602001828152602001610a1b610d7f565b1515815250600160003373ffffffffffffffffffffffffffffffffffffffff1673ffffffffffffffffffffffffffffffffffffffff1681526020019081526020016000206000820151816000015560208201518160010160006101000a81548173ffffffffffffffffffffffffffffffffffffffff021916908373ffffffffffffffffffffffffffffffffffffffff1602179055506040820151816002019080519060200190610acc929190611b46565b506060820151816003019080519060200190610ae9929190611b46565b506080820151816004015560a0820151816005015560c0820151816006019080519060200190610b1a929190611b46565b5060e08201518160070160006101000a81548160ff0219169083151502179055509050507f478f5152d8fc568db3f8de9fb402fd9d98a1a7541ecfe434e59cf574fbfc552433604051610b6d9190612760565b60405180910390a15050505050565b6060806000806000600560008781526020019081526020016000206040518060c00160405290816000820154815260200160018201548152602001600282018054610bc6906126c2565b80601f0160208091040260200160405190810160405280929190818152602001828054610bf2906126c2565b8015610c3f5780601f10610c1457610100808354040283529160200191610c3f565b820191906000526020600020905b815481529060010190602001808311610c2257829003601f168201915b50505050508152602001600382018054610c58906126c2565b80601f0160208091040260200160405190810160405280929190818152602001828054610c84906126c2565b8015610cd15780601f10610ca657610100808354040283529160200191610cd1565b820191906000526020600020905b815481529060010190602001808311610cb457829003601f168201915b505050505081526020016004820154815260200160058201548152505090506001816000015114610d37576040517f08c379a0000000000000000000000000000000000000000000000000000000008152600401610d2e906127c7565b60405180910390fd5b8060400151816060015182608001518360a001519450945094509450509193509193565b60008054906101000a900473ffffffffffffffffffffffffffffffffffffffff1681565b6000610d8a33610757565b905090565b6000610d99610d7f565b610dd8576040517f08c379a0000000000000000000000000000000000000000000000000000000008152600401610dcf906124a7565b60405180910390fd5b6040518060c00160405280600181526020018681526020018581526020018481526020018373ffffffffffffffffffffffffffffffffffffffff168152602001428152506004600060035481526020019081526020016000206000820151816000015560208201518160010155604082015181600201556060820151816003015560808201518160040160006101000a81548173ffffffffffffffffffffffffffffffffffffffff021916908373ffffffffffffffffffffffffffffffffffffffff16021790555060a08201518160050155905050600660035490806001815401808255809150506001900390600052602060002001600090919091909150557f2f539bcf68b0eef24f9fef1ae5ad7dd5a37f80a2fab34f406ad2b92c779d6064600354604051610f099190611caf565b60405180910390a160036000815480929190610f2490612591565b919050559050949350505050565b6000610f3c610d7f565b610f7b576040517f08c379a0000000000000000000000000000000000000000000000000000000008152600401610f72906124a7565b60405180910390fd5b826000811015610fc0576040517f08c379a0000000000000000000000000000000000000000000000000000000008152600401610fb790612833565b60405180910390fd5b826000811015611005576040517f08c379a0000000000000000000000000000000000000000000000000000000008152600401610ffc90612833565b60405180910390fd5b6040518060c00160405280600181526020016002548152602001888152602001878152602001868152602001858152506005600060025481526020019081526020016000206000820151816000015560208201518160010155604082015181600201908051906020019061107a929190611b46565b506060820151816003019080519060200190611097929190611b46565b506080820151816004015560a08201518160050155905050600760025490806001815401808255809150506001900390600052602060002001600090919091909150557f1bcba37a1a4b522b287291c39323a9beb282280f80a06dfcc06660a46fd71dba60025460405161110b9190611caf565b60405180910390a16002600081548092919061112690612591565b9190505592505050949350505050565b60046020528060005260406000206000915090508060000154908060010154908060020154908060030154908060040160009054906101000a900473ffffffffffffffffffffffffffffffffffffffff16908060050154905086565b60016020528060005260406000206000915090508060000154908060010160009054906101000a900473ffffffffffffffffffffffffffffffffffffffff16908060020180546111e1906126c2565b80601f016020809104026020016040519081016040528092919081815260200182805461120d906126c2565b801561125a5780601f1061122f5761010080835404028352916020019161125a565b820191906000526020600020905b81548152906001019060200180831161123d57829003601f168201915b50505050509080600301805461126f906126c2565b80601f016020809104026020016040519081016040528092919081815260200182805461129b906126c2565b80156112e85780601f106112bd576101008083540402835291602001916112e8565b820191906000526020600020905b8154815290600101906020018083116112cb57829003601f168201915b505050505090806004015490806005015490806006018054611309906126c2565b80601f0160208091040260200160405190810160405280929190818152602001828054611335906126c2565b80156113825780601f1061135757610100808354040283529160200191611382565b820191906000526020600020905b81548152906001019060200180831161136557829003601f168201915b5050505050908060070160009054906101000a900460ff16905088565b60035481565b6113ad610d7f565b6113ec576040517f08c379a00000000000000000000000000000000000000000000000000000000081526004016113e3906124a7565b60405180910390fd5b816000811015611431576040517f08c379a000000000000000000000000000000000000000000000000000000000815260040161142890612833565b60405180910390fd5b816000811015611476576040517f08c379a000000000000000000000000000000000000000000000000000000000815260040161146d90612833565b60405180910390fd5b6000600560008981526020019081526020016000206040518060c001604052908160008201548152602001600182015481526020016002820180546114ba906126c2565b80601f01602080910402602001604051908101604052809291908181526020018280546114e6906126c2565b80156115335780601f1061150857610100808354040283529160200191611533565b820191906000526020600020905b81548152906001019060200180831161151657829003601f168201915b5050505050815260200160038201805461154c906126c2565b80601f0160208091040260200160405190810160405280929190818152602001828054611578906126c2565b80156115c55780601f1061159a576101008083540402835291602001916115c5565b820191906000526020600020905b8154815290600101906020018083116115a857829003601f168201915b50505050508152602001600482015481526020016005820154815250509050600181600001511461162b576040517f08c379a0000000000000000000000000000000000000000000000000000000008152600401611622906127c7565b60405180910390fd5b86816040018190525085816060018190525084816080018181525050838160a00181815250507f97361b1697ad3a1a82fcf3afa0b80fecf9407859d7ef80aede71a02884fc384c886040516116809190611caf565b60405180910390a15050505050505050565b600080600080600080600460008881526020019081526020016000206040518060c0016040529081600082015481526020016001820154815260200160028201548152602001600382015481526020016004820160009054906101000a900473ffffffffffffffffffffffffffffffffffffffff1673ffffffffffffffffffffffffffffffffffffffff1673ffffffffffffffffffffffffffffffffffffffff1681526020016005820154815250509050600181600001511461178a576040517f08c379a000000000000000000000000000000000000000000000000000000000815260040161178190612513565b60405180910390fd5b80602001518160400151826060015183608001518460a00151955095509550955095505091939590929450565b60025481565b6117c5610d7f565b611804576040517f08c379a00000000000000000000000000000000000000000000000000000000081526004016117fb906124a7565b60405180910390fd5b6000600560008381526020019081526020016000206040518060c00160405290816000820154815260200160018201548152602001600282018054611848906126c2565b80601f0160208091040260200160405190810160405280929190818152602001828054611874906126c2565b80156118c15780601f10611896576101008083540402835291602001916118c1565b820191906000526020600020905b8154815290600101906020018083116118a457829003601f168201915b505050505081526020016003820180546118da906126c2565b80601f0160208091040260200160405190810160405280929190818152602001828054611906906126c2565b80156119535780601f1061192857610100808354040283529160200191611953565b820191906000526020600020905b81548152906001019060200180831161193657829003601f168201915b5050505050815260200160048201548152602001600582015481525050905060018160000151146119b9576040517f08c379a00000000000000000000000000000000000000000000000000000000081526004016119b0906127c7565b60405180910390fd5b60008160000181815250506005600083815260200190815260200160002060008082016000905560018201600090556002820160006119f89190611bcc565b600382016000611a089190611bcc565b60048201600090556005820160009055505060005b600780549050811015611a68578260078281548110611a3f57611a3e612533565b5b90600052602060002001541415611a5557611a68565b8080611a6090612591565b915050611a1d565b5b6001600780549050611a7b91906125da565b811015611ae2576007600182611a91919061260e565b81548110611aa257611aa1612533565b5b906000526020600020015460078281548110611ac157611ac0612533565b5b90600052602060002001819055508080611ada90612591565b915050611a69565b6007805480611af457611af3612664565b5b600190038181906000526020600020016000905590557f5e594568675a7ff56299991250b9ee2a369d3f48d6ce689ebfef825886aa048083604051611b399190611caf565b60405180910390a1505050565b828054611b52906126c2565b90600052602060002090601f016020900481019282611b745760008555611bbb565b82601f10611b8d57805160ff1916838001178555611bbb565b82800160010185558215611bbb579182015b82811115611bba578251825591602001919060010190611b9f565b5b509050611bc89190611c0c565b5090565b508054611bd8906126c2565b6000825580601f10611bea5750611c09565b601f016020900490600052602060002090810190611c089190611c0c565b5b50565b5b80821115611c25576000816000905550600101611c0d565b5090565b6000604051905090565b600080fd5b600080fd5b6000819050919050565b611c5081611c3d565b8114611c5b57600080fd5b50565b600081359050611c6d81611c47565b92915050565b600060208284031215611c8957611c88611c33565b5b6000611c9784828501611c5e565b91505092915050565b611ca981611c3d565b82525050565b6000602082019050611cc46000830184611ca0565b92915050565b600073ffffffffffffffffffffffffffffffffffffffff82169050919050565b6000611cf582611cca565b9050919050565b611d0581611cea565b8114611d1057600080fd5b50565b600081359050611d2281611cfc565b92915050565b600060208284031215611d3e57611d3d611c33565b5b6000611d4c84828501611d13565b91505092915050565b60008115159050919050565b611d6a81611d55565b82525050565b6000602082019050611d856000830184611d61565b92915050565b600081519050919050565b600082825260208201905092915050565b60005b83811015611dc5578082015181840152602081019050611daa565b83811115611dd4576000848401525b50505050565b6000601f19601f8301169050919050565b6000611df682611d8b565b611e008185611d96565b9350611e10818560208601611da7565b611e1981611dda565b840191505092915050565b600060c082019050611e396000830189611ca0565b611e466020830188611ca0565b8181036040830152611e588187611deb565b90508181036060830152611e6c8186611deb565b9050611e7b6080830185611ca0565b611e8860a0830184611ca0565b979650505050505050565b600080fd5b600080fd5b7f4e487b7100000000000000000000000000000000000000000000000000000000600052604160045260246000fd5b611ed582611dda565b810181811067ffffffffffffffff82111715611ef457611ef3611e9d565b5b80604052505050565b6000611f07611c29565b9050611f138282611ecc565b919050565b600067ffffffffffffffff821115611f3357611f32611e9d565b5b611f3c82611dda565b9050602081019050919050565b82818337600083830152505050565b6000611f6b611f6684611f18565b611efd565b905082815260208101848484011115611f8757611f86611e98565b5b611f92848285611f49565b509392505050565b600082601f830112611faf57611fae611e93565b5b8135611fbf848260208601611f58565b91505092915050565b600080600080600060a08688031215611fe457611fe3611c33565b5b600086013567ffffffffffffffff81111561200257612001611c38565b5b61200e88828901611f9a565b955050602086013567ffffffffffffffff81111561202f5761202e611c38565b5b61203b88828901611f9a565b945050604061204c88828901611c5e565b935050606061205d88828901611c5e565b925050608086013567ffffffffffffffff81111561207e5761207d611c38565b5b61208a88828901611f9a565b9150509295509295909350565b600060808201905081810360008301526120b18187611deb565b905081810360208301526120c58186611deb565b90506120d46040830185611ca0565b6120e16060830184611ca0565b95945050505050565b60006120f582611cca565b9050919050565b612105816120ea565b82525050565b600060208201905061212060008301846120fc565b92915050565b600080600080608085870312156121405761213f611c33565b5b600061214e87828801611c5e565b945050602061215f87828801611c5e565b935050604061217087828801611c5e565b925050606061218187828801611d13565b91505092959194509250565b600080600080608085870312156121a7576121a6611c33565b5b600085013567ffffffffffffffff8111156121c5576121c4611c38565b5b6121d187828801611f9a565b945050602085013567ffffffffffffffff8111156121f2576121f1611c38565b5b6121fe87828801611f9a565b935050604061220f87828801611c5e565b925050606061222087828801611c5e565b91505092959194509250565b61223581611cea565b82525050565b600060c0820190506122506000830189611ca0565b61225d6020830188611ca0565b61226a6040830187611ca0565b6122776060830186611ca0565b612284608083018561222c565b61229160a0830184611ca0565b979650505050505050565b6000610100820190506122b2600083018b611ca0565b6122bf602083018a61222c565b81810360408301526122d18189611deb565b905081810360608301526122e58188611deb565b90506122f46080830187611ca0565b61230160a0830186611ca0565b81810360c08301526123138185611deb565b905061232260e0830184611d61565b9998505050505050505050565b600080600080600060a0868803121561234b5761234a611c33565b5b600061235988828901611c5e565b955050602086013567ffffffffffffffff81111561237a57612379611c38565b5b61238688828901611f9a565b945050604086013567ffffffffffffffff8111156123a7576123a6611c38565b5b6123b388828901611f9a565b93505060606123c488828901611c5e565b92505060806123d588828901611c5e565b9150509295509295909350565b600060a0820190506123f76000830188611ca0565b6124046020830187611ca0565b6124116040830186611ca0565b61241e606083018561222c565b61242b6080830184611ca0565b9695505050505050565b7f546869732066756e6374696f6e206973207265737472696374656420746f207460008201527f686520636f6e74726163742773206f776e657200000000000000000000000000602082015250565b6000612491603383611d96565b915061249c82612435565b604082019050919050565b600060208201905081810360008301526124c081612484565b9050919050565b7f5468657265206973206e6f2073756368206f7264657200000000000000000000600082015250565b60006124fd601683611d96565b9150612508826124c7565b602082019050919050565b6000602082019050818103600083015261252c816124f0565b9050919050565b7f4e487b7100000000000000000000000000000000000000000000000000000000600052603260045260246000fd5b7f4e487b7100000000000000000000000000000000000000000000000000000000600052601160045260246000fd5b600061259c82611c3d565b91507fffffffffffffffffffffffffffffffffffffffffffffffffffffffffffffffff8214156125cf576125ce612562565b5b600182019050919050565b60006125e582611c3d565b91506125f083611c3d565b92508282101561260357612602612562565b5b828203905092915050565b600061261982611c3d565b915061262483611c3d565b9250827fffffffffffffffffffffffffffffffffffffffffffffffffffffffffffffffff0382111561265957612658612562565b5b828201905092915050565b7f4e487b7100000000000000000000000000000000000000000000000000000000600052603160045260246000fd5b7f4e487b7100000000000000000000000000000000000000000000000000000000600052602260045260246000fd5b600060028204905060018216806126da57607f821691505b602082108114156126ee576126ed612693565b5b50919050565b7f596f752061726520616c72656164792072656769737465726564000000000000600082015250565b600061272a601a83611d96565b9150612735826126f4565b602082019050919050565b600060208201905081810360008301526127598161271d565b9050919050565b6000602082019050612775600083018461222c565b92915050565b7f5468657265206973206e6f20737563682073686f70206974656d000000000000600082015250565b60006127b1601a83611d96565b91506127bc8261277b565b602082019050919050565b600060208201905081810360008301526127e0816127a4565b9050919050565b7f4e756d6265722063616e74206265206e65676174697665000000000000000000600082015250565b600061281d601783611d96565b9150612828826127e7565b602082019050919050565b6000602082019050818103600083015261284c81612810565b905091905056fea2646970667358221220234a47c0cf5e2d4bff47926444115993b1669f7c5bd9bc6f0b558a8f80903e6464736f6c634300080a0033",
  "immutableReferences": {},
  "source": "pragma solidity >=0.7.0 <0.9.0;\r\n\r\nimport \"./Authentication.sol\";\r\n\r\ncontract ManageShop is Authentication {\r\n\r\n    uint public idCounter = 1;\r\n    uint public orderIdCounter = 1;\r\n    mapping(uint => Shared.Order) public orders;\r\n    mapping(uint => Shared.ShopItem) public shopItems;\r\n    uint[] public orderIndexes;\r\n    uint[] public shopItemIndexes;\r\n\r\n    event AddShopItem(uint id);\r\n    event DeleteShopItem(uint id);\r\n    event EditShopItem(uint id);\r\n    event CreateOrder(uint id);\r\n    event DeleteOrder(uint id);\r\n\r\n    modifier cantBeNegative(uint number) {\r\n        require(number >= 0, \"Number cant be negative\");\r\n        _;\r\n    }\r\n\r\n    modifier greaterThanZero(uint number) {\r\n        require(number > 0, \"Number must be greater than 0\");\r\n        _;\r\n    }\r\n\r\n    function createOrder(\r\n        uint itemId,\r\n        uint amount,\r\n        uint finalCost,\r\n        address userAddress\r\n    ) public onlyOwner returns(uint) {\r\n        orders[orderIdCounter] = Shared.Order(1, itemId, amount, finalCost, userAddress, block.timestamp);\r\n        orderIndexes.push(orderIdCounter);\r\n        emit CreateOrder(orderIdCounter);\r\n        return orderIdCounter++;\r\n    }\r\n\r\n    function getOrder(uint id) public view returns(uint, uint, uint, address, uint) {\r\n        Shared.Order memory order = orders[id];\r\n        require(order.flag == 1, \"There is no such order\");\r\n        return (order.itemId, order.amount, order.finalCost, order.userAddress, order.orderTime);\r\n    }\r\n\r\n    function deleteOrder(uint orderId) public onlyOwner {\r\n        Shared.Order memory order = orders[orderId];\r\n        require(order.flag == 1, \"There is no such order\");\r\n        order.flag = 0;\r\n        delete orders[orderId];\r\n\r\n        uint index = 0;\r\n        for(index = 0; index < orderIndexes.length; index++) {\r\n            if(orderIndexes[index] == orderId) break;\r\n        }\r\n        while(index < orderIndexes.length - 1) {\r\n            orderIndexes[index] = orderIndexes[index+1];\r\n            index++;\r\n        }\r\n        orderIndexes.pop();\r\n        emit DeleteOrder(orderId);\r\n    }\r\n\r\n    function addShopItem(\r\n        string memory title,\r\n        string memory description,\r\n        uint cost,\r\n        uint inventory\r\n    ) public onlyOwner cantBeNegative(cost) cantBeNegative(inventory) returns(uint) {\r\n        shopItems[idCounter] = Shared.ShopItem(1, idCounter, title, description, cost, inventory);\r\n        shopItemIndexes.push(idCounter);\r\n        emit AddShopItem(idCounter);\r\n        return idCounter++;\r\n    }\r\n\r\n    function deleteShopItem(uint id) public onlyOwner {\r\n        Shared.ShopItem memory item = shopItems[id];\r\n        require(item.flag == 1, \"There is no such shop item\");\r\n        item.flag = 0;\r\n        delete shopItems[id];\r\n\r\n        uint index = 0;\r\n        for(index = 0; index < shopItemIndexes.length; index++) {\r\n            if(shopItemIndexes[index] == id) break;\r\n        }\r\n        while(index < shopItemIndexes.length - 1) {\r\n            shopItemIndexes[index] = shopItemIndexes[index+1];\r\n            index++;\r\n        }\r\n        shopItemIndexes.pop();\r\n        emit DeleteShopItem(id);\r\n    }\r\n\r\n    function getShopItem(uint id) public view returns(string memory, string memory, uint, uint) {\r\n        Shared.ShopItem memory item = shopItems[id];\r\n        require(item.flag == 1, \"There is no such shop item\");\r\n        return (item.title, item.description, item.cost, item.inventory);\r\n    }\r\n\r\n    function editShopItem(\r\n        uint id,\r\n        string memory title,\r\n        string memory description,\r\n        uint cost,\r\n        uint inventory\r\n    ) public onlyOwner cantBeNegative(cost) cantBeNegative(inventory) {\r\n        Shared.ShopItem memory item = shopItems[id];\r\n        require(item.flag == 1, \"There is no such shop item\");\r\n        item.title = title;\r\n        item.description = description;\r\n        item.cost = cost;\r\n        item.inventory = inventory;\r\n        emit EditShopItem(id);\r\n    }\r\n}\r\n\r\n\r\n/* Commands\r\n\r\nlet auth = await Authentication.deployed()\r\nauth.register(\"Alexander Korfken\", \"Bonner Allee\", 12, 53111, \"Bonn\")\r\nauth.isUser()\r\nlet shop = await ManageShop.deployed()\r\nshop.addShopItem(\"Hausschuhe\", \"Beschreibung fr Hausschuhe\", 5, 10)\r\nlet hausschuhe = await shop.shopItems(1)\r\nhausschuhe.description\r\n*/",
  "sourcePath": "D:\\Users\\Alex\\Desktop\\simple-shop-dapp\\truffle\\contracts\\ManageShop.sol",
  "compiler": {
    "name": "solc",
    "version": "0.8.10+commit.fc410830.Emscripten.clang"
  },
  "schemaVersion": "3.4.4",
  "updatedAt": "2022-01-09T16:35:06.785Z",
  "devdoc": {
    "kind": "dev",
    "methods": {},
    "version": 1
  },
  "userdoc": {
    "kind": "user",
    "methods": {},
    "version": 1
  }
}