{
  "contractName": "Shop",
  "abi": [
    {
      "anonymous": false,
      "inputs": [
        {
          "indexed": false,
          "internalType": "uint256",
          "name": "id",
          "type": "uint256"
        }
      ],
      "name": "AddShopItem",
      "type": "event"
    },
    {
      "anonymous": false,
      "inputs": [
        {
          "indexed": false,
          "internalType": "uint256",
          "name": "itemId",
          "type": "uint256"
        },
        {
          "indexed": false,
          "internalType": "uint256",
          "name": "amount",
          "type": "uint256"
        },
        {
          "indexed": false,
          "internalType": "uint256",
          "name": "cost",
          "type": "uint256"
        },
        {
          "indexed": false,
          "internalType": "address",
          "name": "userAddress",
          "type": "address"
        }
      ],
      "name": "BoughtItem",
      "type": "event"
    },
    {
      "anonymous": false,
      "inputs": [
        {
          "indexed": false,
          "internalType": "uint256",
          "name": "id",
          "type": "uint256"
        }
      ],
      "name": "CreateOrder",
      "type": "event"
    },
    {
      "anonymous": false,
      "inputs": [
        {
          "indexed": false,
          "internalType": "uint256",
          "name": "id",
          "type": "uint256"
        }
      ],
      "name": "DeleteOrder",
      "type": "event"
    },
    {
      "anonymous": false,
      "inputs": [
        {
          "indexed": false,
          "internalType": "uint256",
          "name": "id",
          "type": "uint256"
        }
      ],
      "name": "DeleteShopItem",
      "type": "event"
    },
    {
      "anonymous": false,
      "inputs": [
        {
          "indexed": false,
          "internalType": "uint256",
          "name": "id",
          "type": "uint256"
        }
      ],
      "name": "EditShopItem",
      "type": "event"
    },
    {
      "inputs": [
        {
          "internalType": "string",
          "name": "title",
          "type": "string"
        },
        {
          "internalType": "string",
          "name": "description",
          "type": "string"
        },
        {
          "internalType": "uint256",
          "name": "cost",
          "type": "uint256"
        },
        {
          "internalType": "uint256",
          "name": "inventory",
          "type": "uint256"
        }
      ],
      "name": "addShopItem",
      "outputs": [
        {
          "internalType": "uint256",
          "name": "",
          "type": "uint256"
        }
      ],
      "stateMutability": "nonpayable",
      "type": "function"
    },
    {
      "inputs": [
        {
          "internalType": "uint256",
          "name": "orderId",
          "type": "uint256"
        }
      ],
      "name": "deleteOrder",
      "outputs": [],
      "stateMutability": "nonpayable",
      "type": "function"
    },
    {
      "inputs": [
        {
          "internalType": "uint256",
          "name": "id",
          "type": "uint256"
        }
      ],
      "name": "deleteShopItem",
      "outputs": [],
      "stateMutability": "nonpayable",
      "type": "function"
    },
    {
      "inputs": [
        {
          "internalType": "uint256",
          "name": "id",
          "type": "uint256"
        },
        {
          "internalType": "string",
          "name": "title",
          "type": "string"
        },
        {
          "internalType": "string",
          "name": "description",
          "type": "string"
        },
        {
          "internalType": "uint256",
          "name": "cost",
          "type": "uint256"
        },
        {
          "internalType": "uint256",
          "name": "inventory",
          "type": "uint256"
        }
      ],
      "name": "editShopItem",
      "outputs": [],
      "stateMutability": "nonpayable",
      "type": "function"
    },
    {
      "inputs": [
        {
          "internalType": "uint256",
          "name": "id",
          "type": "uint256"
        }
      ],
      "name": "getOrder",
      "outputs": [
        {
          "internalType": "uint256",
          "name": "",
          "type": "uint256"
        },
        {
          "internalType": "uint256",
          "name": "",
          "type": "uint256"
        },
        {
          "internalType": "uint256",
          "name": "",
          "type": "uint256"
        },
        {
          "internalType": "address",
          "name": "",
          "type": "address"
        },
        {
          "internalType": "uint256",
          "name": "",
          "type": "uint256"
        },
        {
          "components": [
            {
              "internalType": "string",
              "name": "name",
              "type": "string"
            },
            {
              "internalType": "string",
              "name": "street",
              "type": "string"
            },
            {
              "internalType": "uint256",
              "name": "number",
              "type": "uint256"
            },
            {
              "internalType": "uint256",
              "name": "postal",
              "type": "uint256"
            },
            {
              "internalType": "string",
              "name": "city",
              "type": "string"
            }
          ],
          "internalType": "struct Shared.UserData",
          "name": "userData",
          "type": "tuple"
        }
      ],
      "stateMutability": "view",
      "type": "function",
      "constant": true
    },
    {
      "inputs": [],
      "name": "getOrderCount",
      "outputs": [
        {
          "internalType": "uint256",
          "name": "count",
          "type": "uint256"
        }
      ],
      "stateMutability": "view",
      "type": "function",
      "constant": true
    },
    {
      "inputs": [
        {
          "internalType": "uint256",
          "name": "id",
          "type": "uint256"
        }
      ],
      "name": "getShopItem",
      "outputs": [
        {
          "internalType": "string",
          "name": "",
          "type": "string"
        },
        {
          "internalType": "string",
          "name": "",
          "type": "string"
        },
        {
          "internalType": "uint256",
          "name": "",
          "type": "uint256"
        },
        {
          "internalType": "uint256",
          "name": "",
          "type": "uint256"
        }
      ],
      "stateMutability": "view",
      "type": "function",
      "constant": true
    },
    {
      "inputs": [],
      "name": "getShopItemCount",
      "outputs": [
        {
          "internalType": "uint256",
          "name": "count",
          "type": "uint256"
        }
      ],
      "stateMutability": "view",
      "type": "function",
      "constant": true
    },
    {
      "inputs": [],
      "name": "idCounter",
      "outputs": [
        {
          "internalType": "uint256",
          "name": "",
          "type": "uint256"
        }
      ],
      "stateMutability": "view",
      "type": "function",
      "constant": true
    },
    {
      "inputs": [
        {
          "internalType": "address",
          "name": "checkUser",
          "type": "address"
        }
      ],
      "name": "isOwner",
      "outputs": [
        {
          "internalType": "bool",
          "name": "isOwnerIndeed",
          "type": "bool"
        }
      ],
      "stateMutability": "view",
      "type": "function",
      "constant": true
    },
    {
      "inputs": [],
      "name": "isOwner",
      "outputs": [
        {
          "internalType": "bool",
          "name": "isOwnerIndeed",
          "type": "bool"
        }
      ],
      "stateMutability": "view",
      "type": "function",
      "constant": true
    },
    {
      "inputs": [],
      "name": "orderIdCounter",
      "outputs": [
        {
          "internalType": "uint256",
          "name": "",
          "type": "uint256"
        }
      ],
      "stateMutability": "view",
      "type": "function",
      "constant": true
    },
    {
      "inputs": [
        {
          "internalType": "uint256",
          "name": "",
          "type": "uint256"
        }
      ],
      "name": "orderIndexes",
      "outputs": [
        {
          "internalType": "uint256",
          "name": "",
          "type": "uint256"
        }
      ],
      "stateMutability": "view",
      "type": "function",
      "constant": true
    },
    {
      "inputs": [
        {
          "internalType": "uint256",
          "name": "",
          "type": "uint256"
        }
      ],
      "name": "orders",
      "outputs": [
        {
          "internalType": "uint256",
          "name": "flag",
          "type": "uint256"
        },
        {
          "internalType": "uint256",
          "name": "itemId",
          "type": "uint256"
        },
        {
          "internalType": "uint256",
          "name": "amount",
          "type": "uint256"
        },
        {
          "internalType": "uint256",
          "name": "finalCost",
          "type": "uint256"
        },
        {
          "internalType": "address",
          "name": "userAddress",
          "type": "address"
        },
        {
          "internalType": "uint256",
          "name": "orderTime",
          "type": "uint256"
        },
        {
          "components": [
            {
              "internalType": "string",
              "name": "name",
              "type": "string"
            },
            {
              "internalType": "string",
              "name": "street",
              "type": "string"
            },
            {
              "internalType": "uint256",
              "name": "number",
              "type": "uint256"
            },
            {
              "internalType": "uint256",
              "name": "postal",
              "type": "uint256"
            },
            {
              "internalType": "string",
              "name": "city",
              "type": "string"
            }
          ],
          "internalType": "struct Shared.UserData",
          "name": "userData",
          "type": "tuple"
        }
      ],
      "stateMutability": "view",
      "type": "function",
      "constant": true
    },
    {
      "inputs": [],
      "name": "owner",
      "outputs": [
        {
          "internalType": "address payable",
          "name": "",
          "type": "address"
        }
      ],
      "stateMutability": "view",
      "type": "function",
      "constant": true
    },
    {
      "inputs": [
        {
          "internalType": "uint256",
          "name": "",
          "type": "uint256"
        }
      ],
      "name": "shopItemIndexes",
      "outputs": [
        {
          "internalType": "uint256",
          "name": "",
          "type": "uint256"
        }
      ],
      "stateMutability": "view",
      "type": "function",
      "constant": true
    },
    {
      "inputs": [
        {
          "internalType": "uint256",
          "name": "",
          "type": "uint256"
        }
      ],
      "name": "shopItems",
      "outputs": [
        {
          "internalType": "uint256",
          "name": "flag",
          "type": "uint256"
        },
        {
          "internalType": "uint256",
          "name": "id",
          "type": "uint256"
        },
        {
          "internalType": "string",
          "name": "title",
          "type": "string"
        },
        {
          "internalType": "string",
          "name": "description",
          "type": "string"
        },
        {
          "internalType": "uint256",
          "name": "cost",
          "type": "uint256"
        },
        {
          "internalType": "uint256",
          "name": "inventory",
          "type": "uint256"
        }
      ],
      "stateMutability": "view",
      "type": "function",
      "constant": true
    },
    {
      "inputs": [
        {
          "internalType": "uint256",
          "name": "itemId",
          "type": "uint256"
        },
        {
          "internalType": "uint256",
          "name": "amount",
          "type": "uint256"
        },
        {
          "components": [
            {
              "internalType": "string",
              "name": "name",
              "type": "string"
            },
            {
              "internalType": "string",
              "name": "street",
              "type": "string"
            },
            {
              "internalType": "uint256",
              "name": "number",
              "type": "uint256"
            },
            {
              "internalType": "uint256",
              "name": "postal",
              "type": "uint256"
            },
            {
              "internalType": "string",
              "name": "city",
              "type": "string"
            }
          ],
          "internalType": "struct Shared.UserData",
          "name": "userData",
          "type": "tuple"
        }
      ],
      "name": "buy",
      "outputs": [],
      "stateMutability": "payable",
      "type": "function",
      "payable": true
    }
  ],
  "bytecode": "0x6080604052336000806101000a81548173ffffffffffffffffffffffffffffffffffffffff021916908373ffffffffffffffffffffffffffffffffffffffff16021790555060018055600160025534801561005957600080fd5b50613149806100696000396000f3fe6080604052600436106101095760003560e01c8063a33282e411610095578063ced92a2111610064578063ced92a21146103b8578063cf58ad88146103e3578063d09ef2411461040c578063eb08ab281461044e578063f08aef0d1461047957610109565b8063a33282e4146102f1578063a85c38ef1461032e578063b8ea9e5614610371578063be3744231461038d57610109565b80635ca9e380116100dc5780635ca9e380146101ee57806372af7ea2146102305780638d0a5fbb146102705780638da5cb5b1461029b5780638f32d59b146102c657610109565b806311a003271461010e5780631ce9b1ca146101375780632f54bf6e1461017457806355815199146101b1575b600080fd5b34801561011a57600080fd5b50610135600480360381019061013091906122f4565b6104a2565b005b34801561014357600080fd5b5061015e600480360381019061015991906122f4565b61099b565b60405161016b9190612330565b60405180910390f35b34801561018057600080fd5b5061019b600480360381019061019691906123a9565b6109bf565b6040516101a891906123f1565b60405180910390f35b3480156101bd57600080fd5b506101d860048036038101906101d391906122f4565b610a18565b6040516101e59190612330565b60405180910390f35b3480156101fa57600080fd5b50610215600480360381019061021091906122f4565b610a3c565b604051610227969594939291906124a5565b60405180910390f35b34801561023c57600080fd5b50610257600480360381019061025291906122f4565b610b88565b6040516102679493929190612514565b60405180910390f35b34801561027c57600080fd5b50610285610d67565b6040516102929190612330565b60405180910390f35b3480156102a757600080fd5b506102b0610d74565b6040516102bd9190612588565b60405180910390f35b3480156102d257600080fd5b506102db610d98565b6040516102e891906123f1565b60405180910390f35b3480156102fd57600080fd5b50610318600480360381019061031391906126d8565b610da8565b6040516103259190612330565b60405180910390f35b34801561033a57600080fd5b50610355600480360381019061035091906122f4565b610fac565b6040516103689796959493929190612863565b60405180910390f35b61038b600480360381019061038691906129c3565b6111e2565b005b34801561039957600080fd5b506103a26115a4565b6040516103af9190612330565b60405180910390f35b3480156103c457600080fd5b506103cd6115aa565b6040516103da9190612330565b60405180910390f35b3480156103ef57600080fd5b5061040a60048036038101906104059190612a32565b6115b7565b005b34801561041857600080fd5b50610433600480360381019061042e91906122f4565b61191d565b60405161044596959493929190612ae5565b60405180910390f35b34801561045a57600080fd5b50610463611c30565b6040516104709190612330565b60405180910390f35b34801561048557600080fd5b506104a0600480360381019061049b91906122f4565b611c36565b005b6104aa610d98565b6104e9576040517f08c379a00000000000000000000000000000000000000000000000000000000081526004016104e090612bbf565b60405180910390fd5b6000600360008381526020019081526020016000206040518060e0016040529081600082015481526020016001820154815260200160028201548152602001600382015481526020016004820160009054906101000a900473ffffffffffffffffffffffffffffffffffffffff1673ffffffffffffffffffffffffffffffffffffffff1673ffffffffffffffffffffffffffffffffffffffff16815260200160058201548152602001600682016040518060a00160405290816000820180546105b190612c0e565b80601f01602080910402602001604051908101604052809291908181526020018280546105dd90612c0e565b801561062a5780601f106105ff5761010080835404028352916020019161062a565b820191906000526020600020905b81548152906001019060200180831161060d57829003601f168201915b5050505050815260200160018201805461064390612c0e565b80601f016020809104026020016040519081016040528092919081815260200182805461066f90612c0e565b80156106bc5780601f10610691576101008083540402835291602001916106bc565b820191906000526020600020905b81548152906001019060200180831161069f57829003601f168201915b5050505050815260200160028201548152602001600382015481526020016004820180546106e990612c0e565b80601f016020809104026020016040519081016040528092919081815260200182805461071590612c0e565b80156107625780601f1061073757610100808354040283529160200191610762565b820191906000526020600020905b81548152906001019060200180831161074557829003601f168201915b50505050508152505081525050905060018160000151146107b8576040517f08c379a00000000000000000000000000000000000000000000000000000000081526004016107af90612c8c565b60405180910390fd5b6000816000018181525050600360008381526020019081526020016000206000808201600090556001820160009055600282016000905560038201600090556004820160006101000a81549073ffffffffffffffffffffffffffffffffffffffff02191690556005820160009055600682016000808201600061083b9190612198565b60018201600061084b9190612198565b6002820160009055600382016000905560048201600061086b9190612198565b5050505060005b6005805490508110156108bd57826005828154811061089457610893612cac565b5b906000526020600020015414156108aa576108bd565b80806108b590612d0a565b915050610872565b5b60016005805490506108d09190612d53565b8110156109375760056001826108e69190612d87565b815481106108f7576108f6612cac565b5b90600052602060002001546005828154811061091657610915612cac565b5b9060005260206000200181905550808061092f90612d0a565b9150506108be565b600580548061094957610948612ddd565b5b600190038181906000526020600020016000905590557fbd000546857b596b03c884060c13e7d8c7a7ce52366d2f116f76688e6f000f668360405161098e9190612330565b60405180910390a1505050565b600681815481106109ab57600080fd5b906000526020600020016000915090505481565b60008060009054906101000a900473ffffffffffffffffffffffffffffffffffffffff1673ffffffffffffffffffffffffffffffffffffffff168273ffffffffffffffffffffffffffffffffffffffff16149050919050565b60058181548110610a2857600080fd5b906000526020600020016000915090505481565b6004602052806000526040600020600091509050806000015490806001015490806002018054610a6b90612c0e565b80601f0160208091040260200160405190810160405280929190818152602001828054610a9790612c0e565b8015610ae45780601f10610ab957610100808354040283529160200191610ae4565b820191906000526020600020905b815481529060010190602001808311610ac757829003601f168201915b505050505090806003018054610af990612c0e565b80601f0160208091040260200160405190810160405280929190818152602001828054610b2590612c0e565b8015610b725780601f10610b4757610100808354040283529160200191610b72565b820191906000526020600020905b815481529060010190602001808311610b5557829003601f168201915b5050505050908060040154908060050154905086565b6060806000806000600460008781526020019081526020016000206040518060c00160405290816000820154815260200160018201548152602001600282018054610bd290612c0e565b80601f0160208091040260200160405190810160405280929190818152602001828054610bfe90612c0e565b8015610c4b5780601f10610c2057610100808354040283529160200191610c4b565b820191906000526020600020905b815481529060010190602001808311610c2e57829003601f168201915b50505050508152602001600382018054610c6490612c0e565b80601f0160208091040260200160405190810160405280929190818152602001828054610c9090612c0e565b8015610cdd5780601f10610cb257610100808354040283529160200191610cdd565b820191906000526020600020905b815481529060010190602001808311610cc057829003601f168201915b505050505081526020016004820154815260200160058201548152505090506001816000015114610d43576040517f08c379a0000000000000000000000000000000000000000000000000000000008152600401610d3a90612e58565b60405180910390fd5b8060400151816060015182608001518360a001519450945094509450509193509193565b6000600580549050905090565b60008054906101000a900473ffffffffffffffffffffffffffffffffffffffff1681565b6000610da3336109bf565b905090565b6000610db2610d98565b610df1576040517f08c379a0000000000000000000000000000000000000000000000000000000008152600401610de890612bbf565b60405180910390fd5b826000811015610e36576040517f08c379a0000000000000000000000000000000000000000000000000000000008152600401610e2d90612ec4565b60405180910390fd5b826000811015610e7b576040517f08c379a0000000000000000000000000000000000000000000000000000000008152600401610e7290612ec4565b60405180910390fd5b6040518060c001604052806001815260200160015481526020018881526020018781526020018681526020018581525060046000600154815260200190815260200160002060008201518160000155602082015181600101556040820151816002019080519060200190610ef09291906121d8565b506060820151816003019080519060200190610f0d9291906121d8565b506080820151816004015560a08201518160050155905050600660015490806001815401808255809150506001900390600052602060002001600090919091909150557f1bcba37a1a4b522b287291c39323a9beb282280f80a06dfcc06660a46fd71dba600154604051610f819190612330565b60405180910390a160016000815480929190610f9c90612d0a565b9190505592505050949350505050565b60036020528060005260406000206000915090508060000154908060010154908060020154908060030154908060040160009054906101000a900473ffffffffffffffffffffffffffffffffffffffff1690806005015490806006016040518060a001604052908160008201805461102390612c0e565b80601f016020809104026020016040519081016040528092919081815260200182805461104f90612c0e565b801561109c5780601f106110715761010080835404028352916020019161109c565b820191906000526020600020905b81548152906001019060200180831161107f57829003601f168201915b505050505081526020016001820180546110b590612c0e565b80601f01602080910402602001604051908101604052809291908181526020018280546110e190612c0e565b801561112e5780601f106111035761010080835404028352916020019161112e565b820191906000526020600020905b81548152906001019060200180831161111157829003601f168201915b50505050508152602001600282015481526020016003820154815260200160048201805461115b90612c0e565b80601f016020809104026020016040519081016040528092919081815260200182805461118790612c0e565b80156111d45780601f106111a9576101008083540402835291602001916111d4565b820191906000526020600020905b8154815290600101906020018083116111b757829003601f168201915b505050505081525050905087565b8160008111611226576040517f08c379a000000000000000000000000000000000000000000000000000000000815260040161121d90612f30565b60405180910390fd5b6000600460008681526020019081526020016000206040518060c0016040529081600082015481526020016001820154815260200160028201805461126a90612c0e565b80601f016020809104026020016040519081016040528092919081815260200182805461129690612c0e565b80156112e35780601f106112b8576101008083540402835291602001916112e3565b820191906000526020600020905b8154815290600101906020018083116112c657829003601f168201915b505050505081526020016003820180546112fc90612c0e565b80601f016020809104026020016040519081016040528092919081815260200182805461132890612c0e565b80156113755780601f1061134a57610100808354040283529160200191611375565b820191906000526020600020905b81548152906001019060200180831161135857829003601f168201915b5050505050815260200160048201548152602001600582015481525050905060018160000151146113db576040517f08c379a00000000000000000000000000000000000000000000000000000000081526004016113d290612e58565b60405180910390fd5b838160a001511015611422576040517f08c379a000000000000000000000000000000000000000000000000000000000815260040161141990612fc2565b60405180910390fd5b60008482608001516114349190612fe2565b9050803414611478576040517f08c379a000000000000000000000000000000000000000000000000000000000815260040161146f906130ae565b60405180910390fd5b3373ffffffffffffffffffffffffffffffffffffffff166108fc829081150290604051600060405180830381858888f193505050501580156114be573d6000803e3d6000fd5b50848260a0018181516114d19190612d53565b9150818152505081600460008881526020019081526020016000206000820151816000015560208201518160010155604082015181600201908051906020019061151c9291906121d8565b5060608201518160030190805190602001906115399291906121d8565b506080820151816004015560a082015181600501559050507ff6dfe3265343a31f549b8db6595d805aa696facc9647fbbc4964af02f4be41578686833360405161158694939291906130ce565b60405180910390a161159b8686833388611fbf565b50505050505050565b60025481565b6000600680549050905090565b6115bf610d98565b6115fe576040517f08c379a00000000000000000000000000000000000000000000000000000000081526004016115f590612bbf565b60405180910390fd5b816000811015611643576040517f08c379a000000000000000000000000000000000000000000000000000000000815260040161163a90612ec4565b60405180910390fd5b816000811015611688576040517f08c379a000000000000000000000000000000000000000000000000000000000815260040161167f90612ec4565b60405180910390fd5b6000600460008981526020019081526020016000206040518060c001604052908160008201548152602001600182015481526020016002820180546116cc90612c0e565b80601f01602080910402602001604051908101604052809291908181526020018280546116f890612c0e565b80156117455780601f1061171a57610100808354040283529160200191611745565b820191906000526020600020905b81548152906001019060200180831161172857829003601f168201915b5050505050815260200160038201805461175e90612c0e565b80601f016020809104026020016040519081016040528092919081815260200182805461178a90612c0e565b80156117d75780601f106117ac576101008083540402835291602001916117d7565b820191906000526020600020905b8154815290600101906020018083116117ba57829003601f168201915b50505050508152602001600482015481526020016005820154815250509050600181600001511461183d576040517f08c379a000000000000000000000000000000000000000000000000000000000815260040161183490612e58565b60405180910390fd5b86816040018190525085816060018190525084816080018181525050838160a001818152505080600460008a8152602001908152602001600020600082015181600001556020820151816001015560408201518160020190805190602001906118a79291906121d8565b5060608201518160030190805190602001906118c49291906121d8565b506080820151816004015560a082015181600501559050507f97361b1697ad3a1a82fcf3afa0b80fecf9407859d7ef80aede71a02884fc384c8860405161190b9190612330565b60405180910390a15050505050505050565b600080600080600061192d61225e565b6000600360008981526020019081526020016000206040518060e0016040529081600082015481526020016001820154815260200160028201548152602001600382015481526020016004820160009054906101000a900473ffffffffffffffffffffffffffffffffffffffff1673ffffffffffffffffffffffffffffffffffffffff1673ffffffffffffffffffffffffffffffffffffffff16815260200160058201548152602001600682016040518060a00160405290816000820180546119f590612c0e565b80601f0160208091040260200160405190810160405280929190818152602001828054611a2190612c0e565b8015611a6e5780601f10611a4357610100808354040283529160200191611a6e565b820191906000526020600020905b815481529060010190602001808311611a5157829003601f168201915b50505050508152602001600182018054611a8790612c0e565b80601f0160208091040260200160405190810160405280929190818152602001828054611ab390612c0e565b8015611b005780601f10611ad557610100808354040283529160200191611b00565b820191906000526020600020905b815481529060010190602001808311611ae357829003601f168201915b505050505081526020016002820154815260200160038201548152602001600482018054611b2d90612c0e565b80601f0160208091040260200160405190810160405280929190818152602001828054611b5990612c0e565b8015611ba65780601f10611b7b57610100808354040283529160200191611ba6565b820191906000526020600020905b815481529060010190602001808311611b8957829003601f168201915b5050505050815250508152505090506001816000015114611bfc576040517f08c379a0000000000000000000000000000000000000000000000000000000008152600401611bf390612c8c565b60405180910390fd5b80602001518160400151826060015183608001518460a001518560c001519650965096509650965096505091939550919395565b60015481565b611c3e610d98565b611c7d576040517f08c379a0000000000000000000000000000000000000000000000000000000008152600401611c7490612bbf565b60405180910390fd5b6000600460008381526020019081526020016000206040518060c00160405290816000820154815260200160018201548152602001600282018054611cc190612c0e565b80601f0160208091040260200160405190810160405280929190818152602001828054611ced90612c0e565b8015611d3a5780601f10611d0f57610100808354040283529160200191611d3a565b820191906000526020600020905b815481529060010190602001808311611d1d57829003601f168201915b50505050508152602001600382018054611d5390612c0e565b80601f0160208091040260200160405190810160405280929190818152602001828054611d7f90612c0e565b8015611dcc5780601f10611da157610100808354040283529160200191611dcc565b820191906000526020600020905b815481529060010190602001808311611daf57829003601f168201915b505050505081526020016004820154815260200160058201548152505090506001816000015114611e32576040517f08c379a0000000000000000000000000000000000000000000000000000000008152600401611e2990612e58565b60405180910390fd5b6000816000018181525050600460008381526020019081526020016000206000808201600090556001820160009055600282016000611e719190612198565b600382016000611e819190612198565b60048201600090556005820160009055505060005b600680549050811015611ee1578260068281548110611eb857611eb7612cac565b5b90600052602060002001541415611ece57611ee1565b8080611ed990612d0a565b915050611e96565b5b6001600680549050611ef49190612d53565b811015611f5b576006600182611f0a9190612d87565b81548110611f1b57611f1a612cac565b5b906000526020600020015460068281548110611f3a57611f39612cac565b5b90600052602060002001819055508080611f5390612d0a565b915050611ee2565b6006805480611f6d57611f6c612ddd565b5b600190038181906000526020600020016000905590557f5e594568675a7ff56299991250b9ee2a369d3f48d6ce689ebfef825886aa048083604051611fb29190612330565b60405180910390a1505050565b60006040518060e00160405280600181526020018781526020018681526020018581526020018473ffffffffffffffffffffffffffffffffffffffff168152602001428152602001838152506003600060025481526020019081526020016000206000820151816000015560208201518160010155604082015181600201556060820151816003015560808201518160040160006101000a81548173ffffffffffffffffffffffffffffffffffffffff021916908373ffffffffffffffffffffffffffffffffffffffff16021790555060a0820151816005015560c08201518160060160008201518160000190805190602001906120be9291906121d8565b5060208201518160010190805190602001906120db9291906121d8565b506040820151816002015560608201518160030155608082015181600401908051906020019061210c9291906121d8565b505050905050600560025490806001815401808255809150506001900390600052602060002001600090919091909150557f2f539bcf68b0eef24f9fef1ae5ad7dd5a37f80a2fab34f406ad2b92c779d606460025460405161216e9190612330565b60405180910390a16002600081548092919061218990612d0a565b91905055905095945050505050565b5080546121a490612c0e565b6000825580601f106121b657506121d5565b601f0160209004906000526020600020908101906121d4919061228d565b5b50565b8280546121e490612c0e565b90600052602060002090601f016020900481019282612206576000855561224d565b82601f1061221f57805160ff191683800117855561224d565b8280016001018555821561224d579182015b8281111561224c578251825591602001919060010190612231565b5b50905061225a919061228d565b5090565b6040518060a0016040528060608152602001606081526020016000815260200160008152602001606081525090565b5b808211156122a657600081600090555060010161228e565b5090565b6000604051905090565b600080fd5b600080fd5b6000819050919050565b6122d1816122be565b81146122dc57600080fd5b50565b6000813590506122ee816122c8565b92915050565b60006020828403121561230a576123096122b4565b5b6000612318848285016122df565b91505092915050565b61232a816122be565b82525050565b60006020820190506123456000830184612321565b92915050565b600073ffffffffffffffffffffffffffffffffffffffff82169050919050565b60006123768261234b565b9050919050565b6123868161236b565b811461239157600080fd5b50565b6000813590506123a38161237d565b92915050565b6000602082840312156123bf576123be6122b4565b5b60006123cd84828501612394565b91505092915050565b60008115159050919050565b6123eb816123d6565b82525050565b600060208201905061240660008301846123e2565b92915050565b600081519050919050565b600082825260208201905092915050565b60005b8381101561244657808201518184015260208101905061242b565b83811115612455576000848401525b50505050565b6000601f19601f8301169050919050565b60006124778261240c565b6124818185612417565b9350612491818560208601612428565b61249a8161245b565b840191505092915050565b600060c0820190506124ba6000830189612321565b6124c76020830188612321565b81810360408301526124d9818761246c565b905081810360608301526124ed818661246c565b90506124fc6080830185612321565b61250960a0830184612321565b979650505050505050565b6000608082019050818103600083015261252e818761246c565b90508181036020830152612542818661246c565b90506125516040830185612321565b61255e6060830184612321565b95945050505050565b60006125728261234b565b9050919050565b61258281612567565b82525050565b600060208201905061259d6000830184612579565b92915050565b600080fd5b600080fd5b7f4e487b7100000000000000000000000000000000000000000000000000000000600052604160045260246000fd5b6125e58261245b565b810181811067ffffffffffffffff82111715612604576126036125ad565b5b80604052505050565b60006126176122aa565b905061262382826125dc565b919050565b600067ffffffffffffffff821115612643576126426125ad565b5b61264c8261245b565b9050602081019050919050565b82818337600083830152505050565b600061267b61267684612628565b61260d565b905082815260208101848484011115612697576126966125a8565b5b6126a2848285612659565b509392505050565b600082601f8301126126bf576126be6125a3565b5b81356126cf848260208601612668565b91505092915050565b600080600080608085870312156126f2576126f16122b4565b5b600085013567ffffffffffffffff8111156127105761270f6122b9565b5b61271c878288016126aa565b945050602085013567ffffffffffffffff81111561273d5761273c6122b9565b5b612749878288016126aa565b935050604061275a878288016122df565b925050606061276b878288016122df565b91505092959194509250565b6127808161236b565b82525050565b600082825260208201905092915050565b60006127a28261240c565b6127ac8185612786565b93506127bc818560208601612428565b6127c58161245b565b840191505092915050565b6127d9816122be565b82525050565b600060a08301600083015184820360008601526127fc8282612797565b915050602083015184820360208601526128168282612797565b915050604083015161282b60408601826127d0565b50606083015161283e60608601826127d0565b50608083015184820360808601526128568282612797565b9150508091505092915050565b600060e082019050612878600083018a612321565b6128856020830189612321565b6128926040830188612321565b61289f6060830187612321565b6128ac6080830186612777565b6128b960a0830185612321565b81810360c08301526128cb81846127df565b905098975050505050505050565b600080fd5b600080fd5b600060a082840312156128f9576128f86128d9565b5b61290360a061260d565b9050600082013567ffffffffffffffff811115612923576129226128de565b5b61292f848285016126aa565b600083015250602082013567ffffffffffffffff811115612953576129526128de565b5b61295f848285016126aa565b6020830152506040612973848285016122df565b6040830152506060612987848285016122df565b606083015250608082013567ffffffffffffffff8111156129ab576129aa6128de565b5b6129b7848285016126aa565b60808301525092915050565b6000806000606084860312156129dc576129db6122b4565b5b60006129ea868287016122df565b93505060206129fb868287016122df565b925050604084013567ffffffffffffffff811115612a1c57612a1b6122b9565b5b612a28868287016128e3565b9150509250925092565b600080600080600060a08688031215612a4e57612a4d6122b4565b5b6000612a5c888289016122df565b955050602086013567ffffffffffffffff811115612a7d57612a7c6122b9565b5b612a89888289016126aa565b945050604086013567ffffffffffffffff811115612aaa57612aa96122b9565b5b612ab6888289016126aa565b9350506060612ac7888289016122df565b9250506080612ad8888289016122df565b9150509295509295909350565b600060c082019050612afa6000830189612321565b612b076020830188612321565b612b146040830187612321565b612b216060830186612777565b612b2e6080830185612321565b81810360a0830152612b4081846127df565b9050979650505050505050565b7f546869732066756e6374696f6e206973207265737472696374656420746f207460008201527f686520636f6e74726163742773206f776e657200000000000000000000000000602082015250565b6000612ba9603383612417565b9150612bb482612b4d565b604082019050919050565b60006020820190508181036000830152612bd881612b9c565b9050919050565b7f4e487b7100000000000000000000000000000000000000000000000000000000600052602260045260246000fd5b60006002820490506001821680612c2657607f821691505b60208210811415612c3a57612c39612bdf565b5b50919050565b7f5468657265206973206e6f2073756368206f7264657200000000000000000000600082015250565b6000612c76601683612417565b9150612c8182612c40565b602082019050919050565b60006020820190508181036000830152612ca581612c69565b9050919050565b7f4e487b7100000000000000000000000000000000000000000000000000000000600052603260045260246000fd5b7f4e487b7100000000000000000000000000000000000000000000000000000000600052601160045260246000fd5b6000612d15826122be565b91507fffffffffffffffffffffffffffffffffffffffffffffffffffffffffffffffff821415612d4857612d47612cdb565b5b600182019050919050565b6000612d5e826122be565b9150612d69836122be565b925082821015612d7c57612d7b612cdb565b5b828203905092915050565b6000612d92826122be565b9150612d9d836122be565b9250827fffffffffffffffffffffffffffffffffffffffffffffffffffffffffffffffff03821115612dd257612dd1612cdb565b5b828201905092915050565b7f4e487b7100000000000000000000000000000000000000000000000000000000600052603160045260246000fd5b7f5468657265206973206e6f20737563682073686f70206974656d000000000000600082015250565b6000612e42601a83612417565b9150612e4d82612e0c565b602082019050919050565b60006020820190508181036000830152612e7181612e35565b9050919050565b7f4e756d6265722063616e74206265206e65676174697665000000000000000000600082015250565b6000612eae601783612417565b9150612eb982612e78565b602082019050919050565b60006020820190508181036000830152612edd81612ea1565b9050919050565b7f4e756d626572206d7573742062652067726561746572207468616e2030000000600082015250565b6000612f1a601d83612417565b9150612f2582612ee4565b602082019050919050565b60006020820190508181036000830152612f4981612f0d565b9050919050565b7f5468657265206973206e6f7420656e6f75676820696e2074686520696e76656e60008201527f746f727900000000000000000000000000000000000000000000000000000000602082015250565b6000612fac602483612417565b9150612fb782612f50565b604082019050919050565b60006020820190508181036000830152612fdb81612f9f565b9050919050565b6000612fed826122be565b9150612ff8836122be565b9250817fffffffffffffffffffffffffffffffffffffffffffffffffffffffffffffffff048311821515161561303157613030612cdb565b5b828202905092915050565b7f596f75206e65656420746f2073656e642074686520657861637420616d6f756e60008201527f74206f6620776569000000000000000000000000000000000000000000000000602082015250565b6000613098602883612417565b91506130a38261303c565b604082019050919050565b600060208201905081810360008301526130c78161308b565b9050919050565b60006080820190506130e36000830187612321565b6130f06020830186612321565b6130fd6040830185612321565b61310a6060830184612777565b9594505050505056fea2646970667358221220e5eebdf422bafffbf5b3477c3b5631ca445a2dec0aee5d59e8bcf97d9b838f6864736f6c634300080a0033",
  "immutableReferences": {},
  "source": "pragma solidity >=0.7.0 <0.9.0;\r\n\r\nimport \"./ManageShop.sol\";\r\n\r\ncontract Shop is ManageShop {\r\n\r\n    event BoughtItem(uint itemId, uint amount, uint cost, address userAddress);\r\n\r\n    function buy(uint itemId, uint amount, Shared.UserData memory userData) public payable greaterThanZero(amount) {\r\n        Shared.ShopItem memory item = shopItems[itemId];\r\n        require(item.flag == 1, \"There is no such shop item\");\r\n        require(item.inventory >= amount, \"There is not enough in the inventory\");\r\n\r\n        uint finalCost = item.cost * amount;\r\n        require(msg.value == finalCost, \"You need to send the exact amount of wei\");\r\n        payable(msg.sender).transfer(finalCost);\r\n\r\n        item.inventory -= amount;\r\n        shopItems[itemId] = item;\r\n\r\n        emit BoughtItem(itemId, amount, finalCost, msg.sender);\r\n        ManageShop.createOrder(itemId, amount, finalCost, msg.sender, userData);\r\n    }\r\n}",
  "sourcePath": "D:\\Users\\Alex\\Desktop\\simple-shop-dapp\\truffle\\contracts\\Shop.sol",
  "compiler": {
    "name": "solc",
    "version": "0.8.10+commit.fc410830.Emscripten.clang"
  },
  "schemaVersion": "3.4.4",
  "updatedAt": "2022-01-09T20:56:06.099Z",
  "networkType": "ethereum",
  "devdoc": {
    "kind": "dev",
    "methods": {},
    "version": 1
  },
  "userdoc": {
    "kind": "user",
    "methods": {},
    "version": 1
  }
}