{
  "contractName": "Shop",
  "abi": [
    {
      "anonymous": false,
      "inputs": [
        {
          "indexed": false,
          "internalType": "uint256",
          "name": "id",
          "type": "uint256"
        }
      ],
      "name": "AddShopItem",
      "type": "event"
    },
    {
      "anonymous": false,
      "inputs": [
        {
          "indexed": false,
          "internalType": "uint256",
          "name": "itemId",
          "type": "uint256"
        },
        {
          "indexed": false,
          "internalType": "uint256",
          "name": "amount",
          "type": "uint256"
        },
        {
          "indexed": false,
          "internalType": "uint256",
          "name": "cost",
          "type": "uint256"
        },
        {
          "indexed": false,
          "internalType": "address",
          "name": "userAddress",
          "type": "address"
        }
      ],
      "name": "BoughtItem",
      "type": "event"
    },
    {
      "anonymous": false,
      "inputs": [
        {
          "indexed": false,
          "internalType": "uint256",
          "name": "id",
          "type": "uint256"
        }
      ],
      "name": "CreateOrder",
      "type": "event"
    },
    {
      "anonymous": false,
      "inputs": [
        {
          "indexed": false,
          "internalType": "uint256",
          "name": "id",
          "type": "uint256"
        }
      ],
      "name": "DeleteOrder",
      "type": "event"
    },
    {
      "anonymous": false,
      "inputs": [
        {
          "indexed": false,
          "internalType": "uint256",
          "name": "id",
          "type": "uint256"
        }
      ],
      "name": "DeleteShopItem",
      "type": "event"
    },
    {
      "anonymous": false,
      "inputs": [
        {
          "indexed": false,
          "internalType": "uint256",
          "name": "id",
          "type": "uint256"
        }
      ],
      "name": "EditShopItem",
      "type": "event"
    },
    {
      "anonymous": false,
      "inputs": [
        {
          "indexed": false,
          "internalType": "address",
          "name": "userAddress",
          "type": "address"
        }
      ],
      "name": "Registration",
      "type": "event"
    },
    {
      "inputs": [
        {
          "internalType": "string",
          "name": "title",
          "type": "string"
        },
        {
          "internalType": "string",
          "name": "description",
          "type": "string"
        },
        {
          "internalType": "uint256",
          "name": "cost",
          "type": "uint256"
        },
        {
          "internalType": "uint256",
          "name": "inventory",
          "type": "uint256"
        }
      ],
      "name": "addShopItem",
      "outputs": [
        {
          "internalType": "uint256",
          "name": "",
          "type": "uint256"
        }
      ],
      "stateMutability": "nonpayable",
      "type": "function"
    },
    {
      "inputs": [
        {
          "internalType": "uint256",
          "name": "itemId",
          "type": "uint256"
        },
        {
          "internalType": "uint256",
          "name": "amount",
          "type": "uint256"
        },
        {
          "internalType": "uint256",
          "name": "finalCost",
          "type": "uint256"
        },
        {
          "internalType": "address",
          "name": "userAddress",
          "type": "address"
        }
      ],
      "name": "createOrder",
      "outputs": [
        {
          "internalType": "uint256",
          "name": "",
          "type": "uint256"
        }
      ],
      "stateMutability": "nonpayable",
      "type": "function"
    },
    {
      "inputs": [
        {
          "internalType": "uint256",
          "name": "orderId",
          "type": "uint256"
        }
      ],
      "name": "deleteOrder",
      "outputs": [],
      "stateMutability": "nonpayable",
      "type": "function"
    },
    {
      "inputs": [
        {
          "internalType": "uint256",
          "name": "id",
          "type": "uint256"
        }
      ],
      "name": "deleteShopItem",
      "outputs": [],
      "stateMutability": "nonpayable",
      "type": "function"
    },
    {
      "inputs": [
        {
          "internalType": "uint256",
          "name": "id",
          "type": "uint256"
        },
        {
          "internalType": "string",
          "name": "title",
          "type": "string"
        },
        {
          "internalType": "string",
          "name": "description",
          "type": "string"
        },
        {
          "internalType": "uint256",
          "name": "cost",
          "type": "uint256"
        },
        {
          "internalType": "uint256",
          "name": "inventory",
          "type": "uint256"
        }
      ],
      "name": "editShopItem",
      "outputs": [],
      "stateMutability": "nonpayable",
      "type": "function"
    },
    {
      "inputs": [
        {
          "internalType": "uint256",
          "name": "id",
          "type": "uint256"
        }
      ],
      "name": "getOrder",
      "outputs": [
        {
          "internalType": "uint256",
          "name": "",
          "type": "uint256"
        },
        {
          "internalType": "uint256",
          "name": "",
          "type": "uint256"
        },
        {
          "internalType": "uint256",
          "name": "",
          "type": "uint256"
        },
        {
          "internalType": "address",
          "name": "",
          "type": "address"
        },
        {
          "internalType": "uint256",
          "name": "",
          "type": "uint256"
        }
      ],
      "stateMutability": "view",
      "type": "function",
      "constant": true
    },
    {
      "inputs": [
        {
          "internalType": "uint256",
          "name": "id",
          "type": "uint256"
        }
      ],
      "name": "getShopItem",
      "outputs": [
        {
          "internalType": "string",
          "name": "",
          "type": "string"
        },
        {
          "internalType": "string",
          "name": "",
          "type": "string"
        },
        {
          "internalType": "uint256",
          "name": "",
          "type": "uint256"
        },
        {
          "internalType": "uint256",
          "name": "",
          "type": "uint256"
        }
      ],
      "stateMutability": "view",
      "type": "function",
      "constant": true
    },
    {
      "inputs": [],
      "name": "idCounter",
      "outputs": [
        {
          "internalType": "uint256",
          "name": "",
          "type": "uint256"
        }
      ],
      "stateMutability": "view",
      "type": "function",
      "constant": true
    },
    {
      "inputs": [
        {
          "internalType": "address",
          "name": "checkUser",
          "type": "address"
        }
      ],
      "name": "isOwner",
      "outputs": [
        {
          "internalType": "bool",
          "name": "isOwnerIndeed",
          "type": "bool"
        }
      ],
      "stateMutability": "view",
      "type": "function",
      "constant": true
    },
    {
      "inputs": [],
      "name": "isOwner",
      "outputs": [
        {
          "internalType": "bool",
          "name": "isOwnerIndeed",
          "type": "bool"
        }
      ],
      "stateMutability": "view",
      "type": "function",
      "constant": true
    },
    {
      "inputs": [
        {
          "internalType": "address",
          "name": "checkUser",
          "type": "address"
        }
      ],
      "name": "isUser",
      "outputs": [
        {
          "internalType": "bool",
          "name": "isUserIndeed",
          "type": "bool"
        }
      ],
      "stateMutability": "view",
      "type": "function",
      "constant": true
    },
    {
      "inputs": [],
      "name": "isUser",
      "outputs": [
        {
          "internalType": "bool",
          "name": "isUserIndeed",
          "type": "bool"
        }
      ],
      "stateMutability": "view",
      "type": "function",
      "constant": true
    },
    {
      "inputs": [],
      "name": "orderIdCounter",
      "outputs": [
        {
          "internalType": "uint256",
          "name": "",
          "type": "uint256"
        }
      ],
      "stateMutability": "view",
      "type": "function",
      "constant": true
    },
    {
      "inputs": [
        {
          "internalType": "uint256",
          "name": "",
          "type": "uint256"
        }
      ],
      "name": "orderIndexes",
      "outputs": [
        {
          "internalType": "uint256",
          "name": "",
          "type": "uint256"
        }
      ],
      "stateMutability": "view",
      "type": "function",
      "constant": true
    },
    {
      "inputs": [
        {
          "internalType": "uint256",
          "name": "",
          "type": "uint256"
        }
      ],
      "name": "orders",
      "outputs": [
        {
          "internalType": "uint256",
          "name": "flag",
          "type": "uint256"
        },
        {
          "internalType": "uint256",
          "name": "itemId",
          "type": "uint256"
        },
        {
          "internalType": "uint256",
          "name": "amount",
          "type": "uint256"
        },
        {
          "internalType": "uint256",
          "name": "finalCost",
          "type": "uint256"
        },
        {
          "internalType": "address",
          "name": "userAddress",
          "type": "address"
        },
        {
          "internalType": "uint256",
          "name": "orderTime",
          "type": "uint256"
        }
      ],
      "stateMutability": "view",
      "type": "function",
      "constant": true
    },
    {
      "inputs": [],
      "name": "owner",
      "outputs": [
        {
          "internalType": "address payable",
          "name": "",
          "type": "address"
        }
      ],
      "stateMutability": "view",
      "type": "function",
      "constant": true
    },
    {
      "inputs": [
        {
          "internalType": "string",
          "name": "name",
          "type": "string"
        },
        {
          "internalType": "string",
          "name": "street",
          "type": "string"
        },
        {
          "internalType": "uint256",
          "name": "number",
          "type": "uint256"
        },
        {
          "internalType": "uint256",
          "name": "postal",
          "type": "uint256"
        },
        {
          "internalType": "string",
          "name": "city",
          "type": "string"
        }
      ],
      "name": "register",
      "outputs": [],
      "stateMutability": "nonpayable",
      "type": "function"
    },
    {
      "inputs": [
        {
          "internalType": "uint256",
          "name": "",
          "type": "uint256"
        }
      ],
      "name": "shopItemIndexes",
      "outputs": [
        {
          "internalType": "uint256",
          "name": "",
          "type": "uint256"
        }
      ],
      "stateMutability": "view",
      "type": "function",
      "constant": true
    },
    {
      "inputs": [
        {
          "internalType": "uint256",
          "name": "",
          "type": "uint256"
        }
      ],
      "name": "shopItems",
      "outputs": [
        {
          "internalType": "uint256",
          "name": "flag",
          "type": "uint256"
        },
        {
          "internalType": "uint256",
          "name": "id",
          "type": "uint256"
        },
        {
          "internalType": "string",
          "name": "title",
          "type": "string"
        },
        {
          "internalType": "string",
          "name": "description",
          "type": "string"
        },
        {
          "internalType": "uint256",
          "name": "cost",
          "type": "uint256"
        },
        {
          "internalType": "uint256",
          "name": "inventory",
          "type": "uint256"
        }
      ],
      "stateMutability": "view",
      "type": "function",
      "constant": true
    },
    {
      "inputs": [
        {
          "internalType": "address",
          "name": "",
          "type": "address"
        }
      ],
      "name": "users",
      "outputs": [
        {
          "internalType": "uint256",
          "name": "flag",
          "type": "uint256"
        },
        {
          "internalType": "address",
          "name": "userAddress",
          "type": "address"
        },
        {
          "internalType": "string",
          "name": "name",
          "type": "string"
        },
        {
          "internalType": "string",
          "name": "street",
          "type": "string"
        },
        {
          "internalType": "uint256",
          "name": "number",
          "type": "uint256"
        },
        {
          "internalType": "uint256",
          "name": "postal",
          "type": "uint256"
        },
        {
          "internalType": "string",
          "name": "city",
          "type": "string"
        },
        {
          "internalType": "bool",
          "name": "isOwner",
          "type": "bool"
        }
      ],
      "stateMutability": "view",
      "type": "function",
      "constant": true
    },
    {
      "inputs": [
        {
          "internalType": "uint256",
          "name": "itemId",
          "type": "uint256"
        },
        {
          "internalType": "uint256",
          "name": "amount",
          "type": "uint256"
        }
      ],
      "name": "buy",
      "outputs": [],
      "stateMutability": "payable",
      "type": "function",
      "payable": true
    }
  ],
  "bytecode": "0x6080604052336000806101000a81548173ffffffffffffffffffffffffffffffffffffffff021916908373ffffffffffffffffffffffffffffffffffffffff1602179055506001600255600160035534801561005a57600080fd5b506130108061006a6000396000f3fe60806040526004361061012a5760003560e01c80638f32d59b116100ab578063be3744231161006f578063be37442314610478578063cf58ad88146104a3578063d09ef241146104cc578063d6febde81461050d578063eb08ab2814610529578063f08aef0d146105545761012a565b80638f32d59b1461034d5780639413e94514610378578063a33282e4146103b5578063a85c38ef146103f2578063a87430ba146104345761012a565b806355815199116100f2578063558151991461023a5780635ca9e3801461027757806364881791146102b957806372af7ea2146102e25780638da5cb5b146103225761012a565b806311a003271461012f5780631ce9b1ca146101585780632f54bf6e146101955780634209fff1146101d25780634c22c1191461020f575b600080fd5b34801561013b57600080fd5b506101566004803603810190610151919061211f565b61057d565b005b34801561016457600080fd5b5061017f600480360381019061017a919061211f565b610851565b60405161018c919061215b565b60405180910390f35b3480156101a157600080fd5b506101bc60048036038101906101b791906121d4565b610875565b6040516101c9919061221c565b60405180910390f35b3480156101de57600080fd5b506101f960048036038101906101f491906121d4565b6108ce565b604051610206919061221c565b60405180910390f35b34801561021b57600080fd5b5061022461091c565b604051610231919061221c565b60405180910390f35b34801561024657600080fd5b50610261600480360381019061025c919061211f565b61092c565b60405161026e919061215b565b60405180910390f35b34801561028357600080fd5b5061029e6004803603810190610299919061211f565b610950565b6040516102b0969594939291906122d0565b60405180910390f35b3480156102c557600080fd5b506102e060048036038101906102db9190612474565b610a9c565b005b3480156102ee57600080fd5b506103096004803603810190610304919061211f565b610c9a565b6040516103199493929190612543565b60405180910390f35b34801561032e57600080fd5b50610337610e79565b60405161034491906125b7565b60405180910390f35b34801561035957600080fd5b50610362610e9d565b60405161036f919061221c565b60405180910390f35b34801561038457600080fd5b5061039f600480360381019061039a91906125d2565b610ead565b6040516103ac919061215b565b60405180910390f35b3480156103c157600080fd5b506103dc60048036038101906103d79190612639565b611050565b6040516103e9919061215b565b60405180910390f35b3480156103fe57600080fd5b506104196004803603810190610414919061211f565b611254565b60405161042b969594939291906126e7565b60405180910390f35b34801561044057600080fd5b5061045b600480360381019061045691906121d4565b6112b0565b60405161046f989796959493929190612748565b60405180910390f35b34801561048457600080fd5b5061048d6114bd565b60405161049a919061215b565b60405180910390f35b3480156104af57600080fd5b506104ca60048036038101906104c591906127db565b6114c3565b005b3480156104d857600080fd5b506104f360048036038101906104ee919061211f565b6117b0565b60405161050495949392919061288e565b60405180910390f35b610527600480360381019061052291906128e1565b6118d5565b005b34801561053557600080fd5b5061053e611c63565b60405161054b919061215b565b60405180910390f35b34801561056057600080fd5b5061057b6004803603810190610576919061211f565b611c69565b005b610585610e9d565b6105c4576040517f08c379a00000000000000000000000000000000000000000000000000000000081526004016105bb90612993565b60405180910390fd5b6000600460008381526020019081526020016000206040518060c0016040529081600082015481526020016001820154815260200160028201548152602001600382015481526020016004820160009054906101000a900473ffffffffffffffffffffffffffffffffffffffff1673ffffffffffffffffffffffffffffffffffffffff1673ffffffffffffffffffffffffffffffffffffffff168152602001600582015481525050905060018160000151146106b5576040517f08c379a00000000000000000000000000000000000000000000000000000000081526004016106ac906129ff565b60405180910390fd5b6000816000018181525050600460008381526020019081526020016000206000808201600090556001820160009055600282016000905560038201600090556004820160006101000a81549073ffffffffffffffffffffffffffffffffffffffff02191690556005820160009055505060005b60068054905081101561077357826006828154811061074a57610749612a1f565b5b9060005260206000200154141561076057610773565b808061076b90612a7d565b915050610728565b5b60016006805490506107869190612ac6565b8110156107ed57600660018261079c9190612afa565b815481106107ad576107ac612a1f565b5b9060005260206000200154600682815481106107cc576107cb612a1f565b5b906000526020600020018190555080806107e590612a7d565b915050610774565b60068054806107ff576107fe612b50565b5b600190038181906000526020600020016000905590557fbd000546857b596b03c884060c13e7d8c7a7ce52366d2f116f76688e6f000f6683604051610844919061215b565b60405180910390a1505050565b6007818154811061086157600080fd5b906000526020600020016000915090505481565b60008060009054906101000a900473ffffffffffffffffffffffffffffffffffffffff1673ffffffffffffffffffffffffffffffffffffffff168273ffffffffffffffffffffffffffffffffffffffff16149050919050565b600060018060008473ffffffffffffffffffffffffffffffffffffffff1673ffffffffffffffffffffffffffffffffffffffff16815260200190815260200160002060000154149050919050565b6000610927336108ce565b905090565b6006818154811061093c57600080fd5b906000526020600020016000915090505481565b600560205280600052604060002060009150905080600001549080600101549080600201805461097f90612bae565b80601f01602080910402602001604051908101604052809291908181526020018280546109ab90612bae565b80156109f85780601f106109cd576101008083540402835291602001916109f8565b820191906000526020600020905b8154815290600101906020018083116109db57829003601f168201915b505050505090806003018054610a0d90612bae565b80601f0160208091040260200160405190810160405280929190818152602001828054610a3990612bae565b8015610a865780601f10610a5b57610100808354040283529160200191610a86565b820191906000526020600020905b815481529060010190602001808311610a6957829003601f168201915b5050505050908060040154908060050154905086565b610aa461091c565b15610ae4576040517f08c379a0000000000000000000000000000000000000000000000000000000008152600401610adb90612c2c565b60405180910390fd5b604051806101000160405280600181526020013373ffffffffffffffffffffffffffffffffffffffff168152602001868152602001858152602001848152602001838152602001828152602001610b39610e9d565b1515815250600160003373ffffffffffffffffffffffffffffffffffffffff1673ffffffffffffffffffffffffffffffffffffffff1681526020019081526020016000206000820151816000015560208201518160010160006101000a81548173ffffffffffffffffffffffffffffffffffffffff021916908373ffffffffffffffffffffffffffffffffffffffff1602179055506040820151816002019080519060200190610bea929190611ff2565b506060820151816003019080519060200190610c07929190611ff2565b506080820151816004015560a0820151816005015560c0820151816006019080519060200190610c38929190611ff2565b5060e08201518160070160006101000a81548160ff0219169083151502179055509050507f478f5152d8fc568db3f8de9fb402fd9d98a1a7541ecfe434e59cf574fbfc552433604051610c8b9190612c4c565b60405180910390a15050505050565b6060806000806000600560008781526020019081526020016000206040518060c00160405290816000820154815260200160018201548152602001600282018054610ce490612bae565b80601f0160208091040260200160405190810160405280929190818152602001828054610d1090612bae565b8015610d5d5780601f10610d3257610100808354040283529160200191610d5d565b820191906000526020600020905b815481529060010190602001808311610d4057829003601f168201915b50505050508152602001600382018054610d7690612bae565b80601f0160208091040260200160405190810160405280929190818152602001828054610da290612bae565b8015610def5780601f10610dc457610100808354040283529160200191610def565b820191906000526020600020905b815481529060010190602001808311610dd257829003601f168201915b505050505081526020016004820154815260200160058201548152505090506001816000015114610e55576040517f08c379a0000000000000000000000000000000000000000000000000000000008152600401610e4c90612cb3565b60405180910390fd5b8060400151816060015182608001518360a001519450945094509450509193509193565b60008054906101000a900473ffffffffffffffffffffffffffffffffffffffff1681565b6000610ea833610875565b905090565b6000610eb7610e9d565b610ef6576040517f08c379a0000000000000000000000000000000000000000000000000000000008152600401610eed90612993565b60405180910390fd5b6040518060c00160405280600181526020018681526020018581526020018481526020018373ffffffffffffffffffffffffffffffffffffffff168152602001428152506004600060035481526020019081526020016000206000820151816000015560208201518160010155604082015181600201556060820151816003015560808201518160040160006101000a81548173ffffffffffffffffffffffffffffffffffffffff021916908373ffffffffffffffffffffffffffffffffffffffff16021790555060a08201518160050155905050600660035490806001815401808255809150506001900390600052602060002001600090919091909150557f2f539bcf68b0eef24f9fef1ae5ad7dd5a37f80a2fab34f406ad2b92c779d6064600354604051611027919061215b565b60405180910390a16003600081548092919061104290612a7d565b919050559050949350505050565b600061105a610e9d565b611099576040517f08c379a000000000000000000000000000000000000000000000000000000000815260040161109090612993565b60405180910390fd5b8260008110156110de576040517f08c379a00000000000000000000000000000000000000000000000000000000081526004016110d590612d1f565b60405180910390fd5b826000811015611123576040517f08c379a000000000000000000000000000000000000000000000000000000000815260040161111a90612d1f565b60405180910390fd5b6040518060c001604052806001815260200160025481526020018881526020018781526020018681526020018581525060056000600254815260200190815260200160002060008201518160000155602082015181600101556040820151816002019080519060200190611198929190611ff2565b5060608201518160030190805190602001906111b5929190611ff2565b506080820151816004015560a08201518160050155905050600760025490806001815401808255809150506001900390600052602060002001600090919091909150557f1bcba37a1a4b522b287291c39323a9beb282280f80a06dfcc06660a46fd71dba600254604051611229919061215b565b60405180910390a16002600081548092919061124490612a7d565b9190505592505050949350505050565b60046020528060005260406000206000915090508060000154908060010154908060020154908060030154908060040160009054906101000a900473ffffffffffffffffffffffffffffffffffffffff16908060050154905086565b60016020528060005260406000206000915090508060000154908060010160009054906101000a900473ffffffffffffffffffffffffffffffffffffffff16908060020180546112ff90612bae565b80601f016020809104026020016040519081016040528092919081815260200182805461132b90612bae565b80156113785780601f1061134d57610100808354040283529160200191611378565b820191906000526020600020905b81548152906001019060200180831161135b57829003601f168201915b50505050509080600301805461138d90612bae565b80601f01602080910402602001604051908101604052809291908181526020018280546113b990612bae565b80156114065780601f106113db57610100808354040283529160200191611406565b820191906000526020600020905b8154815290600101906020018083116113e957829003601f168201915b50505050509080600401549080600501549080600601805461142790612bae565b80601f016020809104026020016040519081016040528092919081815260200182805461145390612bae565b80156114a05780601f10611475576101008083540402835291602001916114a0565b820191906000526020600020905b81548152906001019060200180831161148357829003601f168201915b5050505050908060070160009054906101000a900460ff16905088565b60035481565b6114cb610e9d565b61150a576040517f08c379a000000000000000000000000000000000000000000000000000000000815260040161150190612993565b60405180910390fd5b81600081101561154f576040517f08c379a000000000000000000000000000000000000000000000000000000000815260040161154690612d1f565b60405180910390fd5b816000811015611594576040517f08c379a000000000000000000000000000000000000000000000000000000000815260040161158b90612d1f565b60405180910390fd5b6000600560008981526020019081526020016000206040518060c001604052908160008201548152602001600182015481526020016002820180546115d890612bae565b80601f016020809104026020016040519081016040528092919081815260200182805461160490612bae565b80156116515780601f1061162657610100808354040283529160200191611651565b820191906000526020600020905b81548152906001019060200180831161163457829003601f168201915b5050505050815260200160038201805461166a90612bae565b80601f016020809104026020016040519081016040528092919081815260200182805461169690612bae565b80156116e35780601f106116b8576101008083540402835291602001916116e3565b820191906000526020600020905b8154815290600101906020018083116116c657829003601f168201915b505050505081526020016004820154815260200160058201548152505090506001816000015114611749576040517f08c379a000000000000000000000000000000000000000000000000000000000815260040161174090612cb3565b60405180910390fd5b86816040018190525085816060018190525084816080018181525050838160a00181815250507f97361b1697ad3a1a82fcf3afa0b80fecf9407859d7ef80aede71a02884fc384c8860405161179e919061215b565b60405180910390a15050505050505050565b600080600080600080600460008881526020019081526020016000206040518060c0016040529081600082015481526020016001820154815260200160028201548152602001600382015481526020016004820160009054906101000a900473ffffffffffffffffffffffffffffffffffffffff1673ffffffffffffffffffffffffffffffffffffffff1673ffffffffffffffffffffffffffffffffffffffff168152602001600582015481525050905060018160000151146118a8576040517f08c379a000000000000000000000000000000000000000000000000000000000815260040161189f906129ff565b60405180910390fd5b80602001518160400151826060015183608001518460a00151955095509550955095505091939590929450565b6118dd61091c565b61191c576040517f08c379a000000000000000000000000000000000000000000000000000000000815260040161191390612d8b565b60405180910390fd5b8060008111611960576040517f08c379a000000000000000000000000000000000000000000000000000000000815260040161195790612df7565b60405180910390fd5b6000600560008581526020019081526020016000206040518060c001604052908160008201548152602001600182015481526020016002820180546119a490612bae565b80601f01602080910402602001604051908101604052809291908181526020018280546119d090612bae565b8015611a1d5780601f106119f257610100808354040283529160200191611a1d565b820191906000526020600020905b815481529060010190602001808311611a0057829003601f168201915b50505050508152602001600382018054611a3690612bae565b80601f0160208091040260200160405190810160405280929190818152602001828054611a6290612bae565b8015611aaf5780601f10611a8457610100808354040283529160200191611aaf565b820191906000526020600020905b815481529060010190602001808311611a9257829003601f168201915b505050505081526020016004820154815260200160058201548152505090506001816000015114611b15576040517f08c379a0000000000000000000000000000000000000000000000000000000008152600401611b0c90612cb3565b60405180910390fd5b828160a001511015611b5c576040517f08c379a0000000000000000000000000000000000000000000000000000000008152600401611b5390612e89565b60405180910390fd5b6000838260800151611b6e9190612ea9565b9050803414611bb2576040517f08c379a0000000000000000000000000000000000000000000000000000000008152600401611ba990612f75565b60405180910390fd5b3373ffffffffffffffffffffffffffffffffffffffff166108fc829081150290604051600060405180830381858888f19350505050158015611bf8573d6000803e3d6000fd5b50838260a001818151611c0b9190612ac6565b915081815250507ff6dfe3265343a31f549b8db6595d805aa696facc9647fbbc4964af02f4be415785858333604051611c479493929190612f95565b60405180910390a1611c5b85858333610ead565b505050505050565b60025481565b611c71610e9d565b611cb0576040517f08c379a0000000000000000000000000000000000000000000000000000000008152600401611ca790612993565b60405180910390fd5b6000600560008381526020019081526020016000206040518060c00160405290816000820154815260200160018201548152602001600282018054611cf490612bae565b80601f0160208091040260200160405190810160405280929190818152602001828054611d2090612bae565b8015611d6d5780601f10611d4257610100808354040283529160200191611d6d565b820191906000526020600020905b815481529060010190602001808311611d5057829003601f168201915b50505050508152602001600382018054611d8690612bae565b80601f0160208091040260200160405190810160405280929190818152602001828054611db290612bae565b8015611dff5780601f10611dd457610100808354040283529160200191611dff565b820191906000526020600020905b815481529060010190602001808311611de257829003601f168201915b505050505081526020016004820154815260200160058201548152505090506001816000015114611e65576040517f08c379a0000000000000000000000000000000000000000000000000000000008152600401611e5c90612cb3565b60405180910390fd5b6000816000018181525050600560008381526020019081526020016000206000808201600090556001820160009055600282016000611ea49190612078565b600382016000611eb49190612078565b60048201600090556005820160009055505060005b600780549050811015611f14578260078281548110611eeb57611eea612a1f565b5b90600052602060002001541415611f0157611f14565b8080611f0c90612a7d565b915050611ec9565b5b6001600780549050611f279190612ac6565b811015611f8e576007600182611f3d9190612afa565b81548110611f4e57611f4d612a1f565b5b906000526020600020015460078281548110611f6d57611f6c612a1f565b5b90600052602060002001819055508080611f8690612a7d565b915050611f15565b6007805480611fa057611f9f612b50565b5b600190038181906000526020600020016000905590557f5e594568675a7ff56299991250b9ee2a369d3f48d6ce689ebfef825886aa048083604051611fe5919061215b565b60405180910390a1505050565b828054611ffe90612bae565b90600052602060002090601f0160209004810192826120205760008555612067565b82601f1061203957805160ff1916838001178555612067565b82800160010185558215612067579182015b8281111561206657825182559160200191906001019061204b565b5b50905061207491906120b8565b5090565b50805461208490612bae565b6000825580601f1061209657506120b5565b601f0160209004906000526020600020908101906120b491906120b8565b5b50565b5b808211156120d15760008160009055506001016120b9565b5090565b6000604051905090565b600080fd5b600080fd5b6000819050919050565b6120fc816120e9565b811461210757600080fd5b50565b600081359050612119816120f3565b92915050565b600060208284031215612135576121346120df565b5b60006121438482850161210a565b91505092915050565b612155816120e9565b82525050565b6000602082019050612170600083018461214c565b92915050565b600073ffffffffffffffffffffffffffffffffffffffff82169050919050565b60006121a182612176565b9050919050565b6121b181612196565b81146121bc57600080fd5b50565b6000813590506121ce816121a8565b92915050565b6000602082840312156121ea576121e96120df565b5b60006121f8848285016121bf565b91505092915050565b60008115159050919050565b61221681612201565b82525050565b6000602082019050612231600083018461220d565b92915050565b600081519050919050565b600082825260208201905092915050565b60005b83811015612271578082015181840152602081019050612256565b83811115612280576000848401525b50505050565b6000601f19601f8301169050919050565b60006122a282612237565b6122ac8185612242565b93506122bc818560208601612253565b6122c581612286565b840191505092915050565b600060c0820190506122e5600083018961214c565b6122f2602083018861214c565b81810360408301526123048187612297565b905081810360608301526123188186612297565b9050612327608083018561214c565b61233460a083018461214c565b979650505050505050565b600080fd5b600080fd5b7f4e487b7100000000000000000000000000000000000000000000000000000000600052604160045260246000fd5b61238182612286565b810181811067ffffffffffffffff821117156123a05761239f612349565b5b80604052505050565b60006123b36120d5565b90506123bf8282612378565b919050565b600067ffffffffffffffff8211156123df576123de612349565b5b6123e882612286565b9050602081019050919050565b82818337600083830152505050565b6000612417612412846123c4565b6123a9565b90508281526020810184848401111561243357612432612344565b5b61243e8482856123f5565b509392505050565b600082601f83011261245b5761245a61233f565b5b813561246b848260208601612404565b91505092915050565b600080600080600060a086880312156124905761248f6120df565b5b600086013567ffffffffffffffff8111156124ae576124ad6120e4565b5b6124ba88828901612446565b955050602086013567ffffffffffffffff8111156124db576124da6120e4565b5b6124e788828901612446565b94505060406124f88882890161210a565b93505060606125098882890161210a565b925050608086013567ffffffffffffffff81111561252a576125296120e4565b5b61253688828901612446565b9150509295509295909350565b6000608082019050818103600083015261255d8187612297565b905081810360208301526125718186612297565b9050612580604083018561214c565b61258d606083018461214c565b95945050505050565b60006125a182612176565b9050919050565b6125b181612596565b82525050565b60006020820190506125cc60008301846125a8565b92915050565b600080600080608085870312156125ec576125eb6120df565b5b60006125fa8782880161210a565b945050602061260b8782880161210a565b935050604061261c8782880161210a565b925050606061262d878288016121bf565b91505092959194509250565b60008060008060808587031215612653576126526120df565b5b600085013567ffffffffffffffff811115612671576126706120e4565b5b61267d87828801612446565b945050602085013567ffffffffffffffff81111561269e5761269d6120e4565b5b6126aa87828801612446565b93505060406126bb8782880161210a565b92505060606126cc8782880161210a565b91505092959194509250565b6126e181612196565b82525050565b600060c0820190506126fc600083018961214c565b612709602083018861214c565b612716604083018761214c565b612723606083018661214c565b61273060808301856126d8565b61273d60a083018461214c565b979650505050505050565b60006101008201905061275e600083018b61214c565b61276b602083018a6126d8565b818103604083015261277d8189612297565b905081810360608301526127918188612297565b90506127a0608083018761214c565b6127ad60a083018661214c565b81810360c08301526127bf8185612297565b90506127ce60e083018461220d565b9998505050505050505050565b600080600080600060a086880312156127f7576127f66120df565b5b60006128058882890161210a565b955050602086013567ffffffffffffffff811115612826576128256120e4565b5b61283288828901612446565b945050604086013567ffffffffffffffff811115612853576128526120e4565b5b61285f88828901612446565b93505060606128708882890161210a565b92505060806128818882890161210a565b9150509295509295909350565b600060a0820190506128a3600083018861214c565b6128b0602083018761214c565b6128bd604083018661214c565b6128ca60608301856126d8565b6128d7608083018461214c565b9695505050505050565b600080604083850312156128f8576128f76120df565b5b60006129068582860161210a565b92505060206129178582860161210a565b9150509250929050565b7f546869732066756e6374696f6e206973207265737472696374656420746f207460008201527f686520636f6e74726163742773206f776e657200000000000000000000000000602082015250565b600061297d603383612242565b915061298882612921565b604082019050919050565b600060208201905081810360008301526129ac81612970565b9050919050565b7f5468657265206973206e6f2073756368206f7264657200000000000000000000600082015250565b60006129e9601683612242565b91506129f4826129b3565b602082019050919050565b60006020820190508181036000830152612a18816129dc565b9050919050565b7f4e487b7100000000000000000000000000000000000000000000000000000000600052603260045260246000fd5b7f4e487b7100000000000000000000000000000000000000000000000000000000600052601160045260246000fd5b6000612a88826120e9565b91507fffffffffffffffffffffffffffffffffffffffffffffffffffffffffffffffff821415612abb57612aba612a4e565b5b600182019050919050565b6000612ad1826120e9565b9150612adc836120e9565b925082821015612aef57612aee612a4e565b5b828203905092915050565b6000612b05826120e9565b9150612b10836120e9565b9250827fffffffffffffffffffffffffffffffffffffffffffffffffffffffffffffffff03821115612b4557612b44612a4e565b5b828201905092915050565b7f4e487b7100000000000000000000000000000000000000000000000000000000600052603160045260246000fd5b7f4e487b7100000000000000000000000000000000000000000000000000000000600052602260045260246000fd5b60006002820490506001821680612bc657607f821691505b60208210811415612bda57612bd9612b7f565b5b50919050565b7f596f752061726520616c72656164792072656769737465726564000000000000600082015250565b6000612c16601a83612242565b9150612c2182612be0565b602082019050919050565b60006020820190508181036000830152612c4581612c09565b9050919050565b6000602082019050612c6160008301846126d8565b92915050565b7f5468657265206973206e6f20737563682073686f70206974656d000000000000600082015250565b6000612c9d601a83612242565b9150612ca882612c67565b602082019050919050565b60006020820190508181036000830152612ccc81612c90565b9050919050565b7f4e756d6265722063616e74206265206e65676174697665000000000000000000600082015250565b6000612d09601783612242565b9150612d1482612cd3565b602082019050919050565b60006020820190508181036000830152612d3881612cfc565b9050919050565b7f596f75206e65656420746f207265676973746572206669727374000000000000600082015250565b6000612d75601a83612242565b9150612d8082612d3f565b602082019050919050565b60006020820190508181036000830152612da481612d68565b9050919050565b7f4e756d626572206d7573742062652067726561746572207468616e2030000000600082015250565b6000612de1601d83612242565b9150612dec82612dab565b602082019050919050565b60006020820190508181036000830152612e1081612dd4565b9050919050565b7f5468657265206973206e6f7420656e6f75676820696e2074686520696e76656e60008201527f746f727900000000000000000000000000000000000000000000000000000000602082015250565b6000612e73602483612242565b9150612e7e82612e17565b604082019050919050565b60006020820190508181036000830152612ea281612e66565b9050919050565b6000612eb4826120e9565b9150612ebf836120e9565b9250817fffffffffffffffffffffffffffffffffffffffffffffffffffffffffffffffff0483118215151615612ef857612ef7612a4e565b5b828202905092915050565b7f596f75206e65656420746f2073656e642074686520657861637420616d6f756e60008201527f74206f6620776569000000000000000000000000000000000000000000000000602082015250565b6000612f5f602883612242565b9150612f6a82612f03565b604082019050919050565b60006020820190508181036000830152612f8e81612f52565b9050919050565b6000608082019050612faa600083018761214c565b612fb7602083018661214c565b612fc4604083018561214c565b612fd160608301846126d8565b9594505050505056fea26469706673582212200e090e002a8021e37504bf5a75144794de38ad3049bec9692269709d6cf36ed564736f6c634300080a0033",
  "immutableReferences": {},
  "source": "pragma solidity >=0.7.0 <0.9.0;\r\n\r\nimport \"./ManageShop.sol\";\r\n\r\ncontract Shop is ManageShop {\r\n\r\n    event BoughtItem(uint itemId, uint amount, uint cost, address userAddress);\r\n\r\n    function buy(uint itemId, uint amount) public payable onlyUser greaterThanZero(amount) {\r\n        Shared.ShopItem memory item = shopItems[itemId];\r\n        require(item.flag == 1, \"There is no such shop item\");\r\n        require(item.inventory >= amount, \"There is not enough in the inventory\");\r\n\r\n        uint finalCost = item.cost * amount;\r\n        require(msg.value == finalCost, \"You need to send the exact amount of wei\");\r\n        payable(msg.sender).transfer(finalCost);\r\n\r\n        item.inventory -= amount;\r\n\r\n        emit BoughtItem(itemId, amount, finalCost, msg.sender);\r\n        ManageShop.createOrder(itemId, amount, finalCost, msg.sender);\r\n    }\r\n}",
  "sourcePath": "D:\\Users\\Alex\\Desktop\\simple-shop-dapp\\truffle\\contracts\\Shop.sol",
  "compiler": {
    "name": "solc",
    "version": "0.8.10+commit.fc410830.Emscripten.clang"
  },
  "schemaVersion": "3.4.4",
  "updatedAt": "2022-01-09T16:35:09.498Z",
  "networkType": "ethereum",
  "devdoc": {
    "kind": "dev",
    "methods": {},
    "version": 1
  },
  "userdoc": {
    "kind": "user",
    "methods": {},
    "version": 1
  }
}