{
  "contractName": "Shop",
  "abi": [
    {
      "anonymous": false,
      "inputs": [
        {
          "indexed": false,
          "internalType": "uint256",
          "name": "id",
          "type": "uint256"
        }
      ],
      "name": "AddShopItem",
      "type": "event"
    },
    {
      "anonymous": false,
      "inputs": [
        {
          "indexed": false,
          "internalType": "uint256",
          "name": "itemId",
          "type": "uint256"
        },
        {
          "indexed": false,
          "internalType": "uint256",
          "name": "amount",
          "type": "uint256"
        },
        {
          "indexed": false,
          "internalType": "uint256",
          "name": "cost",
          "type": "uint256"
        },
        {
          "indexed": false,
          "internalType": "address",
          "name": "userAddress",
          "type": "address"
        }
      ],
      "name": "BoughtItem",
      "type": "event"
    },
    {
      "anonymous": false,
      "inputs": [
        {
          "indexed": false,
          "internalType": "uint256",
          "name": "id",
          "type": "uint256"
        }
      ],
      "name": "DeleteShopItem",
      "type": "event"
    },
    {
      "anonymous": false,
      "inputs": [
        {
          "indexed": false,
          "internalType": "uint256",
          "name": "id",
          "type": "uint256"
        }
      ],
      "name": "EditShopItem",
      "type": "event"
    },
    {
      "anonymous": false,
      "inputs": [
        {
          "indexed": false,
          "internalType": "address",
          "name": "userAddress",
          "type": "address"
        }
      ],
      "name": "Registration",
      "type": "event"
    },
    {
      "inputs": [
        {
          "internalType": "string",
          "name": "title",
          "type": "string"
        },
        {
          "internalType": "string",
          "name": "description",
          "type": "string"
        },
        {
          "internalType": "uint256",
          "name": "cost",
          "type": "uint256"
        },
        {
          "internalType": "uint256",
          "name": "inventory",
          "type": "uint256"
        }
      ],
      "name": "addShopItem",
      "outputs": [
        {
          "internalType": "uint256",
          "name": "",
          "type": "uint256"
        }
      ],
      "stateMutability": "nonpayable",
      "type": "function"
    },
    {
      "inputs": [
        {
          "internalType": "uint256",
          "name": "id",
          "type": "uint256"
        }
      ],
      "name": "deleteShopItem",
      "outputs": [],
      "stateMutability": "nonpayable",
      "type": "function"
    },
    {
      "inputs": [
        {
          "internalType": "uint256",
          "name": "id",
          "type": "uint256"
        },
        {
          "internalType": "string",
          "name": "title",
          "type": "string"
        },
        {
          "internalType": "string",
          "name": "description",
          "type": "string"
        },
        {
          "internalType": "uint256",
          "name": "cost",
          "type": "uint256"
        },
        {
          "internalType": "uint256",
          "name": "inventory",
          "type": "uint256"
        }
      ],
      "name": "editShopItem",
      "outputs": [],
      "stateMutability": "nonpayable",
      "type": "function"
    },
    {
      "inputs": [
        {
          "internalType": "uint256",
          "name": "id",
          "type": "uint256"
        }
      ],
      "name": "getShopItem",
      "outputs": [
        {
          "internalType": "string",
          "name": "",
          "type": "string"
        },
        {
          "internalType": "string",
          "name": "",
          "type": "string"
        },
        {
          "internalType": "uint256",
          "name": "",
          "type": "uint256"
        },
        {
          "internalType": "uint256",
          "name": "",
          "type": "uint256"
        }
      ],
      "stateMutability": "view",
      "type": "function",
      "constant": true
    },
    {
      "inputs": [],
      "name": "idCounter",
      "outputs": [
        {
          "internalType": "uint256",
          "name": "",
          "type": "uint256"
        }
      ],
      "stateMutability": "view",
      "type": "function",
      "constant": true
    },
    {
      "inputs": [
        {
          "internalType": "address",
          "name": "checkUser",
          "type": "address"
        }
      ],
      "name": "isOwner",
      "outputs": [
        {
          "internalType": "bool",
          "name": "isOwnerIndeed",
          "type": "bool"
        }
      ],
      "stateMutability": "view",
      "type": "function",
      "constant": true
    },
    {
      "inputs": [],
      "name": "isOwner",
      "outputs": [
        {
          "internalType": "bool",
          "name": "isOwnerIndeed",
          "type": "bool"
        }
      ],
      "stateMutability": "view",
      "type": "function",
      "constant": true
    },
    {
      "inputs": [
        {
          "internalType": "address",
          "name": "checkUser",
          "type": "address"
        }
      ],
      "name": "isUser",
      "outputs": [
        {
          "internalType": "bool",
          "name": "isUserIndeed",
          "type": "bool"
        }
      ],
      "stateMutability": "view",
      "type": "function",
      "constant": true
    },
    {
      "inputs": [],
      "name": "isUser",
      "outputs": [
        {
          "internalType": "bool",
          "name": "isUserIndeed",
          "type": "bool"
        }
      ],
      "stateMutability": "view",
      "type": "function",
      "constant": true
    },
    {
      "inputs": [],
      "name": "owner",
      "outputs": [
        {
          "internalType": "address payable",
          "name": "",
          "type": "address"
        }
      ],
      "stateMutability": "view",
      "type": "function",
      "constant": true
    },
    {
      "inputs": [
        {
          "internalType": "string",
          "name": "name",
          "type": "string"
        },
        {
          "internalType": "string",
          "name": "street",
          "type": "string"
        },
        {
          "internalType": "uint256",
          "name": "number",
          "type": "uint256"
        },
        {
          "internalType": "uint256",
          "name": "postal",
          "type": "uint256"
        },
        {
          "internalType": "string",
          "name": "city",
          "type": "string"
        }
      ],
      "name": "register",
      "outputs": [],
      "stateMutability": "nonpayable",
      "type": "function"
    },
    {
      "inputs": [
        {
          "internalType": "uint256",
          "name": "",
          "type": "uint256"
        }
      ],
      "name": "shopItemIndexes",
      "outputs": [
        {
          "internalType": "uint256",
          "name": "",
          "type": "uint256"
        }
      ],
      "stateMutability": "view",
      "type": "function",
      "constant": true
    },
    {
      "inputs": [
        {
          "internalType": "uint256",
          "name": "",
          "type": "uint256"
        }
      ],
      "name": "shopItems",
      "outputs": [
        {
          "internalType": "uint256",
          "name": "flag",
          "type": "uint256"
        },
        {
          "internalType": "uint256",
          "name": "id",
          "type": "uint256"
        },
        {
          "internalType": "string",
          "name": "title",
          "type": "string"
        },
        {
          "internalType": "string",
          "name": "description",
          "type": "string"
        },
        {
          "internalType": "uint256",
          "name": "cost",
          "type": "uint256"
        },
        {
          "internalType": "uint256",
          "name": "inventory",
          "type": "uint256"
        }
      ],
      "stateMutability": "view",
      "type": "function",
      "constant": true
    },
    {
      "inputs": [
        {
          "internalType": "address",
          "name": "",
          "type": "address"
        }
      ],
      "name": "users",
      "outputs": [
        {
          "internalType": "uint256",
          "name": "flag",
          "type": "uint256"
        },
        {
          "internalType": "address",
          "name": "userAddress",
          "type": "address"
        },
        {
          "internalType": "string",
          "name": "name",
          "type": "string"
        },
        {
          "internalType": "string",
          "name": "street",
          "type": "string"
        },
        {
          "internalType": "uint256",
          "name": "number",
          "type": "uint256"
        },
        {
          "internalType": "uint256",
          "name": "postal",
          "type": "uint256"
        },
        {
          "internalType": "string",
          "name": "city",
          "type": "string"
        },
        {
          "internalType": "bool",
          "name": "isOwner",
          "type": "bool"
        }
      ],
      "stateMutability": "view",
      "type": "function",
      "constant": true
    },
    {
      "inputs": [
        {
          "internalType": "uint256",
          "name": "itemId",
          "type": "uint256"
        },
        {
          "internalType": "uint256",
          "name": "amount",
          "type": "uint256"
        }
      ],
      "name": "buy",
      "outputs": [],
      "stateMutability": "payable",
      "type": "function",
      "payable": true
    }
  ],
  "bytecode": "0x6080604052336000806101000a81548173ffffffffffffffffffffffffffffffffffffffff021916908373ffffffffffffffffffffffffffffffffffffffff160217905550600160025534801561005557600080fd5b506126c7806100656000396000f3fe6080604052600436106100e85760003560e01c80638da5cb5b1161008a578063cf58ad8811610059578063cf58ad8814610351578063d6febde81461037a578063eb08ab2814610396578063f08aef0d146103c1576100e8565b80638da5cb5b1461027a5780638f32d59b146102a5578063a33282e4146102d0578063a87430ba1461030d576100e8565b80634c22c119116100c65780634c22c119146101a45780635ca9e380146101cf578063648817911461021157806372af7ea21461023a576100e8565b80631ce9b1ca146100ed5780632f54bf6e1461012a5780634209fff114610167575b600080fd5b3480156100f957600080fd5b50610114600480360381019061010f919061195d565b6103ea565b6040516101219190611999565b60405180910390f35b34801561013657600080fd5b50610151600480360381019061014c9190611a12565b61040e565b60405161015e9190611a5a565b60405180910390f35b34801561017357600080fd5b5061018e60048036038101906101899190611a12565b610467565b60405161019b9190611a5a565b60405180910390f35b3480156101b057600080fd5b506101b96104b5565b6040516101c69190611a5a565b60405180910390f35b3480156101db57600080fd5b506101f660048036038101906101f1919061195d565b6104c5565b60405161020896959493929190611b0e565b60405180910390f35b34801561021d57600080fd5b5061023860048036038101906102339190611cb2565b610611565b005b34801561024657600080fd5b50610261600480360381019061025c919061195d565b61080f565b6040516102719493929190611d81565b60405180910390f35b34801561028657600080fd5b5061028f6109ee565b60405161029c9190611df5565b60405180910390f35b3480156102b157600080fd5b506102ba610a12565b6040516102c79190611a5a565b60405180910390f35b3480156102dc57600080fd5b506102f760048036038101906102f29190611e10565b610a22565b6040516103049190611999565b60405180910390f35b34801561031957600080fd5b50610334600480360381019061032f9190611a12565b610c26565b604051610348989796959493929190611ebe565b60405180910390f35b34801561035d57600080fd5b5061037860048036038101906103739190611f51565b610e33565b005b610394600480360381019061038f9190612004565b611120565b005b3480156103a257600080fd5b506103ab6114a1565b6040516103b89190611999565b60405180910390f35b3480156103cd57600080fd5b506103e860048036038101906103e3919061195d565b6114a7565b005b600481815481106103fa57600080fd5b906000526020600020016000915090505481565b60008060009054906101000a900473ffffffffffffffffffffffffffffffffffffffff1673ffffffffffffffffffffffffffffffffffffffff168273ffffffffffffffffffffffffffffffffffffffff16149050919050565b600060018060008473ffffffffffffffffffffffffffffffffffffffff1673ffffffffffffffffffffffffffffffffffffffff16815260200190815260200160002060000154149050919050565b60006104c033610467565b905090565b60036020528060005260406000206000915090508060000154908060010154908060020180546104f490612073565b80601f016020809104026020016040519081016040528092919081815260200182805461052090612073565b801561056d5780601f106105425761010080835404028352916020019161056d565b820191906000526020600020905b81548152906001019060200180831161055057829003601f168201915b50505050509080600301805461058290612073565b80601f01602080910402602001604051908101604052809291908181526020018280546105ae90612073565b80156105fb5780601f106105d0576101008083540402835291602001916105fb565b820191906000526020600020905b8154815290600101906020018083116105de57829003601f168201915b5050505050908060040154908060050154905086565b6106196104b5565b15610659576040517f08c379a0000000000000000000000000000000000000000000000000000000008152600401610650906120f1565b60405180910390fd5b604051806101000160405280600181526020013373ffffffffffffffffffffffffffffffffffffffff1681526020018681526020018581526020018481526020018381526020018281526020016106ae610a12565b1515815250600160003373ffffffffffffffffffffffffffffffffffffffff1673ffffffffffffffffffffffffffffffffffffffff1681526020019081526020016000206000820151816000015560208201518160010160006101000a81548173ffffffffffffffffffffffffffffffffffffffff021916908373ffffffffffffffffffffffffffffffffffffffff160217905550604082015181600201908051906020019061075f929190611830565b50606082015181600301908051906020019061077c929190611830565b506080820151816004015560a0820151816005015560c08201518160060190805190602001906107ad929190611830565b5060e08201518160070160006101000a81548160ff0219169083151502179055509050507f478f5152d8fc568db3f8de9fb402fd9d98a1a7541ecfe434e59cf574fbfc5524336040516108009190612111565b60405180910390a15050505050565b6060806000806000600360008781526020019081526020016000206040518060c0016040529081600082015481526020016001820154815260200160028201805461085990612073565b80601f016020809104026020016040519081016040528092919081815260200182805461088590612073565b80156108d25780601f106108a7576101008083540402835291602001916108d2565b820191906000526020600020905b8154815290600101906020018083116108b557829003601f168201915b505050505081526020016003820180546108eb90612073565b80601f016020809104026020016040519081016040528092919081815260200182805461091790612073565b80156109645780601f1061093957610100808354040283529160200191610964565b820191906000526020600020905b81548152906001019060200180831161094757829003601f168201915b5050505050815260200160048201548152602001600582015481525050905060018160000151146109ca576040517f08c379a00000000000000000000000000000000000000000000000000000000081526004016109c190612178565b60405180910390fd5b8060400151816060015182608001518360a001519450945094509450509193509193565b60008054906101000a900473ffffffffffffffffffffffffffffffffffffffff1681565b6000610a1d3361040e565b905090565b6000610a2c610a12565b610a6b576040517f08c379a0000000000000000000000000000000000000000000000000000000008152600401610a629061220a565b60405180910390fd5b826000811015610ab0576040517f08c379a0000000000000000000000000000000000000000000000000000000008152600401610aa790612276565b60405180910390fd5b826000811015610af5576040517f08c379a0000000000000000000000000000000000000000000000000000000008152600401610aec90612276565b60405180910390fd5b6040518060c001604052806001815260200160025481526020018881526020018781526020018681526020018581525060036000600254815260200190815260200160002060008201518160000155602082015181600101556040820151816002019080519060200190610b6a929190611830565b506060820151816003019080519060200190610b87929190611830565b506080820151816004015560a08201518160050155905050600460025490806001815401808255809150506001900390600052602060002001600090919091909150557f1bcba37a1a4b522b287291c39323a9beb282280f80a06dfcc06660a46fd71dba600254604051610bfb9190611999565b60405180910390a160026000815480929190610c16906122c5565b9190505592505050949350505050565b60016020528060005260406000206000915090508060000154908060010160009054906101000a900473ffffffffffffffffffffffffffffffffffffffff1690806002018054610c7590612073565b80601f0160208091040260200160405190810160405280929190818152602001828054610ca190612073565b8015610cee5780601f10610cc357610100808354040283529160200191610cee565b820191906000526020600020905b815481529060010190602001808311610cd157829003601f168201915b505050505090806003018054610d0390612073565b80601f0160208091040260200160405190810160405280929190818152602001828054610d2f90612073565b8015610d7c5780601f10610d5157610100808354040283529160200191610d7c565b820191906000526020600020905b815481529060010190602001808311610d5f57829003601f168201915b505050505090806004015490806005015490806006018054610d9d90612073565b80601f0160208091040260200160405190810160405280929190818152602001828054610dc990612073565b8015610e165780601f10610deb57610100808354040283529160200191610e16565b820191906000526020600020905b815481529060010190602001808311610df957829003601f168201915b5050505050908060070160009054906101000a900460ff16905088565b610e3b610a12565b610e7a576040517f08c379a0000000000000000000000000000000000000000000000000000000008152600401610e719061220a565b60405180910390fd5b816000811015610ebf576040517f08c379a0000000000000000000000000000000000000000000000000000000008152600401610eb690612276565b60405180910390fd5b816000811015610f04576040517f08c379a0000000000000000000000000000000000000000000000000000000008152600401610efb90612276565b60405180910390fd5b6000600360008981526020019081526020016000206040518060c00160405290816000820154815260200160018201548152602001600282018054610f4890612073565b80601f0160208091040260200160405190810160405280929190818152602001828054610f7490612073565b8015610fc15780601f10610f9657610100808354040283529160200191610fc1565b820191906000526020600020905b815481529060010190602001808311610fa457829003601f168201915b50505050508152602001600382018054610fda90612073565b80601f016020809104026020016040519081016040528092919081815260200182805461100690612073565b80156110535780601f1061102857610100808354040283529160200191611053565b820191906000526020600020905b81548152906001019060200180831161103657829003601f168201915b5050505050815260200160048201548152602001600582015481525050905060018160000151146110b9576040517f08c379a00000000000000000000000000000000000000000000000000000000081526004016110b090612178565b60405180910390fd5b86816040018190525085816060018190525084816080018181525050838160a00181815250507f97361b1697ad3a1a82fcf3afa0b80fecf9407859d7ef80aede71a02884fc384c8860405161110e9190611999565b60405180910390a15050505050505050565b6111286104b5565b611167576040517f08c379a000000000000000000000000000000000000000000000000000000000815260040161115e9061235a565b60405180910390fd5b80600081116111ab576040517f08c379a00000000000000000000000000000000000000000000000000000000081526004016111a2906123c6565b60405180910390fd5b6000600360008581526020019081526020016000206040518060c001604052908160008201548152602001600182015481526020016002820180546111ef90612073565b80601f016020809104026020016040519081016040528092919081815260200182805461121b90612073565b80156112685780601f1061123d57610100808354040283529160200191611268565b820191906000526020600020905b81548152906001019060200180831161124b57829003601f168201915b5050505050815260200160038201805461128190612073565b80601f01602080910402602001604051908101604052809291908181526020018280546112ad90612073565b80156112fa5780601f106112cf576101008083540402835291602001916112fa565b820191906000526020600020905b8154815290600101906020018083116112dd57829003601f168201915b505050505081526020016004820154815260200160058201548152505090506001816000015114611360576040517f08c379a000000000000000000000000000000000000000000000000000000000815260040161135790612178565b60405180910390fd5b828160a0015110156113a7576040517f08c379a000000000000000000000000000000000000000000000000000000000815260040161139e90612458565b60405180910390fd5b60008382608001516113b99190612478565b90508034146113fd576040517f08c379a00000000000000000000000000000000000000000000000000000000081526004016113f490612544565b60405180910390fd5b3373ffffffffffffffffffffffffffffffffffffffff166108fc829081150290604051600060405180830381858888f19350505050158015611443573d6000803e3d6000fd5b50838260a0018181516114569190612564565b915081815250507ff6dfe3265343a31f549b8db6595d805aa696facc9647fbbc4964af02f4be4157858583336040516114929493929190612598565b60405180910390a15050505050565b60025481565b6114af610a12565b6114ee576040517f08c379a00000000000000000000000000000000000000000000000000000000081526004016114e59061220a565b60405180910390fd5b6000600360008381526020019081526020016000206040518060c0016040529081600082015481526020016001820154815260200160028201805461153290612073565b80601f016020809104026020016040519081016040528092919081815260200182805461155e90612073565b80156115ab5780601f10611580576101008083540402835291602001916115ab565b820191906000526020600020905b81548152906001019060200180831161158e57829003601f168201915b505050505081526020016003820180546115c490612073565b80601f01602080910402602001604051908101604052809291908181526020018280546115f090612073565b801561163d5780601f106116125761010080835404028352916020019161163d565b820191906000526020600020905b81548152906001019060200180831161162057829003601f168201915b5050505050815260200160048201548152602001600582015481525050905060018160000151146116a3576040517f08c379a000000000000000000000000000000000000000000000000000000000815260040161169a90612178565b60405180910390fd5b60008160000181815250506003600083815260200190815260200160002060008082016000905560018201600090556002820160006116e291906118b6565b6003820160006116f291906118b6565b60048201600090556005820160009055505060005b600480549050811015611752578260048281548110611729576117286125dd565b5b9060005260206000200154141561173f57611752565b808061174a906122c5565b915050611707565b5b60016004805490506117659190612564565b8110156117cc57600460018261177b919061260c565b8154811061178c5761178b6125dd565b5b9060005260206000200154600482815481106117ab576117aa6125dd565b5b906000526020600020018190555080806117c4906122c5565b915050611753565b60048054806117de576117dd612662565b5b600190038181906000526020600020016000905590557f5e594568675a7ff56299991250b9ee2a369d3f48d6ce689ebfef825886aa0480836040516118239190611999565b60405180910390a1505050565b82805461183c90612073565b90600052602060002090601f01602090048101928261185e57600085556118a5565b82601f1061187757805160ff19168380011785556118a5565b828001600101855582156118a5579182015b828111156118a4578251825591602001919060010190611889565b5b5090506118b291906118f6565b5090565b5080546118c290612073565b6000825580601f106118d457506118f3565b601f0160209004906000526020600020908101906118f291906118f6565b5b50565b5b8082111561190f5760008160009055506001016118f7565b5090565b6000604051905090565b600080fd5b600080fd5b6000819050919050565b61193a81611927565b811461194557600080fd5b50565b60008135905061195781611931565b92915050565b6000602082840312156119735761197261191d565b5b600061198184828501611948565b91505092915050565b61199381611927565b82525050565b60006020820190506119ae600083018461198a565b92915050565b600073ffffffffffffffffffffffffffffffffffffffff82169050919050565b60006119df826119b4565b9050919050565b6119ef816119d4565b81146119fa57600080fd5b50565b600081359050611a0c816119e6565b92915050565b600060208284031215611a2857611a2761191d565b5b6000611a36848285016119fd565b91505092915050565b60008115159050919050565b611a5481611a3f565b82525050565b6000602082019050611a6f6000830184611a4b565b92915050565b600081519050919050565b600082825260208201905092915050565b60005b83811015611aaf578082015181840152602081019050611a94565b83811115611abe576000848401525b50505050565b6000601f19601f8301169050919050565b6000611ae082611a75565b611aea8185611a80565b9350611afa818560208601611a91565b611b0381611ac4565b840191505092915050565b600060c082019050611b23600083018961198a565b611b30602083018861198a565b8181036040830152611b428187611ad5565b90508181036060830152611b568186611ad5565b9050611b65608083018561198a565b611b7260a083018461198a565b979650505050505050565b600080fd5b600080fd5b7f4e487b7100000000000000000000000000000000000000000000000000000000600052604160045260246000fd5b611bbf82611ac4565b810181811067ffffffffffffffff82111715611bde57611bdd611b87565b5b80604052505050565b6000611bf1611913565b9050611bfd8282611bb6565b919050565b600067ffffffffffffffff821115611c1d57611c1c611b87565b5b611c2682611ac4565b9050602081019050919050565b82818337600083830152505050565b6000611c55611c5084611c02565b611be7565b905082815260208101848484011115611c7157611c70611b82565b5b611c7c848285611c33565b509392505050565b600082601f830112611c9957611c98611b7d565b5b8135611ca9848260208601611c42565b91505092915050565b600080600080600060a08688031215611cce57611ccd61191d565b5b600086013567ffffffffffffffff811115611cec57611ceb611922565b5b611cf888828901611c84565b955050602086013567ffffffffffffffff811115611d1957611d18611922565b5b611d2588828901611c84565b9450506040611d3688828901611948565b9350506060611d4788828901611948565b925050608086013567ffffffffffffffff811115611d6857611d67611922565b5b611d7488828901611c84565b9150509295509295909350565b60006080820190508181036000830152611d9b8187611ad5565b90508181036020830152611daf8186611ad5565b9050611dbe604083018561198a565b611dcb606083018461198a565b95945050505050565b6000611ddf826119b4565b9050919050565b611def81611dd4565b82525050565b6000602082019050611e0a6000830184611de6565b92915050565b60008060008060808587031215611e2a57611e2961191d565b5b600085013567ffffffffffffffff811115611e4857611e47611922565b5b611e5487828801611c84565b945050602085013567ffffffffffffffff811115611e7557611e74611922565b5b611e8187828801611c84565b9350506040611e9287828801611948565b9250506060611ea387828801611948565b91505092959194509250565b611eb8816119d4565b82525050565b600061010082019050611ed4600083018b61198a565b611ee1602083018a611eaf565b8181036040830152611ef38189611ad5565b90508181036060830152611f078188611ad5565b9050611f16608083018761198a565b611f2360a083018661198a565b81810360c0830152611f358185611ad5565b9050611f4460e0830184611a4b565b9998505050505050505050565b600080600080600060a08688031215611f6d57611f6c61191d565b5b6000611f7b88828901611948565b955050602086013567ffffffffffffffff811115611f9c57611f9b611922565b5b611fa888828901611c84565b945050604086013567ffffffffffffffff811115611fc957611fc8611922565b5b611fd588828901611c84565b9350506060611fe688828901611948565b9250506080611ff788828901611948565b9150509295509295909350565b6000806040838503121561201b5761201a61191d565b5b600061202985828601611948565b925050602061203a85828601611948565b9150509250929050565b7f4e487b7100000000000000000000000000000000000000000000000000000000600052602260045260246000fd5b6000600282049050600182168061208b57607f821691505b6020821081141561209f5761209e612044565b5b50919050565b7f596f752061726520616c72656164792072656769737465726564000000000000600082015250565b60006120db601a83611a80565b91506120e6826120a5565b602082019050919050565b6000602082019050818103600083015261210a816120ce565b9050919050565b60006020820190506121266000830184611eaf565b92915050565b7f5468657265206973206e6f20737563682073686f70206974656d000000000000600082015250565b6000612162601a83611a80565b915061216d8261212c565b602082019050919050565b6000602082019050818103600083015261219181612155565b9050919050565b7f546869732066756e6374696f6e206973207265737472696374656420746f207460008201527f686520636f6e74726163742773206f776e657200000000000000000000000000602082015250565b60006121f4603383611a80565b91506121ff82612198565b604082019050919050565b60006020820190508181036000830152612223816121e7565b9050919050565b7f4e756d6265722063616e74206265206e65676174697665000000000000000000600082015250565b6000612260601783611a80565b915061226b8261222a565b602082019050919050565b6000602082019050818103600083015261228f81612253565b9050919050565b7f4e487b7100000000000000000000000000000000000000000000000000000000600052601160045260246000fd5b60006122d082611927565b91507fffffffffffffffffffffffffffffffffffffffffffffffffffffffffffffffff82141561230357612302612296565b5b600182019050919050565b7f596f75206e65656420746f207265676973746572206669727374000000000000600082015250565b6000612344601a83611a80565b915061234f8261230e565b602082019050919050565b6000602082019050818103600083015261237381612337565b9050919050565b7f4e756d626572206d7573742062652067726561746572207468616e2030000000600082015250565b60006123b0601d83611a80565b91506123bb8261237a565b602082019050919050565b600060208201905081810360008301526123df816123a3565b9050919050565b7f5468657265206973206e6f7420656e6f75676820696e2074686520696e76656e60008201527f746f727900000000000000000000000000000000000000000000000000000000602082015250565b6000612442602483611a80565b915061244d826123e6565b604082019050919050565b6000602082019050818103600083015261247181612435565b9050919050565b600061248382611927565b915061248e83611927565b9250817fffffffffffffffffffffffffffffffffffffffffffffffffffffffffffffffff04831182151516156124c7576124c6612296565b5b828202905092915050565b7f596f75206e65656420746f2073656e642074686520657861637420616d6f756e60008201527f74206f6620776569000000000000000000000000000000000000000000000000602082015250565b600061252e602883611a80565b9150612539826124d2565b604082019050919050565b6000602082019050818103600083015261255d81612521565b9050919050565b600061256f82611927565b915061257a83611927565b92508282101561258d5761258c612296565b5b828203905092915050565b60006080820190506125ad600083018761198a565b6125ba602083018661198a565b6125c7604083018561198a565b6125d46060830184611eaf565b95945050505050565b7f4e487b7100000000000000000000000000000000000000000000000000000000600052603260045260246000fd5b600061261782611927565b915061262283611927565b9250827fffffffffffffffffffffffffffffffffffffffffffffffffffffffffffffffff0382111561265757612656612296565b5b828201905092915050565b7f4e487b7100000000000000000000000000000000000000000000000000000000600052603160045260246000fdfea2646970667358221220224c7b4f1ff0948d597d3b81ef5eb5d0acd23912d345f67c8e5c3aa69b4ef4ad64736f6c634300080a0033",
  "immutableReferences": {},
  "source": "pragma solidity >=0.7.0 <0.9.0;\r\n\r\nimport \"./ManageShop.sol\";\r\n\r\ncontract Shop is ManageShop {\r\n\r\n    event BoughtItem(uint itemId, uint amount, uint cost, address userAddress);\r\n\r\n    function buy(uint itemId, uint amount) public payable onlyUser greaterThanZero(amount) {\r\n        Shared.ShopItem memory item = shopItems[itemId];\r\n        require(item.flag == 1, \"There is no such shop item\");\r\n        require(item.inventory >= amount, \"There is not enough in the inventory\");\r\n\r\n        uint finalCost = item.cost * amount;\r\n        require(msg.value == finalCost, \"You need to send the exact amount of wei\");\r\n        payable(msg.sender).transfer(finalCost);\r\n\r\n        item.inventory -= amount;\r\n\r\n        emit BoughtItem(itemId, amount, finalCost, msg.sender);\r\n    }\r\n}",
  "sourcePath": "D:\\Users\\Alex\\Desktop\\simple-shop-dapp\\simple-shop-smart-contract\\contracts\\Shop.sol",
  "compiler": {
    "name": "solc",
    "version": "0.8.10+commit.fc410830.Emscripten.clang"
  },
  "schemaVersion": "3.4.4",
  "updatedAt": "2022-01-09T10:00:04.649Z",
  "networkType": "ethereum",
  "devdoc": {
    "kind": "dev",
    "methods": {},
    "version": 1
  },
  "userdoc": {
    "kind": "user",
    "methods": {},
    "version": 1
  }
}