{
  "contractName": "Shop",
  "abi": [
    {
      "anonymous": false,
      "inputs": [
        {
          "indexed": false,
          "internalType": "uint256",
          "name": "id",
          "type": "uint256"
        }
      ],
      "name": "AddShopItem",
      "type": "event"
    },
    {
      "anonymous": false,
      "inputs": [
        {
          "indexed": false,
          "internalType": "uint256",
          "name": "itemId",
          "type": "uint256"
        },
        {
          "indexed": false,
          "internalType": "uint256",
          "name": "amount",
          "type": "uint256"
        },
        {
          "indexed": false,
          "internalType": "uint256",
          "name": "cost",
          "type": "uint256"
        },
        {
          "indexed": false,
          "internalType": "address",
          "name": "userAddress",
          "type": "address"
        }
      ],
      "name": "BoughtItem",
      "type": "event"
    },
    {
      "anonymous": false,
      "inputs": [
        {
          "indexed": false,
          "internalType": "uint256",
          "name": "id",
          "type": "uint256"
        }
      ],
      "name": "CreateOrder",
      "type": "event"
    },
    {
      "anonymous": false,
      "inputs": [
        {
          "indexed": false,
          "internalType": "uint256",
          "name": "id",
          "type": "uint256"
        }
      ],
      "name": "DeleteOrder",
      "type": "event"
    },
    {
      "anonymous": false,
      "inputs": [
        {
          "indexed": false,
          "internalType": "uint256",
          "name": "id",
          "type": "uint256"
        }
      ],
      "name": "DeleteShopItem",
      "type": "event"
    },
    {
      "anonymous": false,
      "inputs": [
        {
          "indexed": false,
          "internalType": "uint256",
          "name": "id",
          "type": "uint256"
        }
      ],
      "name": "EditShopItem",
      "type": "event"
    },
    {
      "inputs": [
        {
          "internalType": "string",
          "name": "title",
          "type": "string"
        },
        {
          "internalType": "string",
          "name": "description",
          "type": "string"
        },
        {
          "internalType": "uint256",
          "name": "cost",
          "type": "uint256"
        },
        {
          "internalType": "uint256",
          "name": "inventory",
          "type": "uint256"
        }
      ],
      "name": "addShopItem",
      "outputs": [
        {
          "internalType": "uint256",
          "name": "",
          "type": "uint256"
        }
      ],
      "stateMutability": "nonpayable",
      "type": "function"
    },
    {
      "inputs": [
        {
          "internalType": "uint256",
          "name": "itemId",
          "type": "uint256"
        },
        {
          "internalType": "uint256",
          "name": "amount",
          "type": "uint256"
        },
        {
          "internalType": "uint256",
          "name": "finalCost",
          "type": "uint256"
        },
        {
          "internalType": "address",
          "name": "userAddress",
          "type": "address"
        },
        {
          "components": [
            {
              "internalType": "string",
              "name": "name",
              "type": "string"
            },
            {
              "internalType": "string",
              "name": "street",
              "type": "string"
            },
            {
              "internalType": "uint256",
              "name": "number",
              "type": "uint256"
            },
            {
              "internalType": "uint256",
              "name": "postal",
              "type": "uint256"
            },
            {
              "internalType": "string",
              "name": "city",
              "type": "string"
            }
          ],
          "internalType": "struct Shared.UserData",
          "name": "userData",
          "type": "tuple"
        }
      ],
      "name": "createOrder",
      "outputs": [
        {
          "internalType": "uint256",
          "name": "",
          "type": "uint256"
        }
      ],
      "stateMutability": "nonpayable",
      "type": "function"
    },
    {
      "inputs": [
        {
          "internalType": "uint256",
          "name": "orderId",
          "type": "uint256"
        }
      ],
      "name": "deleteOrder",
      "outputs": [],
      "stateMutability": "nonpayable",
      "type": "function"
    },
    {
      "inputs": [
        {
          "internalType": "uint256",
          "name": "id",
          "type": "uint256"
        }
      ],
      "name": "deleteShopItem",
      "outputs": [],
      "stateMutability": "nonpayable",
      "type": "function"
    },
    {
      "inputs": [
        {
          "internalType": "uint256",
          "name": "id",
          "type": "uint256"
        },
        {
          "internalType": "string",
          "name": "title",
          "type": "string"
        },
        {
          "internalType": "string",
          "name": "description",
          "type": "string"
        },
        {
          "internalType": "uint256",
          "name": "cost",
          "type": "uint256"
        },
        {
          "internalType": "uint256",
          "name": "inventory",
          "type": "uint256"
        }
      ],
      "name": "editShopItem",
      "outputs": [],
      "stateMutability": "nonpayable",
      "type": "function"
    },
    {
      "inputs": [
        {
          "internalType": "uint256",
          "name": "id",
          "type": "uint256"
        }
      ],
      "name": "getOrder",
      "outputs": [
        {
          "internalType": "uint256",
          "name": "",
          "type": "uint256"
        },
        {
          "internalType": "uint256",
          "name": "",
          "type": "uint256"
        },
        {
          "internalType": "uint256",
          "name": "",
          "type": "uint256"
        },
        {
          "internalType": "address",
          "name": "",
          "type": "address"
        },
        {
          "internalType": "uint256",
          "name": "",
          "type": "uint256"
        },
        {
          "components": [
            {
              "internalType": "string",
              "name": "name",
              "type": "string"
            },
            {
              "internalType": "string",
              "name": "street",
              "type": "string"
            },
            {
              "internalType": "uint256",
              "name": "number",
              "type": "uint256"
            },
            {
              "internalType": "uint256",
              "name": "postal",
              "type": "uint256"
            },
            {
              "internalType": "string",
              "name": "city",
              "type": "string"
            }
          ],
          "internalType": "struct Shared.UserData",
          "name": "userData",
          "type": "tuple"
        }
      ],
      "stateMutability": "view",
      "type": "function",
      "constant": true
    },
    {
      "inputs": [],
      "name": "getOrderCount",
      "outputs": [
        {
          "internalType": "uint256",
          "name": "count",
          "type": "uint256"
        }
      ],
      "stateMutability": "view",
      "type": "function",
      "constant": true
    },
    {
      "inputs": [
        {
          "internalType": "uint256",
          "name": "id",
          "type": "uint256"
        }
      ],
      "name": "getShopItem",
      "outputs": [
        {
          "internalType": "string",
          "name": "",
          "type": "string"
        },
        {
          "internalType": "string",
          "name": "",
          "type": "string"
        },
        {
          "internalType": "uint256",
          "name": "",
          "type": "uint256"
        },
        {
          "internalType": "uint256",
          "name": "",
          "type": "uint256"
        }
      ],
      "stateMutability": "view",
      "type": "function",
      "constant": true
    },
    {
      "inputs": [],
      "name": "getShopItemCount",
      "outputs": [
        {
          "internalType": "uint256",
          "name": "count",
          "type": "uint256"
        }
      ],
      "stateMutability": "view",
      "type": "function",
      "constant": true
    },
    {
      "inputs": [],
      "name": "idCounter",
      "outputs": [
        {
          "internalType": "uint256",
          "name": "",
          "type": "uint256"
        }
      ],
      "stateMutability": "view",
      "type": "function",
      "constant": true
    },
    {
      "inputs": [
        {
          "internalType": "address",
          "name": "checkUser",
          "type": "address"
        }
      ],
      "name": "isOwner",
      "outputs": [
        {
          "internalType": "bool",
          "name": "isOwnerIndeed",
          "type": "bool"
        }
      ],
      "stateMutability": "view",
      "type": "function",
      "constant": true
    },
    {
      "inputs": [],
      "name": "isOwner",
      "outputs": [
        {
          "internalType": "bool",
          "name": "isOwnerIndeed",
          "type": "bool"
        }
      ],
      "stateMutability": "view",
      "type": "function",
      "constant": true
    },
    {
      "inputs": [],
      "name": "orderIdCounter",
      "outputs": [
        {
          "internalType": "uint256",
          "name": "",
          "type": "uint256"
        }
      ],
      "stateMutability": "view",
      "type": "function",
      "constant": true
    },
    {
      "inputs": [
        {
          "internalType": "uint256",
          "name": "",
          "type": "uint256"
        }
      ],
      "name": "orderIndexes",
      "outputs": [
        {
          "internalType": "uint256",
          "name": "",
          "type": "uint256"
        }
      ],
      "stateMutability": "view",
      "type": "function",
      "constant": true
    },
    {
      "inputs": [
        {
          "internalType": "uint256",
          "name": "",
          "type": "uint256"
        }
      ],
      "name": "orders",
      "outputs": [
        {
          "internalType": "uint256",
          "name": "flag",
          "type": "uint256"
        },
        {
          "internalType": "uint256",
          "name": "itemId",
          "type": "uint256"
        },
        {
          "internalType": "uint256",
          "name": "amount",
          "type": "uint256"
        },
        {
          "internalType": "uint256",
          "name": "finalCost",
          "type": "uint256"
        },
        {
          "internalType": "address",
          "name": "userAddress",
          "type": "address"
        },
        {
          "internalType": "uint256",
          "name": "orderTime",
          "type": "uint256"
        },
        {
          "components": [
            {
              "internalType": "string",
              "name": "name",
              "type": "string"
            },
            {
              "internalType": "string",
              "name": "street",
              "type": "string"
            },
            {
              "internalType": "uint256",
              "name": "number",
              "type": "uint256"
            },
            {
              "internalType": "uint256",
              "name": "postal",
              "type": "uint256"
            },
            {
              "internalType": "string",
              "name": "city",
              "type": "string"
            }
          ],
          "internalType": "struct Shared.UserData",
          "name": "userData",
          "type": "tuple"
        }
      ],
      "stateMutability": "view",
      "type": "function",
      "constant": true
    },
    {
      "inputs": [],
      "name": "owner",
      "outputs": [
        {
          "internalType": "address payable",
          "name": "",
          "type": "address"
        }
      ],
      "stateMutability": "view",
      "type": "function",
      "constant": true
    },
    {
      "inputs": [
        {
          "internalType": "uint256",
          "name": "",
          "type": "uint256"
        }
      ],
      "name": "shopItemIndexes",
      "outputs": [
        {
          "internalType": "uint256",
          "name": "",
          "type": "uint256"
        }
      ],
      "stateMutability": "view",
      "type": "function",
      "constant": true
    },
    {
      "inputs": [
        {
          "internalType": "uint256",
          "name": "",
          "type": "uint256"
        }
      ],
      "name": "shopItems",
      "outputs": [
        {
          "internalType": "uint256",
          "name": "flag",
          "type": "uint256"
        },
        {
          "internalType": "uint256",
          "name": "id",
          "type": "uint256"
        },
        {
          "internalType": "string",
          "name": "title",
          "type": "string"
        },
        {
          "internalType": "string",
          "name": "description",
          "type": "string"
        },
        {
          "internalType": "uint256",
          "name": "cost",
          "type": "uint256"
        },
        {
          "internalType": "uint256",
          "name": "inventory",
          "type": "uint256"
        }
      ],
      "stateMutability": "view",
      "type": "function",
      "constant": true
    },
    {
      "inputs": [
        {
          "internalType": "uint256",
          "name": "itemId",
          "type": "uint256"
        },
        {
          "internalType": "uint256",
          "name": "amount",
          "type": "uint256"
        },
        {
          "components": [
            {
              "internalType": "string",
              "name": "name",
              "type": "string"
            },
            {
              "internalType": "string",
              "name": "street",
              "type": "string"
            },
            {
              "internalType": "uint256",
              "name": "number",
              "type": "uint256"
            },
            {
              "internalType": "uint256",
              "name": "postal",
              "type": "uint256"
            },
            {
              "internalType": "string",
              "name": "city",
              "type": "string"
            }
          ],
          "internalType": "struct Shared.UserData",
          "name": "userData",
          "type": "tuple"
        }
      ],
      "name": "buy",
      "outputs": [],
      "stateMutability": "payable",
      "type": "function",
      "payable": true
    }
  ],
  "bytecode": "0x6080604052336000806101000a81548173ffffffffffffffffffffffffffffffffffffffff021916908373ffffffffffffffffffffffffffffffffffffffff16021790555060018055600160025534801561005957600080fd5b5061326f806100696000396000f3fe6080604052600436106101145760003560e01c80638f32d59b116100a0578063ced92a2111610064578063ced92a2114610400578063cf58ad881461042b578063d09ef24114610454578063eb08ab2814610496578063f08aef0d146104c157610114565b80638f32d59b1461030e578063a33282e414610339578063a85c38ef14610376578063b8ea9e56146103b9578063be374423146103d557610114565b806355815199116100e757806355815199146101f95780635ca9e3801461023657806372af7ea2146102785780638d0a5fbb146102b85780638da5cb5b146102e357610114565b806311a00327146101195780631ce9b1ca1461014257806324410e851461017f5780632f54bf6e146101bc575b600080fd5b34801561012557600080fd5b50610140600480360381019061013b9190612383565b6104ea565b005b34801561014e57600080fd5b5061016960048036038101906101649190612383565b6109e3565b60405161017691906123bf565b60405180910390f35b34801561018b57600080fd5b506101a660048036038101906101a19190612668565b610a07565b6040516101b391906123bf565b60405180910390f35b3480156101c857600080fd5b506101e360048036038101906101de91906126ff565b610c27565b6040516101f09190612747565b60405180910390f35b34801561020557600080fd5b50610220600480360381019061021b9190612383565b610c80565b60405161022d91906123bf565b60405180910390f35b34801561024257600080fd5b5061025d60048036038101906102589190612383565b610ca4565b60405161026f969594939291906127ea565b60405180910390f35b34801561028457600080fd5b5061029f600480360381019061029a9190612383565b610df0565b6040516102af9493929190612859565b60405180910390f35b3480156102c457600080fd5b506102cd610fcf565b6040516102da91906123bf565b60405180910390f35b3480156102ef57600080fd5b506102f8610fdc565b60405161030591906128cd565b60405180910390f35b34801561031a57600080fd5b50610323611000565b6040516103309190612747565b60405180910390f35b34801561034557600080fd5b50610360600480360381019061035b91906128e8565b611010565b60405161036d91906123bf565b60405180910390f35b34801561038257600080fd5b5061039d60048036038101906103989190612383565b611214565b6040516103b09796959493929190612a73565b60405180910390f35b6103d360048036038101906103ce9190612ae9565b61144a565b005b3480156103e157600080fd5b506103ea61180c565b6040516103f791906123bf565b60405180910390f35b34801561040c57600080fd5b50610415611812565b60405161042291906123bf565b60405180910390f35b34801561043757600080fd5b50610452600480360381019061044d9190612b58565b61181f565b005b34801561046057600080fd5b5061047b60048036038101906104769190612383565b611b85565b60405161048d96959493929190612c0b565b60405180910390f35b3480156104a257600080fd5b506104ab611e98565b6040516104b891906123bf565b60405180910390f35b3480156104cd57600080fd5b506104e860048036038101906104e39190612383565b611e9e565b005b6104f2611000565b610531576040517f08c379a000000000000000000000000000000000000000000000000000000000815260040161052890612ce5565b60405180910390fd5b6000600360008381526020019081526020016000206040518060e0016040529081600082015481526020016001820154815260200160028201548152602001600382015481526020016004820160009054906101000a900473ffffffffffffffffffffffffffffffffffffffff1673ffffffffffffffffffffffffffffffffffffffff1673ffffffffffffffffffffffffffffffffffffffff16815260200160058201548152602001600682016040518060a00160405290816000820180546105f990612d34565b80601f016020809104026020016040519081016040528092919081815260200182805461062590612d34565b80156106725780601f1061064757610100808354040283529160200191610672565b820191906000526020600020905b81548152906001019060200180831161065557829003601f168201915b5050505050815260200160018201805461068b90612d34565b80601f01602080910402602001604051908101604052809291908181526020018280546106b790612d34565b80156107045780601f106106d957610100808354040283529160200191610704565b820191906000526020600020905b8154815290600101906020018083116106e757829003601f168201915b50505050508152602001600282015481526020016003820154815260200160048201805461073190612d34565b80601f016020809104026020016040519081016040528092919081815260200182805461075d90612d34565b80156107aa5780601f1061077f576101008083540402835291602001916107aa565b820191906000526020600020905b81548152906001019060200180831161078d57829003601f168201915b5050505050815250508152505090506001816000015114610800576040517f08c379a00000000000000000000000000000000000000000000000000000000081526004016107f790612db2565b60405180910390fd5b6000816000018181525050600360008381526020019081526020016000206000808201600090556001820160009055600282016000905560038201600090556004820160006101000a81549073ffffffffffffffffffffffffffffffffffffffff0219169055600582016000905560068201600080820160006108839190612227565b6001820160006108939190612227565b600282016000905560038201600090556004820160006108b39190612227565b5050505060005b6005805490508110156109055782600582815481106108dc576108db612dd2565b5b906000526020600020015414156108f257610905565b80806108fd90612e30565b9150506108ba565b5b60016005805490506109189190612e79565b81101561097f57600560018261092e9190612ead565b8154811061093f5761093e612dd2565b5b90600052602060002001546005828154811061095e5761095d612dd2565b5b9060005260206000200181905550808061097790612e30565b915050610906565b600580548061099157610990612f03565b5b600190038181906000526020600020016000905590557fbd000546857b596b03c884060c13e7d8c7a7ce52366d2f116f76688e6f000f66836040516109d691906123bf565b60405180910390a1505050565b600681815481106109f357600080fd5b906000526020600020016000915090505481565b6000610a11611000565b610a50576040517f08c379a0000000000000000000000000000000000000000000000000000000008152600401610a4790612ce5565b60405180910390fd5b6040518060e00160405280600181526020018781526020018681526020018581526020018473ffffffffffffffffffffffffffffffffffffffff168152602001428152602001838152506003600060025481526020019081526020016000206000820151816000015560208201518160010155604082015181600201556060820151816003015560808201518160040160006101000a81548173ffffffffffffffffffffffffffffffffffffffff021916908373ffffffffffffffffffffffffffffffffffffffff16021790555060a0820151816005015560c0820151816006016000820151816000019080519060200190610b4d929190612267565b506020820151816001019080519060200190610b6a929190612267565b5060408201518160020155606082015181600301556080820151816004019080519060200190610b9b929190612267565b505050905050600560025490806001815401808255809150506001900390600052602060002001600090919091909150557f2f539bcf68b0eef24f9fef1ae5ad7dd5a37f80a2fab34f406ad2b92c779d6064600254604051610bfd91906123bf565b60405180910390a160026000815480929190610c1890612e30565b91905055905095945050505050565b60008060009054906101000a900473ffffffffffffffffffffffffffffffffffffffff1673ffffffffffffffffffffffffffffffffffffffff168273ffffffffffffffffffffffffffffffffffffffff16149050919050565b60058181548110610c9057600080fd5b906000526020600020016000915090505481565b6004602052806000526040600020600091509050806000015490806001015490806002018054610cd390612d34565b80601f0160208091040260200160405190810160405280929190818152602001828054610cff90612d34565b8015610d4c5780601f10610d2157610100808354040283529160200191610d4c565b820191906000526020600020905b815481529060010190602001808311610d2f57829003601f168201915b505050505090806003018054610d6190612d34565b80601f0160208091040260200160405190810160405280929190818152602001828054610d8d90612d34565b8015610dda5780601f10610daf57610100808354040283529160200191610dda565b820191906000526020600020905b815481529060010190602001808311610dbd57829003601f168201915b5050505050908060040154908060050154905086565b6060806000806000600460008781526020019081526020016000206040518060c00160405290816000820154815260200160018201548152602001600282018054610e3a90612d34565b80601f0160208091040260200160405190810160405280929190818152602001828054610e6690612d34565b8015610eb35780601f10610e8857610100808354040283529160200191610eb3565b820191906000526020600020905b815481529060010190602001808311610e9657829003601f168201915b50505050508152602001600382018054610ecc90612d34565b80601f0160208091040260200160405190810160405280929190818152602001828054610ef890612d34565b8015610f455780601f10610f1a57610100808354040283529160200191610f45565b820191906000526020600020905b815481529060010190602001808311610f2857829003601f168201915b505050505081526020016004820154815260200160058201548152505090506001816000015114610fab576040517f08c379a0000000000000000000000000000000000000000000000000000000008152600401610fa290612f7e565b60405180910390fd5b8060400151816060015182608001518360a001519450945094509450509193509193565b6000600580549050905090565b60008054906101000a900473ffffffffffffffffffffffffffffffffffffffff1681565b600061100b33610c27565b905090565b600061101a611000565b611059576040517f08c379a000000000000000000000000000000000000000000000000000000000815260040161105090612ce5565b60405180910390fd5b82600081101561109e576040517f08c379a000000000000000000000000000000000000000000000000000000000815260040161109590612fea565b60405180910390fd5b8260008110156110e3576040517f08c379a00000000000000000000000000000000000000000000000000000000081526004016110da90612fea565b60405180910390fd5b6040518060c001604052806001815260200160015481526020018881526020018781526020018681526020018581525060046000600154815260200190815260200160002060008201518160000155602082015181600101556040820151816002019080519060200190611158929190612267565b506060820151816003019080519060200190611175929190612267565b506080820151816004015560a08201518160050155905050600660015490806001815401808255809150506001900390600052602060002001600090919091909150557f1bcba37a1a4b522b287291c39323a9beb282280f80a06dfcc06660a46fd71dba6001546040516111e991906123bf565b60405180910390a16001600081548092919061120490612e30565b9190505592505050949350505050565b60036020528060005260406000206000915090508060000154908060010154908060020154908060030154908060040160009054906101000a900473ffffffffffffffffffffffffffffffffffffffff1690806005015490806006016040518060a001604052908160008201805461128b90612d34565b80601f01602080910402602001604051908101604052809291908181526020018280546112b790612d34565b80156113045780601f106112d957610100808354040283529160200191611304565b820191906000526020600020905b8154815290600101906020018083116112e757829003601f168201915b5050505050815260200160018201805461131d90612d34565b80601f016020809104026020016040519081016040528092919081815260200182805461134990612d34565b80156113965780601f1061136b57610100808354040283529160200191611396565b820191906000526020600020905b81548152906001019060200180831161137957829003601f168201915b5050505050815260200160028201548152602001600382015481526020016004820180546113c390612d34565b80601f01602080910402602001604051908101604052809291908181526020018280546113ef90612d34565b801561143c5780601f106114115761010080835404028352916020019161143c565b820191906000526020600020905b81548152906001019060200180831161141f57829003601f168201915b505050505081525050905087565b816000811161148e576040517f08c379a000000000000000000000000000000000000000000000000000000000815260040161148590613056565b60405180910390fd5b6000600460008681526020019081526020016000206040518060c001604052908160008201548152602001600182015481526020016002820180546114d290612d34565b80601f01602080910402602001604051908101604052809291908181526020018280546114fe90612d34565b801561154b5780601f106115205761010080835404028352916020019161154b565b820191906000526020600020905b81548152906001019060200180831161152e57829003601f168201915b5050505050815260200160038201805461156490612d34565b80601f016020809104026020016040519081016040528092919081815260200182805461159090612d34565b80156115dd5780601f106115b2576101008083540402835291602001916115dd565b820191906000526020600020905b8154815290600101906020018083116115c057829003601f168201915b505050505081526020016004820154815260200160058201548152505090506001816000015114611643576040517f08c379a000000000000000000000000000000000000000000000000000000000815260040161163a90612f7e565b60405180910390fd5b838160a00151101561168a576040517f08c379a0000000000000000000000000000000000000000000000000000000008152600401611681906130e8565b60405180910390fd5b600084826080015161169c9190613108565b90508034146116e0576040517f08c379a00000000000000000000000000000000000000000000000000000000081526004016116d7906131d4565b60405180910390fd5b3373ffffffffffffffffffffffffffffffffffffffff166108fc829081150290604051600060405180830381858888f19350505050158015611726573d6000803e3d6000fd5b50848260a0018181516117399190612e79565b91508181525050816004600088815260200190815260200160002060008201518160000155602082015181600101556040820151816002019080519060200190611784929190612267565b5060608201518160030190805190602001906117a1929190612267565b506080820151816004015560a082015181600501559050507ff6dfe3265343a31f549b8db6595d805aa696facc9647fbbc4964af02f4be4157868683336040516117ee94939291906131f4565b60405180910390a16118038686833388610a07565b50505050505050565b60025481565b6000600680549050905090565b611827611000565b611866576040517f08c379a000000000000000000000000000000000000000000000000000000000815260040161185d90612ce5565b60405180910390fd5b8160008110156118ab576040517f08c379a00000000000000000000000000000000000000000000000000000000081526004016118a290612fea565b60405180910390fd5b8160008110156118f0576040517f08c379a00000000000000000000000000000000000000000000000000000000081526004016118e790612fea565b60405180910390fd5b6000600460008981526020019081526020016000206040518060c0016040529081600082015481526020016001820154815260200160028201805461193490612d34565b80601f016020809104026020016040519081016040528092919081815260200182805461196090612d34565b80156119ad5780601f10611982576101008083540402835291602001916119ad565b820191906000526020600020905b81548152906001019060200180831161199057829003601f168201915b505050505081526020016003820180546119c690612d34565b80601f01602080910402602001604051908101604052809291908181526020018280546119f290612d34565b8015611a3f5780601f10611a1457610100808354040283529160200191611a3f565b820191906000526020600020905b815481529060010190602001808311611a2257829003601f168201915b505050505081526020016004820154815260200160058201548152505090506001816000015114611aa5576040517f08c379a0000000000000000000000000000000000000000000000000000000008152600401611a9c90612f7e565b60405180910390fd5b86816040018190525085816060018190525084816080018181525050838160a001818152505080600460008a815260200190815260200160002060008201518160000155602082015181600101556040820151816002019080519060200190611b0f929190612267565b506060820151816003019080519060200190611b2c929190612267565b506080820151816004015560a082015181600501559050507f97361b1697ad3a1a82fcf3afa0b80fecf9407859d7ef80aede71a02884fc384c88604051611b7391906123bf565b60405180910390a15050505050505050565b6000806000806000611b956122ed565b6000600360008981526020019081526020016000206040518060e0016040529081600082015481526020016001820154815260200160028201548152602001600382015481526020016004820160009054906101000a900473ffffffffffffffffffffffffffffffffffffffff1673ffffffffffffffffffffffffffffffffffffffff1673ffffffffffffffffffffffffffffffffffffffff16815260200160058201548152602001600682016040518060a0016040529081600082018054611c5d90612d34565b80601f0160208091040260200160405190810160405280929190818152602001828054611c8990612d34565b8015611cd65780601f10611cab57610100808354040283529160200191611cd6565b820191906000526020600020905b815481529060010190602001808311611cb957829003601f168201915b50505050508152602001600182018054611cef90612d34565b80601f0160208091040260200160405190810160405280929190818152602001828054611d1b90612d34565b8015611d685780601f10611d3d57610100808354040283529160200191611d68565b820191906000526020600020905b815481529060010190602001808311611d4b57829003601f168201915b505050505081526020016002820154815260200160038201548152602001600482018054611d9590612d34565b80601f0160208091040260200160405190810160405280929190818152602001828054611dc190612d34565b8015611e0e5780601f10611de357610100808354040283529160200191611e0e565b820191906000526020600020905b815481529060010190602001808311611df157829003601f168201915b5050505050815250508152505090506001816000015114611e64576040517f08c379a0000000000000000000000000000000000000000000000000000000008152600401611e5b90612db2565b60405180910390fd5b80602001518160400151826060015183608001518460a001518560c001519650965096509650965096505091939550919395565b60015481565b611ea6611000565b611ee5576040517f08c379a0000000000000000000000000000000000000000000000000000000008152600401611edc90612ce5565b60405180910390fd5b6000600460008381526020019081526020016000206040518060c00160405290816000820154815260200160018201548152602001600282018054611f2990612d34565b80601f0160208091040260200160405190810160405280929190818152602001828054611f5590612d34565b8015611fa25780601f10611f7757610100808354040283529160200191611fa2565b820191906000526020600020905b815481529060010190602001808311611f8557829003601f168201915b50505050508152602001600382018054611fbb90612d34565b80601f0160208091040260200160405190810160405280929190818152602001828054611fe790612d34565b80156120345780601f1061200957610100808354040283529160200191612034565b820191906000526020600020905b81548152906001019060200180831161201757829003601f168201915b50505050508152602001600482015481526020016005820154815250509050600181600001511461209a576040517f08c379a000000000000000000000000000000000000000000000000000000000815260040161209190612f7e565b60405180910390fd5b60008160000181815250506004600083815260200190815260200160002060008082016000905560018201600090556002820160006120d99190612227565b6003820160006120e99190612227565b60048201600090556005820160009055505060005b6006805490508110156121495782600682815481106121205761211f612dd2565b5b9060005260206000200154141561213657612149565b808061214190612e30565b9150506120fe565b5b600160068054905061215c9190612e79565b8110156121c35760066001826121729190612ead565b8154811061218357612182612dd2565b5b9060005260206000200154600682815481106121a2576121a1612dd2565b5b906000526020600020018190555080806121bb90612e30565b91505061214a565b60068054806121d5576121d4612f03565b5b600190038181906000526020600020016000905590557f5e594568675a7ff56299991250b9ee2a369d3f48d6ce689ebfef825886aa04808360405161221a91906123bf565b60405180910390a1505050565b50805461223390612d34565b6000825580601f106122455750612264565b601f016020900490600052602060002090810190612263919061231c565b5b50565b82805461227390612d34565b90600052602060002090601f01602090048101928261229557600085556122dc565b82601f106122ae57805160ff19168380011785556122dc565b828001600101855582156122dc579182015b828111156122db5782518255916020019190600101906122c0565b5b5090506122e9919061231c565b5090565b6040518060a0016040528060608152602001606081526020016000815260200160008152602001606081525090565b5b8082111561233557600081600090555060010161231d565b5090565b6000604051905090565b600080fd5b600080fd5b6000819050919050565b6123608161234d565b811461236b57600080fd5b50565b60008135905061237d81612357565b92915050565b60006020828403121561239957612398612343565b5b60006123a78482850161236e565b91505092915050565b6123b98161234d565b82525050565b60006020820190506123d460008301846123b0565b92915050565b600073ffffffffffffffffffffffffffffffffffffffff82169050919050565b6000612405826123da565b9050919050565b612415816123fa565b811461242057600080fd5b50565b6000813590506124328161240c565b92915050565b600080fd5b6000601f19601f8301169050919050565b7f4e487b7100000000000000000000000000000000000000000000000000000000600052604160045260246000fd5b6124868261243d565b810181811067ffffffffffffffff821117156124a5576124a461244e565b5b80604052505050565b60006124b8612339565b90506124c4828261247d565b919050565b600080fd5b600080fd5b600080fd5b600067ffffffffffffffff8211156124f3576124f261244e565b5b6124fc8261243d565b9050602081019050919050565b82818337600083830152505050565b600061252b612526846124d8565b6124ae565b905082815260208101848484011115612547576125466124d3565b5b612552848285612509565b509392505050565b600082601f83011261256f5761256e6124ce565b5b813561257f848260208601612518565b91505092915050565b600060a0828403121561259e5761259d612438565b5b6125a860a06124ae565b9050600082013567ffffffffffffffff8111156125c8576125c76124c9565b5b6125d48482850161255a565b600083015250602082013567ffffffffffffffff8111156125f8576125f76124c9565b5b6126048482850161255a565b60208301525060406126188482850161236e565b604083015250606061262c8482850161236e565b606083015250608082013567ffffffffffffffff8111156126505761264f6124c9565b5b61265c8482850161255a565b60808301525092915050565b600080600080600060a0868803121561268457612683612343565b5b60006126928882890161236e565b95505060206126a38882890161236e565b94505060406126b48882890161236e565b93505060606126c588828901612423565b925050608086013567ffffffffffffffff8111156126e6576126e5612348565b5b6126f288828901612588565b9150509295509295909350565b60006020828403121561271557612714612343565b5b600061272384828501612423565b91505092915050565b60008115159050919050565b6127418161272c565b82525050565b600060208201905061275c6000830184612738565b92915050565b600081519050919050565b600082825260208201905092915050565b60005b8381101561279c578082015181840152602081019050612781565b838111156127ab576000848401525b50505050565b60006127bc82612762565b6127c6818561276d565b93506127d681856020860161277e565b6127df8161243d565b840191505092915050565b600060c0820190506127ff60008301896123b0565b61280c60208301886123b0565b818103604083015261281e81876127b1565b9050818103606083015261283281866127b1565b905061284160808301856123b0565b61284e60a08301846123b0565b979650505050505050565b6000608082019050818103600083015261287381876127b1565b9050818103602083015261288781866127b1565b905061289660408301856123b0565b6128a360608301846123b0565b95945050505050565b60006128b7826123da565b9050919050565b6128c7816128ac565b82525050565b60006020820190506128e260008301846128be565b92915050565b6000806000806080858703121561290257612901612343565b5b600085013567ffffffffffffffff8111156129205761291f612348565b5b61292c8782880161255a565b945050602085013567ffffffffffffffff81111561294d5761294c612348565b5b6129598782880161255a565b935050604061296a8782880161236e565b925050606061297b8782880161236e565b91505092959194509250565b612990816123fa565b82525050565b600082825260208201905092915050565b60006129b282612762565b6129bc8185612996565b93506129cc81856020860161277e565b6129d58161243d565b840191505092915050565b6129e98161234d565b82525050565b600060a0830160008301518482036000860152612a0c82826129a7565b91505060208301518482036020860152612a2682826129a7565b9150506040830151612a3b60408601826129e0565b506060830151612a4e60608601826129e0565b5060808301518482036080860152612a6682826129a7565b9150508091505092915050565b600060e082019050612a88600083018a6123b0565b612a9560208301896123b0565b612aa260408301886123b0565b612aaf60608301876123b0565b612abc6080830186612987565b612ac960a08301856123b0565b81810360c0830152612adb81846129ef565b905098975050505050505050565b600080600060608486031215612b0257612b01612343565b5b6000612b108682870161236e565b9350506020612b218682870161236e565b925050604084013567ffffffffffffffff811115612b4257612b41612348565b5b612b4e86828701612588565b9150509250925092565b600080600080600060a08688031215612b7457612b73612343565b5b6000612b828882890161236e565b955050602086013567ffffffffffffffff811115612ba357612ba2612348565b5b612baf8882890161255a565b945050604086013567ffffffffffffffff811115612bd057612bcf612348565b5b612bdc8882890161255a565b9350506060612bed8882890161236e565b9250506080612bfe8882890161236e565b9150509295509295909350565b600060c082019050612c2060008301896123b0565b612c2d60208301886123b0565b612c3a60408301876123b0565b612c476060830186612987565b612c5460808301856123b0565b81810360a0830152612c6681846129ef565b9050979650505050505050565b7f546869732066756e6374696f6e206973207265737472696374656420746f207460008201527f686520636f6e74726163742773206f776e657200000000000000000000000000602082015250565b6000612ccf60338361276d565b9150612cda82612c73565b604082019050919050565b60006020820190508181036000830152612cfe81612cc2565b9050919050565b7f4e487b7100000000000000000000000000000000000000000000000000000000600052602260045260246000fd5b60006002820490506001821680612d4c57607f821691505b60208210811415612d6057612d5f612d05565b5b50919050565b7f5468657265206973206e6f2073756368206f7264657200000000000000000000600082015250565b6000612d9c60168361276d565b9150612da782612d66565b602082019050919050565b60006020820190508181036000830152612dcb81612d8f565b9050919050565b7f4e487b7100000000000000000000000000000000000000000000000000000000600052603260045260246000fd5b7f4e487b7100000000000000000000000000000000000000000000000000000000600052601160045260246000fd5b6000612e3b8261234d565b91507fffffffffffffffffffffffffffffffffffffffffffffffffffffffffffffffff821415612e6e57612e6d612e01565b5b600182019050919050565b6000612e848261234d565b9150612e8f8361234d565b925082821015612ea257612ea1612e01565b5b828203905092915050565b6000612eb88261234d565b9150612ec38361234d565b9250827fffffffffffffffffffffffffffffffffffffffffffffffffffffffffffffffff03821115612ef857612ef7612e01565b5b828201905092915050565b7f4e487b7100000000000000000000000000000000000000000000000000000000600052603160045260246000fd5b7f5468657265206973206e6f20737563682073686f70206974656d000000000000600082015250565b6000612f68601a8361276d565b9150612f7382612f32565b602082019050919050565b60006020820190508181036000830152612f9781612f5b565b9050919050565b7f4e756d6265722063616e74206265206e65676174697665000000000000000000600082015250565b6000612fd460178361276d565b9150612fdf82612f9e565b602082019050919050565b6000602082019050818103600083015261300381612fc7565b9050919050565b7f4e756d626572206d7573742062652067726561746572207468616e2030000000600082015250565b6000613040601d8361276d565b915061304b8261300a565b602082019050919050565b6000602082019050818103600083015261306f81613033565b9050919050565b7f5468657265206973206e6f7420656e6f75676820696e2074686520696e76656e60008201527f746f727900000000000000000000000000000000000000000000000000000000602082015250565b60006130d260248361276d565b91506130dd82613076565b604082019050919050565b60006020820190508181036000830152613101816130c5565b9050919050565b60006131138261234d565b915061311e8361234d565b9250817fffffffffffffffffffffffffffffffffffffffffffffffffffffffffffffffff048311821515161561315757613156612e01565b5b828202905092915050565b7f596f75206e65656420746f2073656e642074686520657861637420616d6f756e60008201527f74206f6620776569000000000000000000000000000000000000000000000000602082015250565b60006131be60288361276d565b91506131c982613162565b604082019050919050565b600060208201905081810360008301526131ed816131b1565b9050919050565b600060808201905061320960008301876123b0565b61321660208301866123b0565b61322360408301856123b0565b6132306060830184612987565b9594505050505056fea26469706673582212202560e565c836dc6e462672e140b1238df5b7a5a6b3c882bebfbff118604b96ec64736f6c634300080a0033",
  "immutableReferences": {},
  "source": "pragma solidity >=0.7.0 <0.9.0;\r\n\r\nimport \"./ManageShop.sol\";\r\n\r\ncontract Shop is ManageShop {\r\n\r\n    event BoughtItem(uint itemId, uint amount, uint cost, address userAddress);\r\n\r\n    function buy(uint itemId, uint amount, Shared.UserData memory userData) public payable greaterThanZero(amount) {\r\n        Shared.ShopItem memory item = shopItems[itemId];\r\n        require(item.flag == 1, \"There is no such shop item\");\r\n        require(item.inventory >= amount, \"There is not enough in the inventory\");\r\n\r\n        uint finalCost = item.cost * amount;\r\n        require(msg.value == finalCost, \"You need to send the exact amount of wei\");\r\n        payable(msg.sender).transfer(finalCost);\r\n\r\n        item.inventory -= amount;\r\n        shopItems[itemId] = item;\r\n\r\n        emit BoughtItem(itemId, amount, finalCost, msg.sender);\r\n        ManageShop.createOrder(itemId, amount, finalCost, msg.sender, userData);\r\n    }\r\n}",
  "sourcePath": "D:\\Users\\Alex\\Desktop\\simple-shop-dapp\\truffle\\contracts\\Shop.sol",
  "compiler": {
    "name": "solc",
    "version": "0.8.10+commit.fc410830.Emscripten.clang"
  },
  "schemaVersion": "3.4.4",
  "updatedAt": "2022-01-09T18:53:56.789Z",
  "networkType": "ethereum",
  "devdoc": {
    "kind": "dev",
    "methods": {},
    "version": 1
  },
  "userdoc": {
    "kind": "user",
    "methods": {},
    "version": 1
  }
}