{
  "contractName": "Authentication",
  "abi": [
    {
      "inputs": [],
      "name": "owner",
      "outputs": [
        {
          "internalType": "address",
          "name": "",
          "type": "address"
        }
      ],
      "stateMutability": "view",
      "type": "function",
      "constant": true
    },
    {
      "inputs": [
        {
          "internalType": "address",
          "name": "",
          "type": "address"
        }
      ],
      "name": "users",
      "outputs": [
        {
          "internalType": "uint256",
          "name": "flag",
          "type": "uint256"
        },
        {
          "internalType": "address",
          "name": "userAddress",
          "type": "address"
        },
        {
          "internalType": "string",
          "name": "name",
          "type": "string"
        },
        {
          "internalType": "string",
          "name": "street",
          "type": "string"
        },
        {
          "internalType": "uint256",
          "name": "number",
          "type": "uint256"
        },
        {
          "internalType": "uint256",
          "name": "postal",
          "type": "uint256"
        },
        {
          "internalType": "string",
          "name": "city",
          "type": "string"
        },
        {
          "internalType": "bool",
          "name": "isOwner",
          "type": "bool"
        }
      ],
      "stateMutability": "view",
      "type": "function",
      "constant": true
    },
    {
      "inputs": [
        {
          "internalType": "address",
          "name": "checkUser",
          "type": "address"
        }
      ],
      "name": "isOwner",
      "outputs": [
        {
          "internalType": "bool",
          "name": "isOwnerIndeed",
          "type": "bool"
        }
      ],
      "stateMutability": "view",
      "type": "function",
      "constant": true
    },
    {
      "inputs": [],
      "name": "isOwner",
      "outputs": [
        {
          "internalType": "bool",
          "name": "isOwnerIndeed",
          "type": "bool"
        }
      ],
      "stateMutability": "view",
      "type": "function",
      "constant": true
    },
    {
      "inputs": [
        {
          "internalType": "address",
          "name": "checkUser",
          "type": "address"
        }
      ],
      "name": "isUser",
      "outputs": [
        {
          "internalType": "bool",
          "name": "isUserIndeed",
          "type": "bool"
        }
      ],
      "stateMutability": "view",
      "type": "function",
      "constant": true
    },
    {
      "inputs": [],
      "name": "isUser",
      "outputs": [
        {
          "internalType": "bool",
          "name": "isUserIndeed",
          "type": "bool"
        }
      ],
      "stateMutability": "view",
      "type": "function",
      "constant": true
    },
    {
      "inputs": [
        {
          "internalType": "string",
          "name": "name",
          "type": "string"
        },
        {
          "internalType": "string",
          "name": "street",
          "type": "string"
        },
        {
          "internalType": "uint256",
          "name": "number",
          "type": "uint256"
        },
        {
          "internalType": "uint256",
          "name": "postal",
          "type": "uint256"
        },
        {
          "internalType": "string",
          "name": "city",
          "type": "string"
        }
      ],
      "name": "register",
      "outputs": [],
      "stateMutability": "nonpayable",
      "type": "function"
    }
  ],
  "bytecode": "0x6080604052336000806101000a81548173ffffffffffffffffffffffffffffffffffffffff021916908373ffffffffffffffffffffffffffffffffffffffff16021790555034801561005057600080fd5b50610bb4806100606000396000f3fe608060405234801561001057600080fd5b506004361061007d5760003560e01c8063648817911161005b57806364881791146101005780638da5cb5b1461011c5780638f32d59b1461013a578063a87430ba146101585761007d565b80632f54bf6e146100825780634209fff1146100b25780634c22c119146100e2575b600080fd5b61009c6004803603810190610097919061071b565b61018f565b6040516100a99190610763565b60405180910390f35b6100cc60048036038101906100c7919061071b565b6101e8565b6040516100d99190610763565b60405180910390f35b6100ea610236565b6040516100f79190610763565b60405180910390f35b61011a600480360381019061011591906108fa565b610246565b005b6101246103c5565b60405161013191906109d8565b60405180910390f35b6101426103e9565b60405161014f9190610763565b60405180910390f35b610172600480360381019061016d919061071b565b6103f9565b604051610186989796959493929190610a8a565b60405180910390f35b60008060009054906101000a900473ffffffffffffffffffffffffffffffffffffffff1673ffffffffffffffffffffffffffffffffffffffff168273ffffffffffffffffffffffffffffffffffffffff16149050919050565b600060018060008473ffffffffffffffffffffffffffffffffffffffff1673ffffffffffffffffffffffffffffffffffffffff16815260200190815260200160002060000154149050919050565b6000610241336101e8565b905090565b604051806101000160405280600181526020013373ffffffffffffffffffffffffffffffffffffffff16815260200186815260200185815260200184815260200183815260200182815260200161029b6103e9565b1515815250600160003373ffffffffffffffffffffffffffffffffffffffff1673ffffffffffffffffffffffffffffffffffffffff1681526020019081526020016000206000820151816000015560208201518160010160006101000a81548173ffffffffffffffffffffffffffffffffffffffff021916908373ffffffffffffffffffffffffffffffffffffffff160217905550604082015181600201908051906020019061034c929190610606565b506060820151816003019080519060200190610369929190610606565b506080820151816004015560a0820151816005015560c082015181600601908051906020019061039a929190610606565b5060e08201518160070160006101000a81548160ff0219169083151502179055509050505050505050565b60008054906101000a900473ffffffffffffffffffffffffffffffffffffffff1681565b60006103f43361018f565b905090565b60016020528060005260406000206000915090508060000154908060010160009054906101000a900473ffffffffffffffffffffffffffffffffffffffff169080600201805461044890610b4c565b80601f016020809104026020016040519081016040528092919081815260200182805461047490610b4c565b80156104c15780601f10610496576101008083540402835291602001916104c1565b820191906000526020600020905b8154815290600101906020018083116104a457829003601f168201915b5050505050908060030180546104d690610b4c565b80601f016020809104026020016040519081016040528092919081815260200182805461050290610b4c565b801561054f5780601f106105245761010080835404028352916020019161054f565b820191906000526020600020905b81548152906001019060200180831161053257829003601f168201915b50505050509080600401549080600501549080600601805461057090610b4c565b80601f016020809104026020016040519081016040528092919081815260200182805461059c90610b4c565b80156105e95780601f106105be576101008083540402835291602001916105e9565b820191906000526020600020905b8154815290600101906020018083116105cc57829003601f168201915b5050505050908060070160009054906101000a900460ff16905088565b82805461061290610b4c565b90600052602060002090601f016020900481019282610634576000855561067b565b82601f1061064d57805160ff191683800117855561067b565b8280016001018555821561067b579182015b8281111561067a57825182559160200191906001019061065f565b5b509050610688919061068c565b5090565b5b808211156106a557600081600090555060010161068d565b5090565b6000604051905090565b600080fd5b600080fd5b600073ffffffffffffffffffffffffffffffffffffffff82169050919050565b60006106e8826106bd565b9050919050565b6106f8816106dd565b811461070357600080fd5b50565b600081359050610715816106ef565b92915050565b600060208284031215610731576107306106b3565b5b600061073f84828501610706565b91505092915050565b60008115159050919050565b61075d81610748565b82525050565b60006020820190506107786000830184610754565b92915050565b600080fd5b600080fd5b6000601f19601f8301169050919050565b7f4e487b7100000000000000000000000000000000000000000000000000000000600052604160045260246000fd5b6107d182610788565b810181811067ffffffffffffffff821117156107f0576107ef610799565b5b80604052505050565b60006108036106a9565b905061080f82826107c8565b919050565b600067ffffffffffffffff82111561082f5761082e610799565b5b61083882610788565b9050602081019050919050565b82818337600083830152505050565b600061086761086284610814565b6107f9565b90508281526020810184848401111561088357610882610783565b5b61088e848285610845565b509392505050565b600082601f8301126108ab576108aa61077e565b5b81356108bb848260208601610854565b91505092915050565b6000819050919050565b6108d7816108c4565b81146108e257600080fd5b50565b6000813590506108f4816108ce565b92915050565b600080600080600060a08688031215610916576109156106b3565b5b600086013567ffffffffffffffff811115610934576109336106b8565b5b61094088828901610896565b955050602086013567ffffffffffffffff811115610961576109606106b8565b5b61096d88828901610896565b945050604061097e888289016108e5565b935050606061098f888289016108e5565b925050608086013567ffffffffffffffff8111156109b0576109af6106b8565b5b6109bc88828901610896565b9150509295509295909350565b6109d2816106dd565b82525050565b60006020820190506109ed60008301846109c9565b92915050565b6109fc816108c4565b82525050565b600081519050919050565b600082825260208201905092915050565b60005b83811015610a3c578082015181840152602081019050610a21565b83811115610a4b576000848401525b50505050565b6000610a5c82610a02565b610a668185610a0d565b9350610a76818560208601610a1e565b610a7f81610788565b840191505092915050565b600061010082019050610aa0600083018b6109f3565b610aad602083018a6109c9565b8181036040830152610abf8189610a51565b90508181036060830152610ad38188610a51565b9050610ae260808301876109f3565b610aef60a08301866109f3565b81810360c0830152610b018185610a51565b9050610b1060e0830184610754565b9998505050505050505050565b7f4e487b7100000000000000000000000000000000000000000000000000000000600052602260045260246000fd5b60006002820490506001821680610b6457607f821691505b60208210811415610b7857610b77610b1d565b5b5091905056fea26469706673582212202e9862fbfaaa8d197963cadd4006875b0f2f8fd8ade893f87e80bbaf6578385564736f6c634300080a0033",
  "immutableReferences": {},
  "source": "pragma solidity >=0.7.0 <0.9.0;\r\n\r\nlibrary Shared {\r\n    struct User {\r\n        uint flag;\r\n        address userAddress;\r\n        string name;\r\n        string street;\r\n        uint number;\r\n        uint postal;\r\n        string city;\r\n        bool isOwner;\r\n    }\r\n\r\n    struct ShopItem {\r\n        uint flag;\r\n        uint id;\r\n        string title;\r\n        string description;\r\n        uint cost;\r\n        uint inventory;\r\n    }\r\n}\r\n\r\ncontract Authentication {\r\n\r\n  address public owner = msg.sender;\r\n  mapping(address => Shared.User) public users;\r\n\r\n  modifier onlyOwner() {\r\n    require(isOwner(), \"This function is restricted to the contract's owner\");\r\n    _;\r\n  }\r\n\r\n  modifier onlyUser() {\r\n      require(isUser(), \"You need to register first\");\r\n      _;\r\n  }\r\n\r\n  function isOwner() public view returns(bool isOwnerIndeed) {\r\n      return isOwner(msg.sender);\r\n  }\r\n\r\n  function isOwner(address checkUser) public view returns(bool isOwnerIndeed) {\r\n      return checkUser == owner;\r\n  }\r\n\r\n  function isUser() public view returns(bool isUserIndeed) {\r\n      return isUser(msg.sender);\r\n  }\r\n\r\n  function isUser(address checkUser) public view returns(bool isUserIndeed) {\r\n      return users[checkUser].flag == 1;\r\n  }\r\n\r\n  function register(\r\n      string memory name,\r\n      string memory street,\r\n      uint number,\r\n      uint postal,\r\n      string memory city\r\n  ) public {\r\n      //require(!isUser(), \"You are already registered\");\r\n      users[msg.sender] = Shared.User(1, msg.sender, name, street, number, postal, city, isOwner());\r\n  }\r\n}\r\n\r\ncontract ManageShop is Authentication {\r\n\r\n    uint public idCounter = 1;\r\n    mapping(uint => Shared.ShopItem) public shopItems;\r\n    uint[] public shopItemIndexes;\r\n\r\n    function addShopItem(\r\n        string memory title,\r\n        string memory description,\r\n        uint cost,\r\n        uint inventory\r\n    ) public onlyOwner {\r\n        shopItems[idCounter] = Shared.ShopItem(1, idCounter, title, description, cost, inventory);\r\n        shopItemIndexes.push(idCounter);\r\n        idCounter++;\r\n    }\r\n\r\n    /*function getShopItems() public view returns(ShopItem[] memory) {\r\n        ShopItem[] storage items;\r\n        for(uint i = 0; i < (idCounter - 1); i++) {\r\n            ShopItem memory item = shopItems[shopItemIndexes[i]];\r\n            if(item.flag == 1) {\r\n                items.push(item);\r\n            }\r\n        }\r\n        return items;\r\n    }*/\r\n}\r\n",
  "sourcePath": "D:\\Users\\Alex\\Desktop\\simple-shop-smart-contract\\contracts\\SimpleShop.sol",
  "compiler": {
    "name": "solc",
    "version": "0.8.10+commit.fc410830.Emscripten.clang"
  },
  "schemaVersion": "3.4.4",
  "updatedAt": "2022-01-07T15:08:45.306Z",
  "networkType": "ethereum",
  "devdoc": {
    "kind": "dev",
    "methods": {},
    "version": 1
  },
  "userdoc": {
    "kind": "user",
    "methods": {},
    "version": 1
  }
}