{
  "contractName": "ManageShop",
  "abi": [
    {
      "inputs": [],
      "name": "idCounter",
      "outputs": [
        {
          "internalType": "uint256",
          "name": "",
          "type": "uint256"
        }
      ],
      "stateMutability": "view",
      "type": "function",
      "constant": true
    },
    {
      "inputs": [
        {
          "internalType": "address",
          "name": "checkUser",
          "type": "address"
        }
      ],
      "name": "isOwner",
      "outputs": [
        {
          "internalType": "bool",
          "name": "isOwnerIndeed",
          "type": "bool"
        }
      ],
      "stateMutability": "view",
      "type": "function",
      "constant": true
    },
    {
      "inputs": [],
      "name": "isOwner",
      "outputs": [
        {
          "internalType": "bool",
          "name": "isOwnerIndeed",
          "type": "bool"
        }
      ],
      "stateMutability": "view",
      "type": "function",
      "constant": true
    },
    {
      "inputs": [
        {
          "internalType": "address",
          "name": "checkUser",
          "type": "address"
        }
      ],
      "name": "isUser",
      "outputs": [
        {
          "internalType": "bool",
          "name": "isUserIndeed",
          "type": "bool"
        }
      ],
      "stateMutability": "view",
      "type": "function",
      "constant": true
    },
    {
      "inputs": [],
      "name": "isUser",
      "outputs": [
        {
          "internalType": "bool",
          "name": "isUserIndeed",
          "type": "bool"
        }
      ],
      "stateMutability": "view",
      "type": "function",
      "constant": true
    },
    {
      "inputs": [],
      "name": "owner",
      "outputs": [
        {
          "internalType": "address",
          "name": "",
          "type": "address"
        }
      ],
      "stateMutability": "view",
      "type": "function",
      "constant": true
    },
    {
      "inputs": [
        {
          "internalType": "string",
          "name": "name",
          "type": "string"
        },
        {
          "internalType": "string",
          "name": "street",
          "type": "string"
        },
        {
          "internalType": "uint256",
          "name": "number",
          "type": "uint256"
        },
        {
          "internalType": "uint256",
          "name": "postal",
          "type": "uint256"
        },
        {
          "internalType": "string",
          "name": "city",
          "type": "string"
        }
      ],
      "name": "register",
      "outputs": [],
      "stateMutability": "nonpayable",
      "type": "function"
    },
    {
      "inputs": [
        {
          "internalType": "uint256",
          "name": "",
          "type": "uint256"
        }
      ],
      "name": "shopItemIndexes",
      "outputs": [
        {
          "internalType": "uint256",
          "name": "",
          "type": "uint256"
        }
      ],
      "stateMutability": "view",
      "type": "function",
      "constant": true
    },
    {
      "inputs": [
        {
          "internalType": "uint256",
          "name": "",
          "type": "uint256"
        }
      ],
      "name": "shopItems",
      "outputs": [
        {
          "internalType": "uint256",
          "name": "flag",
          "type": "uint256"
        },
        {
          "internalType": "uint256",
          "name": "id",
          "type": "uint256"
        },
        {
          "internalType": "string",
          "name": "title",
          "type": "string"
        },
        {
          "internalType": "string",
          "name": "description",
          "type": "string"
        },
        {
          "internalType": "uint256",
          "name": "cost",
          "type": "uint256"
        },
        {
          "internalType": "uint256",
          "name": "inventory",
          "type": "uint256"
        }
      ],
      "stateMutability": "view",
      "type": "function",
      "constant": true
    },
    {
      "inputs": [
        {
          "internalType": "address",
          "name": "",
          "type": "address"
        }
      ],
      "name": "users",
      "outputs": [
        {
          "internalType": "uint256",
          "name": "flag",
          "type": "uint256"
        },
        {
          "internalType": "address",
          "name": "userAddress",
          "type": "address"
        },
        {
          "internalType": "string",
          "name": "name",
          "type": "string"
        },
        {
          "internalType": "string",
          "name": "street",
          "type": "string"
        },
        {
          "internalType": "uint256",
          "name": "number",
          "type": "uint256"
        },
        {
          "internalType": "uint256",
          "name": "postal",
          "type": "uint256"
        },
        {
          "internalType": "string",
          "name": "city",
          "type": "string"
        },
        {
          "internalType": "bool",
          "name": "isOwner",
          "type": "bool"
        }
      ],
      "stateMutability": "view",
      "type": "function",
      "constant": true
    },
    {
      "inputs": [
        {
          "internalType": "string",
          "name": "title",
          "type": "string"
        },
        {
          "internalType": "string",
          "name": "description",
          "type": "string"
        },
        {
          "internalType": "uint256",
          "name": "cost",
          "type": "uint256"
        },
        {
          "internalType": "uint256",
          "name": "inventory",
          "type": "uint256"
        }
      ],
      "name": "addShopItem",
      "outputs": [],
      "stateMutability": "nonpayable",
      "type": "function"
    }
  ],
  "bytecode": "0x6080604052336000806101000a81548173ffffffffffffffffffffffffffffffffffffffff021916908373ffffffffffffffffffffffffffffffffffffffff160217905550600160025534801561005557600080fd5b5061118f806100656000396000f3fe608060405234801561001057600080fd5b50600436106100a95760003560e01c8063648817911161007157806364881791146101915780638da5cb5b146101ad5780638f32d59b146101cb578063a33282e4146101e9578063a87430ba14610205578063eb08ab281461023c576100a9565b80631ce9b1ca146100ae5780632f54bf6e146100de5780634209fff11461010e5780634c22c1191461013e5780635ca9e3801461015c575b600080fd5b6100c860048036038101906100c39190610a6e565b61025a565b6040516100d59190610aaa565b60405180910390f35b6100f860048036038101906100f39190610b23565b61027e565b6040516101059190610b6b565b60405180910390f35b61012860048036038101906101239190610b23565b6102d7565b6040516101359190610b6b565b60405180910390f35b610146610325565b6040516101539190610b6b565b60405180910390f35b61017660048036038101906101719190610a6e565b610335565b60405161018896959493929190610c1f565b60405180910390f35b6101ab60048036038101906101a69190610dc3565b610481565b005b6101b5610600565b6040516101c29190610ea1565b60405180910390f35b6101d3610624565b6040516101e09190610b6b565b60405180910390f35b61020360048036038101906101fe9190610ebc565b610634565b005b61021f600480360381019061021a9190610b23565b61076e565b604051610233989796959493929190610f5b565b60405180910390f35b61024461097b565b6040516102519190610aaa565b60405180910390f35b6004818154811061026a57600080fd5b906000526020600020016000915090505481565b60008060009054906101000a900473ffffffffffffffffffffffffffffffffffffffff1673ffffffffffffffffffffffffffffffffffffffff168273ffffffffffffffffffffffffffffffffffffffff16149050919050565b600060018060008473ffffffffffffffffffffffffffffffffffffffff1673ffffffffffffffffffffffffffffffffffffffff16815260200190815260200160002060000154149050919050565b6000610330336102d7565b905090565b60036020528060005260406000206000915090508060000154908060010154908060020180546103649061101d565b80601f01602080910402602001604051908101604052809291908181526020018280546103909061101d565b80156103dd5780601f106103b2576101008083540402835291602001916103dd565b820191906000526020600020905b8154815290600101906020018083116103c057829003601f168201915b5050505050908060030180546103f29061101d565b80601f016020809104026020016040519081016040528092919081815260200182805461041e9061101d565b801561046b5780601f106104405761010080835404028352916020019161046b565b820191906000526020600020905b81548152906001019060200180831161044e57829003601f168201915b5050505050908060040154908060050154905086565b604051806101000160405280600181526020013373ffffffffffffffffffffffffffffffffffffffff1681526020018681526020018581526020018481526020018381526020018281526020016104d6610624565b1515815250600160003373ffffffffffffffffffffffffffffffffffffffff1673ffffffffffffffffffffffffffffffffffffffff1681526020019081526020016000206000820151816000015560208201518160010160006101000a81548173ffffffffffffffffffffffffffffffffffffffff021916908373ffffffffffffffffffffffffffffffffffffffff1602179055506040820151816002019080519060200190610587929190610981565b5060608201518160030190805190602001906105a4929190610981565b506080820151816004015560a0820151816005015560c08201518160060190805190602001906105d5929190610981565b5060e08201518160070160006101000a81548160ff0219169083151502179055509050505050505050565b60008054906101000a900473ffffffffffffffffffffffffffffffffffffffff1681565b600061062f3361027e565b905090565b61063c610624565b61067b576040517f08c379a0000000000000000000000000000000000000000000000000000000008152600401610672906110c1565b60405180910390fd5b6040518060c0016040528060018152602001600254815260200185815260200184815260200183815260200182815250600360006002548152602001908152602001600020600082015181600001556020820151816001015560408201518160020190805190602001906106f0929190610981565b50606082015181600301908051906020019061070d929190610981565b506080820151816004015560a08201518160050155905050600460025490806001815401808255809150506001900390600052602060002001600090919091909150556002600081548092919061076390611110565b919050555050505050565b60016020528060005260406000206000915090508060000154908060010160009054906101000a900473ffffffffffffffffffffffffffffffffffffffff16908060020180546107bd9061101d565b80601f01602080910402602001604051908101604052809291908181526020018280546107e99061101d565b80156108365780601f1061080b57610100808354040283529160200191610836565b820191906000526020600020905b81548152906001019060200180831161081957829003601f168201915b50505050509080600301805461084b9061101d565b80601f01602080910402602001604051908101604052809291908181526020018280546108779061101d565b80156108c45780601f10610899576101008083540402835291602001916108c4565b820191906000526020600020905b8154815290600101906020018083116108a757829003601f168201915b5050505050908060040154908060050154908060060180546108e59061101d565b80601f01602080910402602001604051908101604052809291908181526020018280546109119061101d565b801561095e5780601f106109335761010080835404028352916020019161095e565b820191906000526020600020905b81548152906001019060200180831161094157829003601f168201915b5050505050908060070160009054906101000a900460ff16905088565b60025481565b82805461098d9061101d565b90600052602060002090601f0160209004810192826109af57600085556109f6565b82601f106109c857805160ff19168380011785556109f6565b828001600101855582156109f6579182015b828111156109f55782518255916020019190600101906109da565b5b509050610a039190610a07565b5090565b5b80821115610a20576000816000905550600101610a08565b5090565b6000604051905090565b600080fd5b600080fd5b6000819050919050565b610a4b81610a38565b8114610a5657600080fd5b50565b600081359050610a6881610a42565b92915050565b600060208284031215610a8457610a83610a2e565b5b6000610a9284828501610a59565b91505092915050565b610aa481610a38565b82525050565b6000602082019050610abf6000830184610a9b565b92915050565b600073ffffffffffffffffffffffffffffffffffffffff82169050919050565b6000610af082610ac5565b9050919050565b610b0081610ae5565b8114610b0b57600080fd5b50565b600081359050610b1d81610af7565b92915050565b600060208284031215610b3957610b38610a2e565b5b6000610b4784828501610b0e565b91505092915050565b60008115159050919050565b610b6581610b50565b82525050565b6000602082019050610b806000830184610b5c565b92915050565b600081519050919050565b600082825260208201905092915050565b60005b83811015610bc0578082015181840152602081019050610ba5565b83811115610bcf576000848401525b50505050565b6000601f19601f8301169050919050565b6000610bf182610b86565b610bfb8185610b91565b9350610c0b818560208601610ba2565b610c1481610bd5565b840191505092915050565b600060c082019050610c346000830189610a9b565b610c416020830188610a9b565b8181036040830152610c538187610be6565b90508181036060830152610c678186610be6565b9050610c766080830185610a9b565b610c8360a0830184610a9b565b979650505050505050565b600080fd5b600080fd5b7f4e487b7100000000000000000000000000000000000000000000000000000000600052604160045260246000fd5b610cd082610bd5565b810181811067ffffffffffffffff82111715610cef57610cee610c98565b5b80604052505050565b6000610d02610a24565b9050610d0e8282610cc7565b919050565b600067ffffffffffffffff821115610d2e57610d2d610c98565b5b610d3782610bd5565b9050602081019050919050565b82818337600083830152505050565b6000610d66610d6184610d13565b610cf8565b905082815260208101848484011115610d8257610d81610c93565b5b610d8d848285610d44565b509392505050565b600082601f830112610daa57610da9610c8e565b5b8135610dba848260208601610d53565b91505092915050565b600080600080600060a08688031215610ddf57610dde610a2e565b5b600086013567ffffffffffffffff811115610dfd57610dfc610a33565b5b610e0988828901610d95565b955050602086013567ffffffffffffffff811115610e2a57610e29610a33565b5b610e3688828901610d95565b9450506040610e4788828901610a59565b9350506060610e5888828901610a59565b925050608086013567ffffffffffffffff811115610e7957610e78610a33565b5b610e8588828901610d95565b9150509295509295909350565b610e9b81610ae5565b82525050565b6000602082019050610eb66000830184610e92565b92915050565b60008060008060808587031215610ed657610ed5610a2e565b5b600085013567ffffffffffffffff811115610ef457610ef3610a33565b5b610f0087828801610d95565b945050602085013567ffffffffffffffff811115610f2157610f20610a33565b5b610f2d87828801610d95565b9350506040610f3e87828801610a59565b9250506060610f4f87828801610a59565b91505092959194509250565b600061010082019050610f71600083018b610a9b565b610f7e602083018a610e92565b8181036040830152610f908189610be6565b90508181036060830152610fa48188610be6565b9050610fb36080830187610a9b565b610fc060a0830186610a9b565b81810360c0830152610fd28185610be6565b9050610fe160e0830184610b5c565b9998505050505050505050565b7f4e487b7100000000000000000000000000000000000000000000000000000000600052602260045260246000fd5b6000600282049050600182168061103557607f821691505b6020821081141561104957611048610fee565b5b50919050565b7f546869732066756e6374696f6e206973207265737472696374656420746f207460008201527f686520636f6e74726163742773206f776e657200000000000000000000000000602082015250565b60006110ab603383610b91565b91506110b68261104f565b604082019050919050565b600060208201905081810360008301526110da8161109e565b9050919050565b7f4e487b7100000000000000000000000000000000000000000000000000000000600052601160045260246000fd5b600061111b82610a38565b91507fffffffffffffffffffffffffffffffffffffffffffffffffffffffffffffffff82141561114e5761114d6110e1565b5b60018201905091905056fea2646970667358221220e89ad07d9a0c39946b593a0084ceb80381b9d981e1c77912cd074dd7b956f62764736f6c634300080a0033",
  "immutableReferences": {},
  "source": "pragma solidity >=0.7.0 <0.9.0;\r\n\r\nlibrary Shared {\r\n    struct User {\r\n        uint flag;\r\n        address userAddress;\r\n        string name;\r\n        string street;\r\n        uint number;\r\n        uint postal;\r\n        string city;\r\n        bool isOwner;\r\n    }\r\n\r\n    struct ShopItem {\r\n        uint flag;\r\n        uint id;\r\n        string title;\r\n        string description;\r\n        uint cost;\r\n        uint inventory;\r\n    }\r\n}\r\n\r\ncontract Authentication {\r\n\r\n  address public owner = msg.sender;\r\n  mapping(address => Shared.User) public users;\r\n\r\n  modifier onlyOwner() {\r\n    require(isOwner(), \"This function is restricted to the contract's owner\");\r\n    _;\r\n  }\r\n\r\n  modifier onlyUser() {\r\n      require(isUser(), \"You need to register first\");\r\n      _;\r\n  }\r\n\r\n  function isOwner() public view returns(bool isOwnerIndeed) {\r\n      return isOwner(msg.sender);\r\n  }\r\n\r\n  function isOwner(address checkUser) public view returns(bool isOwnerIndeed) {\r\n      return checkUser == owner;\r\n  }\r\n\r\n  function isUser() public view returns(bool isUserIndeed) {\r\n      return isUser(msg.sender);\r\n  }\r\n\r\n  function isUser(address checkUser) public view returns(bool isUserIndeed) {\r\n      return users[checkUser].flag == 1;\r\n  }\r\n\r\n  function register(\r\n      string memory name,\r\n      string memory street,\r\n      uint number,\r\n      uint postal,\r\n      string memory city\r\n  ) public {\r\n      //require(!isUser(), \"You are already registered\");\r\n      users[msg.sender] = Shared.User(1, msg.sender, name, street, number, postal, city, isOwner());\r\n  }\r\n}\r\n\r\ncontract ManageShop is Authentication {\r\n\r\n    uint public idCounter = 1;\r\n    mapping(uint => Shared.ShopItem) public shopItems;\r\n    uint[] public shopItemIndexes;\r\n\r\n    function addShopItem(\r\n        string memory title,\r\n        string memory description,\r\n        uint cost,\r\n        uint inventory\r\n    ) public onlyOwner {\r\n        shopItems[idCounter] = Shared.ShopItem(1, idCounter, title, description, cost, inventory);\r\n        shopItemIndexes.push(idCounter);\r\n        idCounter++;\r\n    }\r\n\r\n    /*function getShopItems() public view returns(ShopItem[] memory) {\r\n        ShopItem[] storage items;\r\n        for(uint i = 0; i < (idCounter - 1); i++) {\r\n            ShopItem memory item = shopItems[shopItemIndexes[i]];\r\n            if(item.flag == 1) {\r\n                items.push(item);\r\n            }\r\n        }\r\n        return items;\r\n    }*/\r\n}\r\n",
  "sourcePath": "D:\\Users\\Alex\\Desktop\\simple-shop-smart-contract\\contracts\\SimpleShop.sol",
  "compiler": {
    "name": "solc",
    "version": "0.8.10+commit.fc410830.Emscripten.clang"
  },
  "schemaVersion": "3.4.4",
  "updatedAt": "2022-01-07T15:08:45.312Z",
  "networkType": "ethereum",
  "devdoc": {
    "kind": "dev",
    "methods": {},
    "version": 1
  },
  "userdoc": {
    "kind": "user",
    "methods": {},
    "version": 1
  }
}